{"contracts/BalancerFlashLoanArb.sol":{"BalancerFlashLoanArb":{"abi":[{"inputs":[{"internalType":"address","name":"_vault","type":"address"}],"stateMutability":"nonpayable","type":"constructor"},{"inputs":[{"internalType":"uint256","name":"got","type":"uint256"},{"internalType":"uint256","name":"required","type":"uint256"}],"name":"InsufficientProfit","type":"error"},{"inputs":[],"name":"InvalidAmount","type":"error"},{"inputs":[{"internalType":"uint256","name":"expected","type":"uint256"},{"internalType":"uint256","name":"actual","type":"uint256"}],"name":"InvalidFeeAmount","type":"error"},{"inputs":[],"name":"SwapFailed","type":"error"},{"inputs":[],"name":"TransferFailed","type":"error"},{"inputs":[],"name":"Unauthorized","type":"error"},{"inputs":[{"internalType":"address","name":"spender","type":"address"}],"name":"UntrustedSpender","type":"error"},{"anonymous":false,"inputs":[{"indexed":false,"internalType":"uint256","name":"newPrice","type":"uint256"},{"indexed":false,"internalType":"uint256","name":"timestamp","type":"uint256"}],"name":"EmergencyPriceReset","type":"event"},{"anonymous":false,"inputs":[{"indexed":true,"internalType":"address","name":"token","type":"address"},{"indexed":false,"internalType":"uint256","name":"amount","type":"uint256"}],"name":"EmergencyWithdraw","type":"event"},{"anonymous":false,"inputs":[{"indexed":false,"internalType":"uint256","name":"newPrice","type":"uint256"},{"indexed":false,"internalType":"uint256","name":"timestamp","type":"uint256"}],"name":"FallbackPriceUpdated","type":"event"},{"anonymous":false,"inputs":[{"indexed":true,"internalType":"address","name":"token","type":"address"},{"indexed":false,"internalType":"uint256","name":"amount","type":"uint256"},{"indexed":false,"internalType":"uint256","name":"feeAmount","type":"uint256"},{"indexed":false,"internalType":"uint256","name":"profit","type":"uint256"},{"indexed":false,"internalType":"uint256","name":"minProfitBps","type":"uint256"},{"indexed":false,"internalType":"uint256","name":"blockNumber","type":"uint256"},{"indexed":false,"internalType":"uint256","name":"gasPrice","type":"uint256"},{"indexed":false,"internalType":"uint256","name":"baseFee","type":"uint256"}],"name":"FlashLoanExecuted","type":"event"},{"anonymous":false,"inputs":[{"indexed":true,"internalType":"address","name":"previousOwner","type":"address"},{"indexed":true,"internalType":"address","name":"newOwner","type":"address"}],"name":"OwnershipTransferred","type":"event"},{"anonymous":false,"inputs":[{"indexed":false,"internalType":"address","name":"account","type":"address"}],"name":"Paused","type":"event"},{"anonymous":false,"inputs":[{"indexed":true,"internalType":"address","name":"srcToken","type":"address"},{"indexed":true,"internalType":"address","name":"dstToken","type":"address"},{"indexed":false,"internalType":"uint256","name":"inAmount","type":"uint256"},{"indexed":false,"internalType":"uint256","name":"outAmount","type":"uint256"},{"indexed":true,"internalType":"address","name":"target","type":"address"}],"name":"SwapExecuted","type":"event"},{"anonymous":false,"inputs":[{"indexed":true,"internalType":"address","name":"spender","type":"address"},{"indexed":false,"internalType":"bool","name":"trusted","type":"bool"}],"name":"TrustedSpenderUpdated","type":"event"},{"anonymous":false,"inputs":[{"indexed":false,"internalType":"address","name":"account","type":"address"}],"name":"Unpaused","type":"event"},{"inputs":[{"internalType":"uint256","name":"emergencyPrice","type":"uint256"},{"internalType":"bytes[]","name":"signatures","type":"bytes[]"}],"name":"emergencyPriceReset","outputs":[],"stateMutability":"nonpayable","type":"function"},{"inputs":[{"internalType":"address[]","name":"tokens","type":"address[]"}],"name":"emergencyWithdrawMultiple","outputs":[],"stateMutability":"nonpayable","type":"function"},{"inputs":[{"internalType":"contract IERC20[]","name":"tokens","type":"address[]"},{"internalType":"uint256[]","name":"amounts","type":"uint256[]"},{"internalType":"uint256","name":"minProfitBps","type":"uint256"},{"internalType":"bytes","name":"swapData","type":"bytes"}],"name":"executeFlashLoan","outputs":[],"stateMutability":"nonpayable","type":"function"},{"inputs":[],"name":"getETHPriceUSD","outputs":[{"internalType":"uint256","name":"price","type":"uint256"}],"stateMutability":"nonpayable","type":"function"},{"inputs":[{"internalType":"uint256","name":"gasUsed","type":"uint256"},{"internalType":"uint256","name":"gasPrice","type":"uint256"}],"name":"getGasCostUSD","outputs":[{"internalType":"uint256","name":"gasCostUSD","type":"uint256"}],"stateMutability":"nonpayable","type":"function"},{"inputs":[],"name":"owner","outputs":[{"internalType":"address","name":"","type":"address"}],"stateMutability":"view","type":"function"},{"inputs":[],"name":"pause","outputs":[],"stateMutability":"nonpayable","type":"function"},{"inputs":[],"name":"paused","outputs":[{"internalType":"bool","name":"","type":"bool"}],"stateMutability":"view","type":"function"},{"inputs":[{"internalType":"contract IERC20[]","name":"tokens","type":"address[]"},{"internalType":"uint256[]","name":"amounts","type":"uint256[]"},{"internalType":"uint256[]","name":"feeAmounts","type":"uint256[]"},{"internalType":"bytes","name":"userData","type":"bytes"}],"name":"receiveFlashLoan","outputs":[],"stateMutability":"nonpayable","type":"function"},{"inputs":[{"internalType":"address","name":"spender","type":"address"},{"internalType":"bool","name":"trusted","type":"bool"}],"name":"setTrustedSpender","outputs":[],"stateMutability":"nonpayable","type":"function"},{"inputs":[{"internalType":"address","name":"","type":"address"}],"name":"trustedSpenders","outputs":[{"internalType":"bool","name":"","type":"bool"}],"stateMutability":"view","type":"function"},{"inputs":[],"name":"unpause","outputs":[],"stateMutability":"nonpayable","type":"function"},{"inputs":[{"internalType":"uint256","name":"newPriceUSD","type":"uint256"}],"name":"updateFallbackPrice","outputs":[],"stateMutability":"nonpayable","type":"function"},{"inputs":[{"internalType":"address","name":"tokenAddress","type":"address"}],"name":"withdraw","outputs":[],"stateMutability":"nonpayable","type":"function"},{"stateMutability":"payable","type":"receive"}],"evm":{"bytecode":{"linkReferences":{},"object":"610140604052736b175474e89094c44da98b954eedeac495271d0f60a05273c02aaa39b223fe8d0a0e5c4f27ead9083c756cc260c05273dac17f958d2ee523a2206206994597c13d831ec760e052732260fac5e5542a773aa44fbcfedf7c193bc2c5996101005273a0b86991c6218b36c1d19d4a2e9eb0ce3606eb48610120523480156200008c57600080fd5b5060405162002ee838038062002ee8833981016040819052620000af91620001ca565b33620000bb816200017a565b5060018080556002805460ff199081169091556001600160a01b0390921660805260036020527f73d637d229721ca538a0a2e9712eeef46a1889496c0a60f402b430eba28d4a2e80548316821790557fdc51a0a44317b550a6b5ddb34687ce2bd40e4750eec27343e32b23e6867392088054831682179055737a250d5630b4cf539739df2c5dacb4c659f2488d6000527ffb19a963956c9cb662dd3ae48988c4b90766df71ea130109840abe0a1b23dba88054909216179055620001fc565b600080546001600160a01b038381166001600160a01b0319831681178455604051919092169283917f8be0079c531659141344cd1fd0a4f28419497f9722a3daafe3b4186f6b6457e09190a35050565b600060208284031215620001dd57600080fd5b81516001600160a01b0381168114620001f557600080fd5b9392505050565b60805160a05160c05160e0516101005161012051612c5762000291600039600081816120fb01526122490152600081816120d301526122210152600081816120a901526121f70152600081816101230152818161208101526121cf01526000818161205c01526121aa01526000818160f101528181610c2b01528181610df2015281816112b501526118570152612c576000f3fe6080604052600436106100e15760003560e01c80638456cb591161007f578063bce7755511610059578063bce77555146102f6578063ee69f70814610316578063f04f27071461032b578063f47558271461034b57600080fd5b80638456cb59146102895780638da5cb5b1461029e57806391c7e540146102c657600080fd5b80633f4ba83a116100bb5780633f4ba83a146101fd57806351cff8d9146102125780635c975abb146102325780636f48a6a61461025b57600080fd5b8063114948b31461019d57806312867764146101bd57806321f6d221146101dd57600080fd5b3661019857336001600160a01b037f00000000000000000000000000000000000000000000000000000000000000001614806101455750336001600160a01b037f000000000000000000000000000000000000000000000000000000000000000016145b6101965760405162461bcd60e51b815260206004820152601f60248201527f4f6e6c79207661756c74206f7220574554482063616e2073656e64204554480060448201526064015b60405180910390fd5b005b600080fd5b3480156101a957600080fd5b506101966101b8366004612428565b61036b565b3480156101c957600080fd5b506101966101d83660046124ad565b6103d2565b3480156101e957600080fd5b506101966101f83660046124ef565b61047c565b34801561020957600080fd5b50610196610629565b34801561021e57600080fd5b5061019661022d36600461253b565b61063b565b34801561023e57600080fd5b5060025460ff165b60405190151581526020015b60405180910390f35b34801561026757600080fd5b5061027b61027636600461255f565b610937565b604051908152602001610252565b34801561029557600080fd5b50610196610a70565b3480156102aa57600080fd5b506000546040516001600160a01b039091168152602001610252565b3480156102d257600080fd5b506102466102e136600461253b565b60036020526000908152604090205460ff1681565b34801561030257600080fd5b50610196610311366004612734565b610a80565b34801561032257600080fd5b5061027b610ca2565b34801561033757600080fd5b506101966103463660046127c6565b610ddf565b34801561035757600080fd5b5061019661036636600461285a565b610f08565b610373611182565b6001600160a01b038216600081815260036020908152604091829020805460ff191685151590811790915591519182527ff819ab7476cad2806c200f5c1c2b37e2f73cf9644851cb2101dfa70ce4e6dab9910160405180910390a25050565b6103da611182565b60005b8181101561047757306351cff8d98484848181106103fd576103fd612873565b9050602002016020810190610412919061253b565b6040516001600160e01b031960e084901b1681526001600160a01b039091166004820152602401600060405180830381600087803b15801561045357600080fd5b505af1925050508015610464575060015b508061046f8161289f565b9150506103dd565b505050565b610484611182565b64174876e8008310156104d95760405162461bcd60e51b815260206004820152601760248201527f456d657267656e637920707269636520746f6f206c6f77000000000000000000604482015260640161018d565b64746a52880083111561052e5760405162461bcd60e51b815260206004820152601860248201527f456d657267656e637920707269636520746f6f20686967680000000000000000604482015260640161018d565b600281101561057f5760405162461bcd60e51b815260206004820152601860248201527f4e656564206d756c7469706c65207369676e6174757265730000000000000000604482015260640161018d565b62093a806005544261059191906128b8565b116105de5760405162461bcd60e51b815260206004820152601a60248201527f4e6f7420616e20656d657267656e637920736974756174696f6e000000000000604482015260640161018d565b60048390554260058190556040805185815260208101929092527ff7c07ae215ffba4915e53dc7d94b2f3e80e0cee7927b86576e05f1ab63b97a0191015b60405180910390a1505050565b610631611182565b6106396111dc565b565b610643611182565b6002600154036106655760405162461bcd60e51b815260040161018d906128cb565b60026001556001600160a01b0381166107685747806106b75760405162461bcd60e51b815260206004820152600e60248201526d4e6f204554482062616c616e636560901b604482015260640161018d565b600080546040516001600160a01b039091169083908381818185875af1925050503d8060008114610704576040519150601f19603f3d011682016040523d82523d6000602084013e610709565b606091505b505090508061072b576040516312171d8360e31b815260040160405180910390fd5b6040518281526000907f5fafa99d0643513820be26656b45130b01e1c03062e1266bf36f88cbd3bd96959060200160405180910390a25050610930565b6040516370a0823160e01b815230600482015281906000906001600160a01b038316906370a0823190602401602060405180830381865afa1580156107b1573d6000803e3d6000fd5b505050506040513d601f19601f820116820180604052508101906107d59190612902565b90506000811161081a5760405162461bcd60e51b815260206004820152601060248201526f4e6f20746f6b656e2062616c616e636560801b604482015260640161018d565b816001600160a01b031663a9059cbb61083b6000546001600160a01b031690565b6040516001600160e01b031960e084901b1681526001600160a01b039091166004820152602481018490526044016020604051808303816000875af1158015610888573d6000803e3d6000fd5b505050506040513d601f19601f820116820180604052508101906108ac919061291b565b6108ea5760405162461bcd60e51b815260206004820152600f60248201526e151c985b9cd9995c8819985a5b1959608a1b604482015260640161018d565b826001600160a01b03167f5fafa99d0643513820be26656b45130b01e1c03062e1266bf36f88cbd3bd96958260405161092591815260200190565b60405180910390a250505b5060018055565b600080306001600160a01b031663ee69f7086040518163ffffffff1660e01b81526004016020604051808303816000875af115801561097a573d6000803e3d6000fd5b505050506040513d601f19601f8201168201806040525081019061099e9190612902565b90506001600160801b038411156109eb5760405162461bcd60e51b81526020600482015260116024820152706761735573656420746f6f206c6172676560781b604482015260640161018d565b6001600160801b03831115610a375760405162461bcd60e51b8152602060048201526012602482015271676173507269636520746f6f206c6172676560701b604482015260640161018d565b6000610a438486612938565b90506a52b7d2dcc80cd2e4000000610a5b8383612938565b610a65919061294f565b925050505b92915050565b610a78611182565b61063961122e565b610a88611182565b600260015403610aaa5760405162461bcd60e51b815260040161018d906128cb565b6002600155610ab761126b565b8251845114610b005760405162461bcd60e51b8152602060048201526015602482015274082e4e4c2f240d8cadccee8d040dad2e6dac2e8c6d605b1b604482015260640161018d565b8351600114610b605760405162461bcd60e51b815260206004820152602660248201527f4f6e6c792073696e676c6520746f6b656e20666c617368206c6f616e207375706044820152651c1bdc9d195960d21b606482015260840161018d565b600083600081518110610b7557610b75612873565b602002602001015111610bca5760405162461bcd60e51b815260206004820181905260248201527f416d6f756e74206d7573742062652067726561746572207468616e207a65726f604482015260640161018d565b6103e8821115610c0f5760405162461bcd60e51b815260206004820152601060248201526f4d61782031302520736c69707061676560801b604482015260640161018d565b6006829055604051632e1c224f60e11b81526001600160a01b037f00000000000000000000000000000000000000000000000000000000000000001690635c38449e90610c669030908890889087906004016129c1565b600060405180830381600087803b158015610c8057600080fd5b505af1158015610c94573d6000803e3d6000fd5b505060018055505050505050565b6000610cb060025460ff1690565b15610cef5760405162461bcd60e51b815260206004820152600f60248201526e10dbdb9d1c9858dd081c185d5cd959608a1b604482015260640161018d565b600080735f4ec3df9cbd43714fe2740f5e3616155c5b84196001600160a01b031663feaf968c6040518163ffffffff1660e01b815260040160a060405180830381865afa158015610d44573d6000803e3d6000fd5b505050506040513d601f19601f82011682018060405250810190610d689190612a87565b50935050925050620151808142610d7f91906128b8565b11158015610d8d5750600082135b15610da15750600481905542600555919050565b6000600454118015610dc3575062093a8060055442610dc091906128b8565b11155b15610dd2576004549250505090565b6445d964b8009250505090565b610de761126b565b336001600160a01b037f00000000000000000000000000000000000000000000000000000000000000001614610e2f576040516282b42960e81b815260040160405180910390fd5b600654600003610e815760405162461bcd60e51b815260206004820152601c60248201527f4d696e50726f666974427073206e6f7420696e697469616c697a656400000000604482015260640161018d565b600084600081518110610e9657610e96612873565b60200260200101519050600084600081518110610eb557610eb5612873565b60200260200101519050600084600081518110610ed457610ed4612873565b60200260200101519050610ee882826112b1565b600680546000909155610efe84848484896113e9565b5050505050505050565b610f10611182565b60008111610f595760405162461bcd60e51b81526020600482015260166024820152755072696365206d75737420626520706f73697469766560501b604482015260640161018d565b640ba43b7400811015610f9e5760405162461bcd60e51b815260206004820152600d60248201526c507269636520746f6f206c6f7760981b604482015260640161018d565b6501d1a94a2000811115610fe55760405162461bcd60e51b815260206004820152600e60248201526d0a0e4d2c6ca40e8dede40d0d2ced60931b604482015260640161018d565b62093a8060055442610ff791906128b8565b116110445760405162461bcd60e51b815260206004820152601b60248201527f50726963652066656564206e6f74207374616c6520656e6f7567680000000000604482015260640161018d565b600061104e61149e565b60045490915080156110c9576000611066848361154a565b905060328111156110c75760405162461bcd60e51b815260206004820152602560248201527f507269636520646576696174696f6e20746f6f20686967682066726f6d2063756044820152641c9c995b9d60da1b606482015260840161018d565b505b81156111405760006110db848461154a565b9050601e81111561113e5760405162461bcd60e51b815260206004820152602760248201527f507269636520646576696174696f6e20746f6f20686967682066726f6d20436860448201526661696e6c696e6b60c81b606482015260840161018d565b505b60048390554260058190556040805185815260208101929092527f1c1ae796fc41a2f7b042d5b4b9f7a0f7eee2169bc11e7ba0b3672cfa44f3d0c1910161061c565b6000546001600160a01b031633146106395760405162461bcd60e51b815260206004820181905260248201527f4f776e61626c653a2063616c6c6572206973206e6f7420746865206f776e6572604482015260640161018d565b6111e4611586565b6002805460ff191690557f5db9ee0a495bf2e6ff9c91a7834c1ba4fdd244a5e8aa4e537bd38aeae4b073aa335b6040516001600160a01b03909116815260200160405180910390a1565b61123661126b565b6002805460ff191660011790557f62e78cea01bee320cd4e420270b5ea74000d11b0c9f74754ebdbfc544b05a2586112113390565b60025460ff16156106395760405162461bcd60e51b815260206004820152601060248201526f14185d5cd8589b194e881c185d5cd95960821b604482015260640161018d565b60007f00000000000000000000000000000000000000000000000000000000000000006001600160a01b031663d2946c2b6040518163ffffffff1660e01b8152600401602060405180830381865afa158015611311573d6000803e3d6000fd5b505050506040513d601f19601f820116820180604052508101906113359190612ad7565b6001600160a01b031663d877845c6040518163ffffffff1660e01b8152600401602060405180830381865afa158015611372573d6000803e3d6000fd5b505050506040513d601f19601f820116820180604052508101906113969190612902565b90506000670de0b6b3a76400006113ad8386612938565b6113b7919061294f565b90508083146113e3576040516318731f9b60e01b8152600481018290526024810184905260440161018d565b50505050565b60026001540361140b5760405162461bcd60e51b815260040161018d906128cb565b60026001556040516370a0823160e01b81523060048201526000906001600160a01b038716906370a0823190602401602060405180830381865afa158015611457573d6000803e3d6000fd5b505050506040513d601f19601f8201168201806040525081019061147b9190612902565b905060008061148b8888866115cf565b91509150610c9488888886898787611731565b6000735f4ec3df9cbd43714fe2740f5e3616155c5b84196001600160a01b031663feaf968c6040518163ffffffff1660e01b815260040160a060405180830381865afa92505050801561150e575060408051601f3d908101601f1916820190925261150b91810190612a87565b60015b15611544576201518061152183426128b8565b1115801561152f5750600084135b1561153e575091949350505050565b50505050505b50600090565b60008183111561157b578161155f81856128b8565b61156a906064612938565b611574919061294f565b9050610a6a565b8261155f81846128b8565b60025460ff166106395760405162461bcd60e51b815260206004820152601460248201527314185d5cd8589b194e881b9bdd081c185d5cd95960621b604482015260640161018d565b600080600080606080868060200190518101906115ec9190612b41565b6001600160a01b038616600090815260036020526040902054959b509199509297509195509350915060ff1661164057604051636fb81b8d60e11b81526001600160a01b038716600482015260240161018d565b6001600160a01b03851660009081526003602052604090205460ff1661168457604051636fb81b8d60e11b81526001600160a01b038616600482015260240161018d565b6001600160a01b03841660009081526003602052604090205460ff166116c857604051636fb81b8d60e11b81526001600160a01b038516600482015260240161018d565b6001600160a01b03831660009081526003602052604090205460ff1661170c57604051636fb81b8d60e11b81526001600160a01b038416600482015260240161018d565b611719898988878661199d565b61172589868584611b94565b50505050935093915050565b6040516370a0823160e01b81523060048201526000906001600160a01b038916906370a0823190602401602060405180830381865afa158015611778573d6000803e3d6000fd5b505050506040513d601f19601f8201168201806040525081019061179c9190612902565b90506117b36001600160a01b038916846000611da8565b6117c86001600160a01b038916836000611da8565b6117d3888484612048565b60006117df8789612bf2565b905060006127106117f08784612938565b6117fa919061294f565b9050600081611809848a612bf2565b6118139190612bf2565b90508084101561184057604051632744211560e11b8152600481018590526024810182905260440161018d565b60405163a9059cbb60e01b81526001600160a01b037f000000000000000000000000000000000000000000000000000000000000000081166004830152602482018590528c169063a9059cbb906044016020604051808303816000875af11580156118af573d6000803e3d6000fd5b505050506040513d601f19601f820116820180604052508101906118d3919061291b565b6119115760405162461bcd60e51b815260206004820152600f60248201526e151c985b9cd9995c8819985a5b1959608a1b604482015260640161018d565b600061191d848a612bf2565b61192790866128b8565b604080518d8152602081018d9052908101829052606081018a90524360808201523a60a08201524860c08201529091506001600160a01b038d16907fcaf3632d5cc34e1bba5d0f1019096e2bf42de7cd9ee65221bddd7e88e13a52fa9060e00160405180910390a2505050505050505050505050565b6119b16001600160a01b0386168486611da8565b6040516370a0823160e01b81523060048201526000906001600160a01b038716906370a0823190602401602060405180830381865afa1580156119f8573d6000803e3d6000fd5b505050506040513d601f19601f82011682018060405250810190611a1c9190612902565b90506000836001600160a01b031683604051611a389190612c05565b6000604051808303816000865af19150503d8060008114611a75576040519150601f19603f3d011682016040523d82523d6000602084013e611a7a565b606091505b5050905080611a9c5760405163081ceff360e41b815260040160405180910390fd5b6040516370a0823160e01b81523060048201526000906001600160a01b038916906370a0823190602401602060405180830381865afa158015611ae3573d6000803e3d6000fd5b505050506040513d601f19601f82011682018060405250810190611b079190612902565b90506000611b1582856128b8565b9050600080611b238b612196565b91509150876001600160a01b0316826001600160a01b03168c6001600160a01b03167fee4825a7988c5519a874be79f2a84d13d02cfe5f74cad97cda2d5b55d2b13bfa8685604051611b7f929190918252602082015260400190565b60405180910390a45050505050505050505050565b600080611ba086612196565b90925090506001600160a01b03821615801590611bbd5750600081115b15611bd657611bd66001600160a01b0383168683611da8565b6040516370a0823160e01b81523060048201526000906001600160a01b038816906370a0823190602401602060405180830381865afa158015611c1d573d6000803e3d6000fd5b505050506040513d601f19601f82011682018060405250810190611c419190612902565b90506000856001600160a01b031685604051611c5d9190612c05565b6000604051808303816000865af19150503d8060008114611c9a576040519150601f19603f3d011682016040523d82523d6000602084013e611c9f565b606091505b5050905080611cc15760405163081ceff360e41b815260040160405180910390fd5b6040516370a0823160e01b81523060048201526000906001600160a01b038a16906370a0823190602401602060405180830381865afa158015611d08573d6000803e3d6000fd5b505050506040513d601f19601f82011682018060405250810190611d2c9190612902565b90506000611d3a84836128b8565b9050876001600160a01b03168a6001600160a01b0316876001600160a01b03167fee4825a7988c5519a874be79f2a84d13d02cfe5f74cad97cda2d5b55d2b13bfa8885604051611d94929190918252602082015260400190565b60405180910390a450505050505050505050565b600081118015611e295750604051636eb1769f60e11b81523060048201526001600160a01b0383811660248301526000919085169063dd62ed3e90604401602060405180830381865afa158015611e03573d6000803e3d6000fd5b505050506040513d601f19601f82011682018060405250810190611e279190612902565b115b15611f3b57604080516001600160a01b0384811660248301526000604480840182905284518085039091018152606490930184526020830180516001600160e01b031663095ea7b360e01b1790529251839291871691611e8891612c05565b6000604051808303816000865af19150503d8060008114611ec5576040519150601f19603f3d011682016040523d82523d6000602084013e611eca565b606091505b5091509150818015611ef4575080511580611ef4575080806020019051810190611ef4919061291b565b611f385760405162461bcd60e51b815260206004820152601560248201527414995cd95d08185c1c1c9bdd985b0819985a5b1959605a1b604482015260640161018d565b50505b604080516001600160a01b038481166024830152604480830185905283518084039091018152606490920183526020820180516001600160e01b031663095ea7b360e01b1790529151600092839290871691611f979190612c05565b6000604051808303816000865af19150503d8060008114611fd4576040519150601f19603f3d011682016040523d82523d6000602084013e611fd9565b606091505b5091509150818015612003575080511580612003575080806020019051810190612003919061291b565b6120415760405162461bcd60e51b815260206004820152600f60248201526e105c1c1c9bdd985b0819985a5b1959608a1b604482015260640161018d565b5050505050565b6040805160a0810182526001600160a01b037f0000000000000000000000000000000000000000000000000000000000000000811682527f0000000000000000000000000000000000000000000000000000000000000000811660208301527f00000000000000000000000000000000000000000000000000000000000000008116928201929092527f0000000000000000000000000000000000000000000000000000000000000000821660608201527f0000000000000000000000000000000000000000000000000000000000000000909116608082015260005b600581101561204157846001600160a01b031682826005811061214a5761214a612873565b60200201516001600160a01b03161461218e57600082826005811061217157612171612873565b60200201519050612182818661236f565b61218c818561236f565b505b600101612125565b6040805160a0810182526001600160a01b037f0000000000000000000000000000000000000000000000000000000000000000811682527f0000000000000000000000000000000000000000000000000000000000000000811660208301527f00000000000000000000000000000000000000000000000000000000000000008116928201929092527f0000000000000000000000000000000000000000000000000000000000000000821660608201527f0000000000000000000000000000000000000000000000000000000000000000909116608082015260009081908180805b600581101561236457866001600160a01b031684826005811061229e5761229e612873565b60200201516001600160a01b03161461235c5760008482600581106122c5576122c5612873565b60200201516040516370a0823160e01b81523060048201526001600160a01b03909116906370a0823190602401602060405180830381865afa15801561230f573d6000803e3d6000fd5b505050506040513d601f19601f820116820180604052508101906123339190612902565b90508381111561235a5780935084826005811061235257612352612873565b602002015192505b505b600101612279565b509590945092505050565b604051636eb1769f60e11b81523060048201526001600160a01b0382811660248301526000919084169063dd62ed3e90604401602060405180830381865afa1580156123bf573d6000803e3d6000fd5b505050506040513d601f19601f820116820180604052508101906123e39190612902565b11156123fe576123fe6001600160a01b038316826000611da8565b5050565b6001600160a01b038116811461241757600080fd5b50565b801515811461241757600080fd5b6000806040838503121561243b57600080fd5b823561244681612402565b915060208301356124568161241a565b809150509250929050565b60008083601f84011261247357600080fd5b50813567ffffffffffffffff81111561248b57600080fd5b6020830191508360208260051b85010111156124a657600080fd5b9250929050565b600080602083850312156124c057600080fd5b823567ffffffffffffffff8111156124d757600080fd5b6124e385828601612461565b90969095509350505050565b60008060006040848603121561250457600080fd5b83359250602084013567ffffffffffffffff81111561252257600080fd5b61252e86828701612461565b9497909650939450505050565b60006020828403121561254d57600080fd5b813561255881612402565b9392505050565b6000806040838503121561257257600080fd5b50508035926020909101359150565b634e487b7160e01b600052604160045260246000fd5b604051601f8201601f1916810167ffffffffffffffff811182821017156125c0576125c0612581565b604052919050565b600067ffffffffffffffff8211156125e2576125e2612581565b5060051b60200190565b600082601f8301126125fd57600080fd5b8135602061261261260d836125c8565b612597565b82815260059290921b8401810191818101908684111561263157600080fd5b8286015b8481101561265557803561264881612402565b8352918301918301612635565b509695505050505050565b600082601f83011261267157600080fd5b8135602061268161260d836125c8565b82815260059290921b840181019181810190868411156126a057600080fd5b8286015b8481101561265557803583529183019183016126a4565b600067ffffffffffffffff8211156126d5576126d5612581565b50601f01601f191660200190565b600082601f8301126126f457600080fd5b813561270261260d826126bb565b81815284602083860101111561271757600080fd5b816020850160208301376000918101602001919091529392505050565b6000806000806080858703121561274a57600080fd5b843567ffffffffffffffff8082111561276257600080fd5b61276e888389016125ec565b9550602087013591508082111561278457600080fd5b61279088838901612660565b94506040870135935060608701359150808211156127ad57600080fd5b506127ba878288016126e3565b91505092959194509250565b600080600080608085870312156127dc57600080fd5b843567ffffffffffffffff808211156127f457600080fd5b612800888389016125ec565b9550602087013591508082111561281657600080fd5b61282288838901612660565b9450604087013591508082111561283857600080fd5b61284488838901612660565b935060608701359150808211156127ad57600080fd5b60006020828403121561286c57600080fd5b5035919050565b634e487b7160e01b600052603260045260246000fd5b634e487b7160e01b600052601160045260246000fd5b6000600182016128b1576128b1612889565b5060010190565b81810381811115610a6a57610a6a612889565b6020808252601f908201527f5265656e7472616e637947756172643a207265656e7472616e742063616c6c00604082015260600190565b60006020828403121561291457600080fd5b5051919050565b60006020828403121561292d57600080fd5b81516125588161241a565b8082028115828204841417610a6a57610a6a612889565b60008261296c57634e487b7160e01b600052601260045260246000fd5b500490565b60005b8381101561298c578181015183820152602001612974565b50506000910152565b600081518084526129ad816020860160208601612971565b601f01601f19169290920160200192915050565b6001600160a01b0385811682526080602080840182905286519184018290526000928782019290919060a0860190855b81811015612a0f5785518516835294830194918301916001016129f1565b5050858103604087015287518082529082019350915080870160005b83811015612a4757815185529382019390820190600101612a2b565b505050508281036060840152612a5d8185612995565b979650505050505050565b805169ffffffffffffffffffff81168114612a8257600080fd5b919050565b600080600080600060a08688031215612a9f57600080fd5b612aa886612a68565b9450602086015193506040860151925060608601519150612acb60808701612a68565b90509295509295909350565b600060208284031215612ae957600080fd5b815161255881612402565b600082601f830112612b0557600080fd5b8151612b1361260d826126bb565b818152846020838601011115612b2857600080fd5b612b39826020830160208701612971565b949350505050565b60008060008060008060c08789031215612b5a57600080fd5b8651612b6581612402565b6020880151909650612b7681612402565b604088015190955067ffffffffffffffff80821115612b9457600080fd5b612ba08a838b01612af4565b955060608901519150612bb282612402565b6080890151919450612bc382612402565b60a089015191935080821115612bd857600080fd5b50612be589828a01612af4565b9150509295509295509295565b80820180821115610a6a57610a6a612889565b60008251612c17818460208701612971565b919091019291505056fea264697066735822122001f5b9db86143b062dba0932590e37fa932cec73cf3d67b91e98def44687aee664736f6c63430008140033","opcodes":"PUSH2 0x140 PUSH1 0x40 MSTORE PUSH20 0x6B175474E89094C44DA98B954EEDEAC495271D0F PUSH1 0xA0 MSTORE PUSH20 0xC02AAA39B223FE8D0A0E5C4F27EAD9083C756CC2 PUSH1 0xC0 MSTORE PUSH20 0xDAC17F958D2EE523A2206206994597C13D831EC7 PUSH1 0xE0 MSTORE PUSH20 0x2260FAC5E5542A773AA44FBCFEDF7C193BC2C599 PUSH2 0x100 MSTORE PUSH20 0xA0B86991C6218B36C1D19D4A2E9EB0CE3606EB48 PUSH2 0x120 MSTORE CALLVALUE DUP1 ISZERO PUSH3 0x8C JUMPI PUSH1 0x0 DUP1 REVERT JUMPDEST POP PUSH1 0x40 MLOAD PUSH3 0x2EE8 CODESIZE SUB DUP1 PUSH3 0x2EE8 DUP4 CODECOPY DUP2 ADD PUSH1 0x40 DUP2 SWAP1 MSTORE PUSH3 0xAF SWAP2 PUSH3 0x1CA JUMP JUMPDEST CALLER PUSH3 0xBB DUP2 PUSH3 0x17A JUMP JUMPDEST POP PUSH1 0x1 DUP1 DUP1 SSTORE PUSH1 0x2 DUP1 SLOAD PUSH1 0xFF NOT SWAP1 DUP2 AND SWAP1 SWAP2 SSTORE PUSH1 0x1 PUSH1 0x1 PUSH1 0xA0 SHL SUB SWAP1 SWAP3 AND PUSH1 0x80 MSTORE PUSH1 0x3 PUSH1 0x20 MSTORE PUSH32 0x73D637D229721CA538A0A2E9712EEEF46A1889496C0A60F402B430EBA28D4A2E DUP1 SLOAD DUP4 AND DUP3 OR SWAP1 SSTORE PUSH32 0xDC51A0A44317B550A6B5DDB34687CE2BD40E4750EEC27343E32B23E686739208 DUP1 SLOAD DUP4 AND DUP3 OR SWAP1 SSTORE PUSH20 0x7A250D5630B4CF539739DF2C5DACB4C659F2488D PUSH1 0x0 MSTORE PUSH32 0xFB19A963956C9CB662DD3AE48988C4B90766DF71EA130109840ABE0A1B23DBA8 DUP1 SLOAD SWAP1 SWAP3 AND OR SWAP1 SSTORE PUSH3 0x1FC JUMP JUMPDEST PUSH1 0x0 DUP1 SLOAD PUSH1 0x1 PUSH1 0x1 PUSH1 0xA0 SHL SUB DUP4 DUP2 AND PUSH1 0x1 PUSH1 0x1 PUSH1 0xA0 SHL SUB NOT DUP4 AND DUP2 OR DUP5 SSTORE PUSH1 0x40 MLOAD SWAP2 SWAP1 SWAP3 AND SWAP3 DUP4 SWAP2 PUSH32 0x8BE0079C531659141344CD1FD0A4F28419497F9722A3DAAFE3B4186F6B6457E0 SWAP2 SWAP1 LOG3 POP POP JUMP JUMPDEST PUSH1 0x0 PUSH1 0x20 DUP3 DUP5 SUB SLT ISZERO PUSH3 0x1DD JUMPI PUSH1 0x0 DUP1 REVERT JUMPDEST DUP2 MLOAD PUSH1 0x1 PUSH1 0x1 PUSH1 0xA0 SHL SUB DUP2 AND DUP2 EQ PUSH3 0x1F5 JUMPI PUSH1 0x0 DUP1 REVERT JUMPDEST SWAP4 SWAP3 POP POP POP JUMP JUMPDEST PUSH1 0x80 MLOAD PUSH1 0xA0 MLOAD PUSH1 0xC0 MLOAD PUSH1 0xE0 MLOAD PUSH2 0x100 MLOAD PUSH2 0x120 MLOAD PUSH2 0x2C57 PUSH3 0x291 PUSH1 0x0 CODECOPY PUSH1 0x0 DUP2 DUP2 PUSH2 0x20FB ADD MSTORE PUSH2 0x2249 ADD MSTORE PUSH1 0x0 DUP2 DUP2 PUSH2 0x20D3 ADD MSTORE PUSH2 0x2221 ADD MSTORE PUSH1 0x0 DUP2 DUP2 PUSH2 0x20A9 ADD MSTORE PUSH2 0x21F7 ADD MSTORE PUSH1 0x0 DUP2 DUP2 PUSH2 0x123 ADD MSTORE DUP2 DUP2 PUSH2 0x2081 ADD MSTORE PUSH2 0x21CF ADD MSTORE PUSH1 0x0 DUP2 DUP2 PUSH2 0x205C ADD MSTORE PUSH2 0x21AA ADD MSTORE PUSH1 0x0 DUP2 DUP2 PUSH1 0xF1 ADD MSTORE DUP2 DUP2 PUSH2 0xC2B ADD MSTORE DUP2 DUP2 PUSH2 0xDF2 ADD MSTORE DUP2 DUP2 PUSH2 0x12B5 ADD MSTORE PUSH2 0x1857 ADD MSTORE PUSH2 0x2C57 PUSH1 0x0 RETURN INVALID PUSH1 0x80 PUSH1 0x40 MSTORE PUSH1 0x4 CALLDATASIZE LT PUSH2 0xE1 JUMPI PUSH1 0x0 CALLDATALOAD PUSH1 0xE0 SHR DUP1 PUSH4 0x8456CB59 GT PUSH2 0x7F JUMPI DUP1 PUSH4 0xBCE77555 GT PUSH2 0x59 JUMPI DUP1 PUSH4 0xBCE77555 EQ PUSH2 0x2F6 JUMPI DUP1 PUSH4 0xEE69F708 EQ PUSH2 0x316 JUMPI DUP1 PUSH4 0xF04F2707 EQ PUSH2 0x32B JUMPI DUP1 PUSH4 0xF4755827 EQ PUSH2 0x34B JUMPI PUSH1 0x0 DUP1 REVERT JUMPDEST DUP1 PUSH4 0x8456CB59 EQ PUSH2 0x289 JUMPI DUP1 PUSH4 0x8DA5CB5B EQ PUSH2 0x29E JUMPI DUP1 PUSH4 0x91C7E540 EQ PUSH2 0x2C6 JUMPI PUSH1 0x0 DUP1 REVERT JUMPDEST DUP1 PUSH4 0x3F4BA83A GT PUSH2 0xBB JUMPI DUP1 PUSH4 0x3F4BA83A EQ PUSH2 0x1FD JUMPI DUP1 PUSH4 0x51CFF8D9 EQ PUSH2 0x212 JUMPI DUP1 PUSH4 0x5C975ABB EQ PUSH2 0x232 JUMPI DUP1 PUSH4 0x6F48A6A6 EQ PUSH2 0x25B JUMPI PUSH1 0x0 DUP1 REVERT JUMPDEST DUP1 PUSH4 0x114948B3 EQ PUSH2 0x19D JUMPI DUP1 PUSH4 0x12867764 EQ PUSH2 0x1BD JUMPI DUP1 PUSH4 0x21F6D221 EQ PUSH2 0x1DD JUMPI PUSH1 0x0 DUP1 REVERT JUMPDEST CALLDATASIZE PUSH2 0x198 JUMPI CALLER PUSH1 0x1 PUSH1 0x1 PUSH1 0xA0 SHL SUB PUSH32 0x0 AND EQ DUP1 PUSH2 0x145 JUMPI POP CALLER PUSH1 0x1 PUSH1 0x1 PUSH1 0xA0 SHL SUB PUSH32 0x0 AND EQ JUMPDEST PUSH2 0x196 JUMPI PUSH1 0x40 MLOAD PUSH3 0x461BCD PUSH1 0xE5 SHL DUP2 MSTORE PUSH1 0x20 PUSH1 0x4 DUP3 ADD MSTORE PUSH1 0x1F PUSH1 0x24 DUP3 ADD MSTORE PUSH32 0x4F6E6C79207661756C74206F7220574554482063616E2073656E642045544800 PUSH1 0x44 DUP3 ADD MSTORE PUSH1 0x64 ADD JUMPDEST PUSH1 0x40 MLOAD DUP1 SWAP2 SUB SWAP1 REVERT JUMPDEST STOP JUMPDEST PUSH1 0x0 DUP1 REVERT JUMPDEST CALLVALUE DUP1 ISZERO PUSH2 0x1A9 JUMPI PUSH1 0x0 DUP1 REVERT JUMPDEST POP PUSH2 0x196 PUSH2 0x1B8 CALLDATASIZE PUSH1 0x4 PUSH2 0x2428 JUMP JUMPDEST PUSH2 0x36B JUMP JUMPDEST CALLVALUE DUP1 ISZERO PUSH2 0x1C9 JUMPI PUSH1 0x0 DUP1 REVERT JUMPDEST POP PUSH2 0x196 PUSH2 0x1D8 CALLDATASIZE PUSH1 0x4 PUSH2 0x24AD JUMP JUMPDEST PUSH2 0x3D2 JUMP JUMPDEST CALLVALUE DUP1 ISZERO PUSH2 0x1E9 JUMPI PUSH1 0x0 DUP1 REVERT JUMPDEST POP PUSH2 0x196 PUSH2 0x1F8 CALLDATASIZE PUSH1 0x4 PUSH2 0x24EF JUMP JUMPDEST PUSH2 0x47C JUMP JUMPDEST CALLVALUE DUP1 ISZERO PUSH2 0x209 JUMPI PUSH1 0x0 DUP1 REVERT JUMPDEST POP PUSH2 0x196 PUSH2 0x629 JUMP JUMPDEST CALLVALUE DUP1 ISZERO PUSH2 0x21E JUMPI PUSH1 0x0 DUP1 REVERT JUMPDEST POP PUSH2 0x196 PUSH2 0x22D CALLDATASIZE PUSH1 0x4 PUSH2 0x253B JUMP JUMPDEST PUSH2 0x63B JUMP JUMPDEST CALLVALUE DUP1 ISZERO PUSH2 0x23E JUMPI PUSH1 0x0 DUP1 REVERT JUMPDEST POP PUSH1 0x2 SLOAD PUSH1 0xFF AND JUMPDEST PUSH1 0x40 MLOAD SWAP1 ISZERO ISZERO DUP2 MSTORE PUSH1 0x20 ADD JUMPDEST PUSH1 0x40 MLOAD DUP1 SWAP2 SUB SWAP1 RETURN JUMPDEST CALLVALUE DUP1 ISZERO PUSH2 0x267 JUMPI PUSH1 0x0 DUP1 REVERT JUMPDEST POP PUSH2 0x27B PUSH2 0x276 CALLDATASIZE PUSH1 0x4 PUSH2 0x255F JUMP JUMPDEST PUSH2 0x937 JUMP JUMPDEST PUSH1 0x40 MLOAD SWAP1 DUP2 MSTORE PUSH1 0x20 ADD PUSH2 0x252 JUMP JUMPDEST CALLVALUE DUP1 ISZERO PUSH2 0x295 JUMPI PUSH1 0x0 DUP1 REVERT JUMPDEST POP PUSH2 0x196 PUSH2 0xA70 JUMP JUMPDEST CALLVALUE DUP1 ISZERO PUSH2 0x2AA JUMPI PUSH1 0x0 DUP1 REVERT JUMPDEST POP PUSH1 0x0 SLOAD PUSH1 0x40 MLOAD PUSH1 0x1 PUSH1 0x1 PUSH1 0xA0 SHL SUB SWAP1 SWAP2 AND DUP2 MSTORE PUSH1 0x20 ADD PUSH2 0x252 JUMP JUMPDEST CALLVALUE DUP1 ISZERO PUSH2 0x2D2 JUMPI PUSH1 0x0 DUP1 REVERT JUMPDEST POP PUSH2 0x246 PUSH2 0x2E1 CALLDATASIZE PUSH1 0x4 PUSH2 0x253B JUMP JUMPDEST PUSH1 0x3 PUSH1 0x20 MSTORE PUSH1 0x0 SWAP1 DUP2 MSTORE PUSH1 0x40 SWAP1 KECCAK256 SLOAD PUSH1 0xFF AND DUP2 JUMP JUMPDEST CALLVALUE DUP1 ISZERO PUSH2 0x302 JUMPI PUSH1 0x0 DUP1 REVERT JUMPDEST POP PUSH2 0x196 PUSH2 0x311 CALLDATASIZE PUSH1 0x4 PUSH2 0x2734 JUMP JUMPDEST PUSH2 0xA80 JUMP JUMPDEST CALLVALUE DUP1 ISZERO PUSH2 0x322 JUMPI PUSH1 0x0 DUP1 REVERT JUMPDEST POP PUSH2 0x27B PUSH2 0xCA2 JUMP JUMPDEST CALLVALUE DUP1 ISZERO PUSH2 0x337 JUMPI PUSH1 0x0 DUP1 REVERT JUMPDEST POP PUSH2 0x196 PUSH2 0x346 CALLDATASIZE PUSH1 0x4 PUSH2 0x27C6 JUMP JUMPDEST PUSH2 0xDDF JUMP JUMPDEST CALLVALUE DUP1 ISZERO PUSH2 0x357 JUMPI PUSH1 0x0 DUP1 REVERT JUMPDEST POP PUSH2 0x196 PUSH2 0x366 CALLDATASIZE PUSH1 0x4 PUSH2 0x285A JUMP JUMPDEST PUSH2 0xF08 JUMP JUMPDEST PUSH2 0x373 PUSH2 0x1182 JUMP JUMPDEST PUSH1 0x1 PUSH1 0x1 PUSH1 0xA0 SHL SUB DUP3 AND PUSH1 0x0 DUP2 DUP2 MSTORE PUSH1 0x3 PUSH1 0x20 SWAP1 DUP2 MSTORE PUSH1 0x40 SWAP2 DUP3 SWAP1 KECCAK256 DUP1 SLOAD PUSH1 0xFF NOT AND DUP6 ISZERO ISZERO SWAP1 DUP2 OR SWAP1 SWAP2 SSTORE SWAP2 MLOAD SWAP2 DUP3 MSTORE PUSH32 0xF819AB7476CAD2806C200F5C1C2B37E2F73CF9644851CB2101DFA70CE4E6DAB9 SWAP2 ADD PUSH1 0x40 MLOAD DUP1 SWAP2 SUB SWAP1 LOG2 POP POP JUMP JUMPDEST PUSH2 0x3DA PUSH2 0x1182 JUMP JUMPDEST PUSH1 0x0 JUMPDEST DUP2 DUP2 LT ISZERO PUSH2 0x477 JUMPI ADDRESS PUSH4 0x51CFF8D9 DUP5 DUP5 DUP5 DUP2 DUP2 LT PUSH2 0x3FD JUMPI PUSH2 0x3FD PUSH2 0x2873 JUMP JUMPDEST SWAP1 POP PUSH1 0x20 MUL ADD PUSH1 0x20 DUP2 ADD SWAP1 PUSH2 0x412 SWAP2 SWAP1 PUSH2 0x253B JUMP JUMPDEST PUSH1 0x40 MLOAD PUSH1 0x1 PUSH1 0x1 PUSH1 0xE0 SHL SUB NOT PUSH1 0xE0 DUP5 SWAP1 SHL AND DUP2 MSTORE PUSH1 0x1 PUSH1 0x1 PUSH1 0xA0 SHL SUB SWAP1 SWAP2 AND PUSH1 0x4 DUP3 ADD MSTORE PUSH1 0x24 ADD PUSH1 0x0 PUSH1 0x40 MLOAD DUP1 DUP4 SUB DUP2 PUSH1 0x0 DUP8 DUP1 EXTCODESIZE ISZERO DUP1 ISZERO PUSH2 0x453 JUMPI PUSH1 0x0 DUP1 REVERT JUMPDEST POP GAS CALL SWAP3 POP POP POP DUP1 ISZERO PUSH2 0x464 JUMPI POP PUSH1 0x1 JUMPDEST POP DUP1 PUSH2 0x46F DUP2 PUSH2 0x289F JUMP JUMPDEST SWAP2 POP POP PUSH2 0x3DD JUMP JUMPDEST POP POP POP JUMP JUMPDEST PUSH2 0x484 PUSH2 0x1182 JUMP JUMPDEST PUSH5 0x174876E800 DUP4 LT ISZERO PUSH2 0x4D9 JUMPI PUSH1 0x40 MLOAD PUSH3 0x461BCD PUSH1 0xE5 SHL DUP2 MSTORE PUSH1 0x20 PUSH1 0x4 DUP3 ADD MSTORE PUSH1 0x17 PUSH1 0x24 DUP3 ADD MSTORE PUSH32 0x456D657267656E637920707269636520746F6F206C6F77000000000000000000 PUSH1 0x44 DUP3 ADD MSTORE PUSH1 0x64 ADD PUSH2 0x18D JUMP JUMPDEST PUSH5 0x746A528800 DUP4 GT ISZERO PUSH2 0x52E JUMPI PUSH1 0x40 MLOAD PUSH3 0x461BCD PUSH1 0xE5 SHL DUP2 MSTORE PUSH1 0x20 PUSH1 0x4 DUP3 ADD MSTORE PUSH1 0x18 PUSH1 0x24 DUP3 ADD MSTORE PUSH32 0x456D657267656E637920707269636520746F6F20686967680000000000000000 PUSH1 0x44 DUP3 ADD MSTORE PUSH1 0x64 ADD PUSH2 0x18D JUMP JUMPDEST PUSH1 0x2 DUP2 LT ISZERO PUSH2 0x57F JUMPI PUSH1 0x40 MLOAD PUSH3 0x461BCD PUSH1 0xE5 SHL DUP2 MSTORE PUSH1 0x20 PUSH1 0x4 DUP3 ADD MSTORE PUSH1 0x18 PUSH1 0x24 DUP3 ADD MSTORE PUSH32 0x4E656564206D756C7469706C65207369676E6174757265730000000000000000 PUSH1 0x44 DUP3 ADD MSTORE PUSH1 0x64 ADD PUSH2 0x18D JUMP JUMPDEST PUSH3 0x93A80 PUSH1 0x5 SLOAD TIMESTAMP PUSH2 0x591 SWAP2 SWAP1 PUSH2 0x28B8 JUMP JUMPDEST GT PUSH2 0x5DE JUMPI PUSH1 0x40 MLOAD PUSH3 0x461BCD PUSH1 0xE5 SHL DUP2 MSTORE PUSH1 0x20 PUSH1 0x4 DUP3 ADD MSTORE PUSH1 0x1A PUSH1 0x24 DUP3 ADD MSTORE PUSH32 0x4E6F7420616E20656D657267656E637920736974756174696F6E000000000000 PUSH1 0x44 DUP3 ADD MSTORE PUSH1 0x64 ADD PUSH2 0x18D JUMP JUMPDEST PUSH1 0x4 DUP4 SWAP1 SSTORE TIMESTAMP PUSH1 0x5 DUP2 SWAP1 SSTORE PUSH1 0x40 DUP1 MLOAD DUP6 DUP2 MSTORE PUSH1 0x20 DUP2 ADD SWAP3 SWAP1 SWAP3 MSTORE PUSH32 0xF7C07AE215FFBA4915E53DC7D94B2F3E80E0CEE7927B86576E05F1AB63B97A01 SWAP2 ADD JUMPDEST PUSH1 0x40 MLOAD DUP1 SWAP2 SUB SWAP1 LOG1 POP POP POP JUMP JUMPDEST PUSH2 0x631 PUSH2 0x1182 JUMP JUMPDEST PUSH2 0x639 PUSH2 0x11DC JUMP JUMPDEST JUMP JUMPDEST PUSH2 0x643 PUSH2 0x1182 JUMP JUMPDEST PUSH1 0x2 PUSH1 0x1 SLOAD SUB PUSH2 0x665 JUMPI PUSH1 0x40 MLOAD PUSH3 0x461BCD PUSH1 0xE5 SHL DUP2 MSTORE PUSH1 0x4 ADD PUSH2 0x18D SWAP1 PUSH2 0x28CB JUMP JUMPDEST PUSH1 0x2 PUSH1 0x1 SSTORE PUSH1 0x1 PUSH1 0x1 PUSH1 0xA0 SHL SUB DUP2 AND PUSH2 0x768 JUMPI SELFBALANCE DUP1 PUSH2 0x6B7 JUMPI PUSH1 0x40 MLOAD PUSH3 0x461BCD PUSH1 0xE5 SHL DUP2 MSTORE PUSH1 0x20 PUSH1 0x4 DUP3 ADD MSTORE PUSH1 0xE PUSH1 0x24 DUP3 ADD MSTORE PUSH14 0x4E6F204554482062616C616E6365 PUSH1 0x90 SHL PUSH1 0x44 DUP3 ADD MSTORE PUSH1 0x64 ADD PUSH2 0x18D JUMP JUMPDEST PUSH1 0x0 DUP1 SLOAD PUSH1 0x40 MLOAD PUSH1 0x1 PUSH1 0x1 PUSH1 0xA0 SHL SUB SWAP1 SWAP2 AND SWAP1 DUP4 SWAP1 DUP4 DUP2 DUP2 DUP2 DUP6 DUP8 GAS CALL SWAP3 POP POP POP RETURNDATASIZE DUP1 PUSH1 0x0 DUP2 EQ PUSH2 0x704 JUMPI PUSH1 0x40 MLOAD SWAP2 POP PUSH1 0x1F NOT PUSH1 0x3F RETURNDATASIZE ADD AND DUP3 ADD PUSH1 0x40 MSTORE RETURNDATASIZE DUP3 MSTORE RETURNDATASIZE PUSH1 0x0 PUSH1 0x20 DUP5 ADD RETURNDATACOPY PUSH2 0x709 JUMP JUMPDEST PUSH1 0x60 SWAP2 POP JUMPDEST POP POP SWAP1 POP DUP1 PUSH2 0x72B JUMPI PUSH1 0x40 MLOAD PUSH4 0x12171D83 PUSH1 0xE3 SHL DUP2 MSTORE PUSH1 0x4 ADD PUSH1 0x40 MLOAD DUP1 SWAP2 SUB SWAP1 REVERT JUMPDEST PUSH1 0x40 MLOAD DUP3 DUP2 MSTORE PUSH1 0x0 SWAP1 PUSH32 0x5FAFA99D0643513820BE26656B45130B01E1C03062E1266BF36F88CBD3BD9695 SWAP1 PUSH1 0x20 ADD PUSH1 0x40 MLOAD DUP1 SWAP2 SUB SWAP1 LOG2 POP POP PUSH2 0x930 JUMP JUMPDEST PUSH1 0x40 MLOAD PUSH4 0x70A08231 PUSH1 0xE0 SHL DUP2 MSTORE ADDRESS PUSH1 0x4 DUP3 ADD MSTORE DUP2 SWAP1 PUSH1 0x0 SWAP1 PUSH1 0x1 PUSH1 0x1 PUSH1 0xA0 SHL SUB DUP4 AND SWAP1 PUSH4 0x70A08231 SWAP1 PUSH1 0x24 ADD PUSH1 0x20 PUSH1 0x40 MLOAD DUP1 DUP4 SUB DUP2 DUP7 GAS STATICCALL ISZERO DUP1 ISZERO PUSH2 0x7B1 JUMPI RETURNDATASIZE PUSH1 0x0 DUP1 RETURNDATACOPY RETURNDATASIZE PUSH1 0x0 REVERT JUMPDEST POP POP POP POP PUSH1 0x40 MLOAD RETURNDATASIZE PUSH1 0x1F NOT PUSH1 0x1F DUP3 ADD AND DUP3 ADD DUP1 PUSH1 0x40 MSTORE POP DUP2 ADD SWAP1 PUSH2 0x7D5 SWAP2 SWAP1 PUSH2 0x2902 JUMP JUMPDEST SWAP1 POP PUSH1 0x0 DUP2 GT PUSH2 0x81A JUMPI PUSH1 0x40 MLOAD PUSH3 0x461BCD PUSH1 0xE5 SHL DUP2 MSTORE PUSH1 0x20 PUSH1 0x4 DUP3 ADD MSTORE PUSH1 0x10 PUSH1 0x24 DUP3 ADD MSTORE PUSH16 0x4E6F20746F6B656E2062616C616E6365 PUSH1 0x80 SHL PUSH1 0x44 DUP3 ADD MSTORE PUSH1 0x64 ADD PUSH2 0x18D JUMP JUMPDEST DUP2 PUSH1 0x1 PUSH1 0x1 PUSH1 0xA0 SHL SUB AND PUSH4 0xA9059CBB PUSH2 0x83B PUSH1 0x0 SLOAD PUSH1 0x1 PUSH1 0x1 PUSH1 0xA0 SHL SUB AND SWAP1 JUMP JUMPDEST PUSH1 0x40 MLOAD PUSH1 0x1 PUSH1 0x1 PUSH1 0xE0 SHL SUB NOT PUSH1 0xE0 DUP5 SWAP1 SHL AND DUP2 MSTORE PUSH1 0x1 PUSH1 0x1 PUSH1 0xA0 SHL SUB SWAP1 SWAP2 AND PUSH1 0x4 DUP3 ADD MSTORE PUSH1 0x24 DUP2 ADD DUP5 SWAP1 MSTORE PUSH1 0x44 ADD PUSH1 0x20 PUSH1 0x40 MLOAD DUP1 DUP4 SUB DUP2 PUSH1 0x0 DUP8 GAS CALL ISZERO DUP1 ISZERO PUSH2 0x888 JUMPI RETURNDATASIZE PUSH1 0x0 DUP1 RETURNDATACOPY RETURNDATASIZE PUSH1 0x0 REVERT JUMPDEST POP POP POP POP PUSH1 0x40 MLOAD RETURNDATASIZE PUSH1 0x1F NOT PUSH1 0x1F DUP3 ADD AND DUP3 ADD DUP1 PUSH1 0x40 MSTORE POP DUP2 ADD SWAP1 PUSH2 0x8AC SWAP2 SWAP1 PUSH2 0x291B JUMP JUMPDEST PUSH2 0x8EA JUMPI PUSH1 0x40 MLOAD PUSH3 0x461BCD PUSH1 0xE5 SHL DUP2 MSTORE PUSH1 0x20 PUSH1 0x4 DUP3 ADD MSTORE PUSH1 0xF PUSH1 0x24 DUP3 ADD MSTORE PUSH15 0x151C985B9CD9995C8819985A5B1959 PUSH1 0x8A SHL PUSH1 0x44 DUP3 ADD MSTORE PUSH1 0x64 ADD PUSH2 0x18D JUMP JUMPDEST DUP3 PUSH1 0x1 PUSH1 0x1 PUSH1 0xA0 SHL SUB AND PUSH32 0x5FAFA99D0643513820BE26656B45130B01E1C03062E1266BF36F88CBD3BD9695 DUP3 PUSH1 0x40 MLOAD PUSH2 0x925 SWAP2 DUP2 MSTORE PUSH1 0x20 ADD SWAP1 JUMP JUMPDEST PUSH1 0x40 MLOAD DUP1 SWAP2 SUB SWAP1 LOG2 POP POP JUMPDEST POP PUSH1 0x1 DUP1 SSTORE JUMP JUMPDEST PUSH1 0x0 DUP1 ADDRESS PUSH1 0x1 PUSH1 0x1 PUSH1 0xA0 SHL SUB AND PUSH4 0xEE69F708 PUSH1 0x40 MLOAD DUP2 PUSH4 0xFFFFFFFF AND PUSH1 0xE0 SHL DUP2 MSTORE PUSH1 0x4 ADD PUSH1 0x20 PUSH1 0x40 MLOAD DUP1 DUP4 SUB DUP2 PUSH1 0x0 DUP8 GAS CALL ISZERO DUP1 ISZERO PUSH2 0x97A JUMPI RETURNDATASIZE PUSH1 0x0 DUP1 RETURNDATACOPY RETURNDATASIZE PUSH1 0x0 REVERT JUMPDEST POP POP POP POP PUSH1 0x40 MLOAD RETURNDATASIZE PUSH1 0x1F NOT PUSH1 0x1F DUP3 ADD AND DUP3 ADD DUP1 PUSH1 0x40 MSTORE POP DUP2 ADD SWAP1 PUSH2 0x99E SWAP2 SWAP1 PUSH2 0x2902 JUMP JUMPDEST SWAP1 POP PUSH1 0x1 PUSH1 0x1 PUSH1 0x80 SHL SUB DUP5 GT ISZERO PUSH2 0x9EB JUMPI PUSH1 0x40 MLOAD PUSH3 0x461BCD PUSH1 0xE5 SHL DUP2 MSTORE PUSH1 0x20 PUSH1 0x4 DUP3 ADD MSTORE PUSH1 0x11 PUSH1 0x24 DUP3 ADD MSTORE PUSH17 0x6761735573656420746F6F206C61726765 PUSH1 0x78 SHL PUSH1 0x44 DUP3 ADD MSTORE PUSH1 0x64 ADD PUSH2 0x18D JUMP JUMPDEST PUSH1 0x1 PUSH1 0x1 PUSH1 0x80 SHL SUB DUP4 GT ISZERO PUSH2 0xA37 JUMPI PUSH1 0x40 MLOAD PUSH3 0x461BCD PUSH1 0xE5 SHL DUP2 MSTORE PUSH1 0x20 PUSH1 0x4 DUP3 ADD MSTORE PUSH1 0x12 PUSH1 0x24 DUP3 ADD MSTORE PUSH18 0x676173507269636520746F6F206C61726765 PUSH1 0x70 SHL PUSH1 0x44 DUP3 ADD MSTORE PUSH1 0x64 ADD PUSH2 0x18D JUMP JUMPDEST PUSH1 0x0 PUSH2 0xA43 DUP5 DUP7 PUSH2 0x2938 JUMP JUMPDEST SWAP1 POP PUSH11 0x52B7D2DCC80CD2E4000000 PUSH2 0xA5B DUP4 DUP4 PUSH2 0x2938 JUMP JUMPDEST PUSH2 0xA65 SWAP2 SWAP1 PUSH2 0x294F JUMP JUMPDEST SWAP3 POP POP POP JUMPDEST SWAP3 SWAP2 POP POP JUMP JUMPDEST PUSH2 0xA78 PUSH2 0x1182 JUMP JUMPDEST PUSH2 0x639 PUSH2 0x122E JUMP JUMPDEST PUSH2 0xA88 PUSH2 0x1182 JUMP JUMPDEST PUSH1 0x2 PUSH1 0x1 SLOAD SUB PUSH2 0xAAA JUMPI PUSH1 0x40 MLOAD PUSH3 0x461BCD PUSH1 0xE5 SHL DUP2 MSTORE PUSH1 0x4 ADD PUSH2 0x18D SWAP1 PUSH2 0x28CB JUMP JUMPDEST PUSH1 0x2 PUSH1 0x1 SSTORE PUSH2 0xAB7 PUSH2 0x126B JUMP JUMPDEST DUP3 MLOAD DUP5 MLOAD EQ PUSH2 0xB00 JUMPI PUSH1 0x40 MLOAD PUSH3 0x461BCD PUSH1 0xE5 SHL DUP2 MSTORE PUSH1 0x20 PUSH1 0x4 DUP3 ADD MSTORE PUSH1 0x15 PUSH1 0x24 DUP3 ADD MSTORE PUSH21 0x82E4E4C2F240D8CADCCEE8D040DAD2E6DAC2E8C6D PUSH1 0x5B SHL PUSH1 0x44 DUP3 ADD MSTORE PUSH1 0x64 ADD PUSH2 0x18D JUMP JUMPDEST DUP4 MLOAD PUSH1 0x1 EQ PUSH2 0xB60 JUMPI PUSH1 0x40 MLOAD PUSH3 0x461BCD PUSH1 0xE5 SHL DUP2 MSTORE PUSH1 0x20 PUSH1 0x4 DUP3 ADD MSTORE PUSH1 0x26 PUSH1 0x24 DUP3 ADD MSTORE PUSH32 0x4F6E6C792073696E676C6520746F6B656E20666C617368206C6F616E20737570 PUSH1 0x44 DUP3 ADD MSTORE PUSH6 0x1C1BDC9D1959 PUSH1 0xD2 SHL PUSH1 0x64 DUP3 ADD MSTORE PUSH1 0x84 ADD PUSH2 0x18D JUMP JUMPDEST PUSH1 0x0 DUP4 PUSH1 0x0 DUP2 MLOAD DUP2 LT PUSH2 0xB75 JUMPI PUSH2 0xB75 PUSH2 0x2873 JUMP JUMPDEST PUSH1 0x20 MUL PUSH1 0x20 ADD ADD MLOAD GT PUSH2 0xBCA JUMPI PUSH1 0x40 MLOAD PUSH3 0x461BCD PUSH1 0xE5 SHL DUP2 MSTORE PUSH1 0x20 PUSH1 0x4 DUP3 ADD DUP2 SWAP1 MSTORE PUSH1 0x24 DUP3 ADD MSTORE PUSH32 0x416D6F756E74206D7573742062652067726561746572207468616E207A65726F PUSH1 0x44 DUP3 ADD MSTORE PUSH1 0x64 ADD PUSH2 0x18D JUMP JUMPDEST PUSH2 0x3E8 DUP3 GT ISZERO PUSH2 0xC0F JUMPI PUSH1 0x40 MLOAD PUSH3 0x461BCD PUSH1 0xE5 SHL DUP2 MSTORE PUSH1 0x20 PUSH1 0x4 DUP3 ADD MSTORE PUSH1 0x10 PUSH1 0x24 DUP3 ADD MSTORE PUSH16 0x4D61782031302520736C697070616765 PUSH1 0x80 SHL PUSH1 0x44 DUP3 ADD MSTORE PUSH1 0x64 ADD PUSH2 0x18D JUMP JUMPDEST PUSH1 0x6 DUP3 SWAP1 SSTORE PUSH1 0x40 MLOAD PUSH4 0x2E1C224F PUSH1 0xE1 SHL DUP2 MSTORE PUSH1 0x1 PUSH1 0x1 PUSH1 0xA0 SHL SUB PUSH32 0x0 AND SWAP1 PUSH4 0x5C38449E SWAP1 PUSH2 0xC66 SWAP1 ADDRESS SWAP1 DUP9 SWAP1 DUP9 SWAP1 DUP8 SWAP1 PUSH1 0x4 ADD PUSH2 0x29C1 JUMP JUMPDEST PUSH1 0x0 PUSH1 0x40 MLOAD DUP1 DUP4 SUB DUP2 PUSH1 0x0 DUP8 DUP1 EXTCODESIZE ISZERO DUP1 ISZERO PUSH2 0xC80 JUMPI PUSH1 0x0 DUP1 REVERT JUMPDEST POP GAS CALL ISZERO DUP1 ISZERO PUSH2 0xC94 JUMPI RETURNDATASIZE PUSH1 0x0 DUP1 RETURNDATACOPY RETURNDATASIZE PUSH1 0x0 REVERT JUMPDEST POP POP PUSH1 0x1 DUP1 SSTORE POP POP POP POP POP POP JUMP JUMPDEST PUSH1 0x0 PUSH2 0xCB0 PUSH1 0x2 SLOAD PUSH1 0xFF AND SWAP1 JUMP JUMPDEST ISZERO PUSH2 0xCEF JUMPI PUSH1 0x40 MLOAD PUSH3 0x461BCD PUSH1 0xE5 SHL DUP2 MSTORE PUSH1 0x20 PUSH1 0x4 DUP3 ADD MSTORE PUSH1 0xF PUSH1 0x24 DUP3 ADD MSTORE PUSH15 0x10DBDB9D1C9858DD081C185D5CD959 PUSH1 0x8A SHL PUSH1 0x44 DUP3 ADD MSTORE PUSH1 0x64 ADD PUSH2 0x18D JUMP JUMPDEST PUSH1 0x0 DUP1 PUSH20 0x5F4EC3DF9CBD43714FE2740F5E3616155C5B8419 PUSH1 0x1 PUSH1 0x1 PUSH1 0xA0 SHL SUB AND PUSH4 0xFEAF968C PUSH1 0x40 MLOAD DUP2 PUSH4 0xFFFFFFFF AND PUSH1 0xE0 SHL DUP2 MSTORE PUSH1 0x4 ADD PUSH1 0xA0 PUSH1 0x40 MLOAD DUP1 DUP4 SUB DUP2 DUP7 GAS STATICCALL ISZERO DUP1 ISZERO PUSH2 0xD44 JUMPI RETURNDATASIZE PUSH1 0x0 DUP1 RETURNDATACOPY RETURNDATASIZE PUSH1 0x0 REVERT JUMPDEST POP POP POP POP PUSH1 0x40 MLOAD RETURNDATASIZE PUSH1 0x1F NOT PUSH1 0x1F DUP3 ADD AND DUP3 ADD DUP1 PUSH1 0x40 MSTORE POP DUP2 ADD SWAP1 PUSH2 0xD68 SWAP2 SWAP1 PUSH2 0x2A87 JUMP JUMPDEST POP SWAP4 POP POP SWAP3 POP POP PUSH3 0x15180 DUP2 TIMESTAMP PUSH2 0xD7F SWAP2 SWAP1 PUSH2 0x28B8 JUMP JUMPDEST GT ISZERO DUP1 ISZERO PUSH2 0xD8D JUMPI POP PUSH1 0x0 DUP3 SGT JUMPDEST ISZERO PUSH2 0xDA1 JUMPI POP PUSH1 0x4 DUP2 SWAP1 SSTORE TIMESTAMP PUSH1 0x5 SSTORE SWAP2 SWAP1 POP JUMP JUMPDEST PUSH1 0x0 PUSH1 0x4 SLOAD GT DUP1 ISZERO PUSH2 0xDC3 JUMPI POP PUSH3 0x93A80 PUSH1 0x5 SLOAD TIMESTAMP PUSH2 0xDC0 SWAP2 SWAP1 PUSH2 0x28B8 JUMP JUMPDEST GT ISZERO JUMPDEST ISZERO PUSH2 0xDD2 JUMPI PUSH1 0x4 SLOAD SWAP3 POP POP POP SWAP1 JUMP JUMPDEST PUSH5 0x45D964B800 SWAP3 POP POP POP SWAP1 JUMP JUMPDEST PUSH2 0xDE7 PUSH2 0x126B JUMP JUMPDEST CALLER PUSH1 0x1 PUSH1 0x1 PUSH1 0xA0 SHL SUB PUSH32 0x0 AND EQ PUSH2 0xE2F JUMPI PUSH1 0x40 MLOAD PUSH3 0x82B429 PUSH1 0xE8 SHL DUP2 MSTORE PUSH1 0x4 ADD PUSH1 0x40 MLOAD DUP1 SWAP2 SUB SWAP1 REVERT JUMPDEST PUSH1 0x6 SLOAD PUSH1 0x0 SUB PUSH2 0xE81 JUMPI PUSH1 0x40 MLOAD PUSH3 0x461BCD PUSH1 0xE5 SHL DUP2 MSTORE PUSH1 0x20 PUSH1 0x4 DUP3 ADD MSTORE PUSH1 0x1C PUSH1 0x24 DUP3 ADD MSTORE PUSH32 0x4D696E50726F666974427073206E6F7420696E697469616C697A656400000000 PUSH1 0x44 DUP3 ADD MSTORE PUSH1 0x64 ADD PUSH2 0x18D JUMP JUMPDEST PUSH1 0x0 DUP5 PUSH1 0x0 DUP2 MLOAD DUP2 LT PUSH2 0xE96 JUMPI PUSH2 0xE96 PUSH2 0x2873 JUMP JUMPDEST PUSH1 0x20 MUL PUSH1 0x20 ADD ADD MLOAD SWAP1 POP PUSH1 0x0 DUP5 PUSH1 0x0 DUP2 MLOAD DUP2 LT PUSH2 0xEB5 JUMPI PUSH2 0xEB5 PUSH2 0x2873 JUMP JUMPDEST PUSH1 0x20 MUL PUSH1 0x20 ADD ADD MLOAD SWAP1 POP PUSH1 0x0 DUP5 PUSH1 0x0 DUP2 MLOAD DUP2 LT PUSH2 0xED4 JUMPI PUSH2 0xED4 PUSH2 0x2873 JUMP JUMPDEST PUSH1 0x20 MUL PUSH1 0x20 ADD ADD MLOAD SWAP1 POP PUSH2 0xEE8 DUP3 DUP3 PUSH2 0x12B1 JUMP JUMPDEST PUSH1 0x6 DUP1 SLOAD PUSH1 0x0 SWAP1 SWAP2 SSTORE PUSH2 0xEFE DUP5 DUP5 DUP5 DUP5 DUP10 PUSH2 0x13E9 JUMP JUMPDEST POP POP POP POP POP POP POP POP JUMP JUMPDEST PUSH2 0xF10 PUSH2 0x1182 JUMP JUMPDEST PUSH1 0x0 DUP2 GT PUSH2 0xF59 JUMPI PUSH1 0x40 MLOAD PUSH3 0x461BCD PUSH1 0xE5 SHL DUP2 MSTORE PUSH1 0x20 PUSH1 0x4 DUP3 ADD MSTORE PUSH1 0x16 PUSH1 0x24 DUP3 ADD MSTORE PUSH22 0x5072696365206D75737420626520706F736974697665 PUSH1 0x50 SHL PUSH1 0x44 DUP3 ADD MSTORE PUSH1 0x64 ADD PUSH2 0x18D JUMP JUMPDEST PUSH5 0xBA43B7400 DUP2 LT ISZERO PUSH2 0xF9E JUMPI PUSH1 0x40 MLOAD PUSH3 0x461BCD PUSH1 0xE5 SHL DUP2 MSTORE PUSH1 0x20 PUSH1 0x4 DUP3 ADD MSTORE PUSH1 0xD PUSH1 0x24 DUP3 ADD MSTORE PUSH13 0x507269636520746F6F206C6F77 PUSH1 0x98 SHL PUSH1 0x44 DUP3 ADD MSTORE PUSH1 0x64 ADD PUSH2 0x18D JUMP JUMPDEST PUSH6 0x1D1A94A2000 DUP2 GT ISZERO PUSH2 0xFE5 JUMPI PUSH1 0x40 MLOAD PUSH3 0x461BCD PUSH1 0xE5 SHL DUP2 MSTORE PUSH1 0x20 PUSH1 0x4 DUP3 ADD MSTORE PUSH1 0xE PUSH1 0x24 DUP3 ADD MSTORE PUSH14 0xA0E4D2C6CA40E8DEDE40D0D2CED PUSH1 0x93 SHL PUSH1 0x44 DUP3 ADD MSTORE PUSH1 0x64 ADD PUSH2 0x18D JUMP JUMPDEST PUSH3 0x93A80 PUSH1 0x5 SLOAD TIMESTAMP PUSH2 0xFF7 SWAP2 SWAP1 PUSH2 0x28B8 JUMP JUMPDEST GT PUSH2 0x1044 JUMPI PUSH1 0x40 MLOAD PUSH3 0x461BCD PUSH1 0xE5 SHL DUP2 MSTORE PUSH1 0x20 PUSH1 0x4 DUP3 ADD MSTORE PUSH1 0x1B PUSH1 0x24 DUP3 ADD MSTORE PUSH32 0x50726963652066656564206E6F74207374616C6520656E6F7567680000000000 PUSH1 0x44 DUP3 ADD MSTORE PUSH1 0x64 ADD PUSH2 0x18D JUMP JUMPDEST PUSH1 0x0 PUSH2 0x104E PUSH2 0x149E JUMP JUMPDEST PUSH1 0x4 SLOAD SWAP1 SWAP2 POP DUP1 ISZERO PUSH2 0x10C9 JUMPI PUSH1 0x0 PUSH2 0x1066 DUP5 DUP4 PUSH2 0x154A JUMP JUMPDEST SWAP1 POP PUSH1 0x32 DUP2 GT ISZERO PUSH2 0x10C7 JUMPI PUSH1 0x40 MLOAD PUSH3 0x461BCD PUSH1 0xE5 SHL DUP2 MSTORE PUSH1 0x20 PUSH1 0x4 DUP3 ADD MSTORE PUSH1 0x25 PUSH1 0x24 DUP3 ADD MSTORE PUSH32 0x507269636520646576696174696F6E20746F6F20686967682066726F6D206375 PUSH1 0x44 DUP3 ADD MSTORE PUSH5 0x1C9C995B9D PUSH1 0xDA SHL PUSH1 0x64 DUP3 ADD MSTORE PUSH1 0x84 ADD PUSH2 0x18D JUMP JUMPDEST POP JUMPDEST DUP2 ISZERO PUSH2 0x1140 JUMPI PUSH1 0x0 PUSH2 0x10DB DUP5 DUP5 PUSH2 0x154A JUMP JUMPDEST SWAP1 POP PUSH1 0x1E DUP2 GT ISZERO PUSH2 0x113E JUMPI PUSH1 0x40 MLOAD PUSH3 0x461BCD PUSH1 0xE5 SHL DUP2 MSTORE PUSH1 0x20 PUSH1 0x4 DUP3 ADD MSTORE PUSH1 0x27 PUSH1 0x24 DUP3 ADD MSTORE PUSH32 0x507269636520646576696174696F6E20746F6F20686967682066726F6D204368 PUSH1 0x44 DUP3 ADD MSTORE PUSH7 0x61696E6C696E6B PUSH1 0xC8 SHL PUSH1 0x64 DUP3 ADD MSTORE PUSH1 0x84 ADD PUSH2 0x18D JUMP JUMPDEST POP JUMPDEST PUSH1 0x4 DUP4 SWAP1 SSTORE TIMESTAMP PUSH1 0x5 DUP2 SWAP1 SSTORE PUSH1 0x40 DUP1 MLOAD DUP6 DUP2 MSTORE PUSH1 0x20 DUP2 ADD SWAP3 SWAP1 SWAP3 MSTORE PUSH32 0x1C1AE796FC41A2F7B042D5B4B9F7A0F7EEE2169BC11E7BA0B3672CFA44F3D0C1 SWAP2 ADD PUSH2 0x61C JUMP JUMPDEST PUSH1 0x0 SLOAD PUSH1 0x1 PUSH1 0x1 PUSH1 0xA0 SHL SUB AND CALLER EQ PUSH2 0x639 JUMPI PUSH1 0x40 MLOAD PUSH3 0x461BCD PUSH1 0xE5 SHL DUP2 MSTORE PUSH1 0x20 PUSH1 0x4 DUP3 ADD DUP2 SWAP1 MSTORE PUSH1 0x24 DUP3 ADD MSTORE PUSH32 0x4F776E61626C653A2063616C6C6572206973206E6F7420746865206F776E6572 PUSH1 0x44 DUP3 ADD MSTORE PUSH1 0x64 ADD PUSH2 0x18D JUMP JUMPDEST PUSH2 0x11E4 PUSH2 0x1586 JUMP JUMPDEST PUSH1 0x2 DUP1 SLOAD PUSH1 0xFF NOT AND SWAP1 SSTORE PUSH32 0x5DB9EE0A495BF2E6FF9C91A7834C1BA4FDD244A5E8AA4E537BD38AEAE4B073AA CALLER JUMPDEST PUSH1 0x40 MLOAD PUSH1 0x1 PUSH1 0x1 PUSH1 0xA0 SHL SUB SWAP1 SWAP2 AND DUP2 MSTORE PUSH1 0x20 ADD PUSH1 0x40 MLOAD DUP1 SWAP2 SUB SWAP1 LOG1 JUMP JUMPDEST PUSH2 0x1236 PUSH2 0x126B JUMP JUMPDEST PUSH1 0x2 DUP1 SLOAD PUSH1 0xFF NOT AND PUSH1 0x1 OR SWAP1 SSTORE PUSH32 0x62E78CEA01BEE320CD4E420270B5EA74000D11B0C9F74754EBDBFC544B05A258 PUSH2 0x1211 CALLER SWAP1 JUMP JUMPDEST PUSH1 0x2 SLOAD PUSH1 0xFF AND ISZERO PUSH2 0x639 JUMPI PUSH1 0x40 MLOAD PUSH3 0x461BCD PUSH1 0xE5 SHL DUP2 MSTORE PUSH1 0x20 PUSH1 0x4 DUP3 ADD MSTORE PUSH1 0x10 PUSH1 0x24 DUP3 ADD MSTORE PUSH16 0x14185D5CD8589B194E881C185D5CD959 PUSH1 0x82 SHL PUSH1 0x44 DUP3 ADD MSTORE PUSH1 0x64 ADD PUSH2 0x18D JUMP JUMPDEST PUSH1 0x0 PUSH32 0x0 PUSH1 0x1 PUSH1 0x1 PUSH1 0xA0 SHL SUB AND PUSH4 0xD2946C2B PUSH1 0x40 MLOAD DUP2 PUSH4 0xFFFFFFFF AND PUSH1 0xE0 SHL DUP2 MSTORE PUSH1 0x4 ADD PUSH1 0x20 PUSH1 0x40 MLOAD DUP1 DUP4 SUB DUP2 DUP7 GAS STATICCALL ISZERO DUP1 ISZERO PUSH2 0x1311 JUMPI RETURNDATASIZE PUSH1 0x0 DUP1 RETURNDATACOPY RETURNDATASIZE PUSH1 0x0 REVERT JUMPDEST POP POP POP POP PUSH1 0x40 MLOAD RETURNDATASIZE PUSH1 0x1F NOT PUSH1 0x1F DUP3 ADD AND DUP3 ADD DUP1 PUSH1 0x40 MSTORE POP DUP2 ADD SWAP1 PUSH2 0x1335 SWAP2 SWAP1 PUSH2 0x2AD7 JUMP JUMPDEST PUSH1 0x1 PUSH1 0x1 PUSH1 0xA0 SHL SUB AND PUSH4 0xD877845C PUSH1 0x40 MLOAD DUP2 PUSH4 0xFFFFFFFF AND PUSH1 0xE0 SHL DUP2 MSTORE PUSH1 0x4 ADD PUSH1 0x20 PUSH1 0x40 MLOAD DUP1 DUP4 SUB DUP2 DUP7 GAS STATICCALL ISZERO DUP1 ISZERO PUSH2 0x1372 JUMPI RETURNDATASIZE PUSH1 0x0 DUP1 RETURNDATACOPY RETURNDATASIZE PUSH1 0x0 REVERT JUMPDEST POP POP POP POP PUSH1 0x40 MLOAD RETURNDATASIZE PUSH1 0x1F NOT PUSH1 0x1F DUP3 ADD AND DUP3 ADD DUP1 PUSH1 0x40 MSTORE POP DUP2 ADD SWAP1 PUSH2 0x1396 SWAP2 SWAP1 PUSH2 0x2902 JUMP JUMPDEST SWAP1 POP PUSH1 0x0 PUSH8 0xDE0B6B3A7640000 PUSH2 0x13AD DUP4 DUP7 PUSH2 0x2938 JUMP JUMPDEST PUSH2 0x13B7 SWAP2 SWAP1 PUSH2 0x294F JUMP JUMPDEST SWAP1 POP DUP1 DUP4 EQ PUSH2 0x13E3 JUMPI PUSH1 0x40 MLOAD PUSH4 0x18731F9B PUSH1 0xE0 SHL DUP2 MSTORE PUSH1 0x4 DUP2 ADD DUP3 SWAP1 MSTORE PUSH1 0x24 DUP2 ADD DUP5 SWAP1 MSTORE PUSH1 0x44 ADD PUSH2 0x18D JUMP JUMPDEST POP POP POP POP JUMP JUMPDEST PUSH1 0x2 PUSH1 0x1 SLOAD SUB PUSH2 0x140B JUMPI PUSH1 0x40 MLOAD PUSH3 0x461BCD PUSH1 0xE5 SHL DUP2 MSTORE PUSH1 0x4 ADD PUSH2 0x18D SWAP1 PUSH2 0x28CB JUMP JUMPDEST PUSH1 0x2 PUSH1 0x1 SSTORE PUSH1 0x40 MLOAD PUSH4 0x70A08231 PUSH1 0xE0 SHL DUP2 MSTORE ADDRESS PUSH1 0x4 DUP3 ADD MSTORE PUSH1 0x0 SWAP1 PUSH1 0x1 PUSH1 0x1 PUSH1 0xA0 SHL SUB DUP8 AND SWAP1 PUSH4 0x70A08231 SWAP1 PUSH1 0x24 ADD PUSH1 0x20 PUSH1 0x40 MLOAD DUP1 DUP4 SUB DUP2 DUP7 GAS STATICCALL ISZERO DUP1 ISZERO PUSH2 0x1457 JUMPI RETURNDATASIZE PUSH1 0x0 DUP1 RETURNDATACOPY RETURNDATASIZE PUSH1 0x0 REVERT JUMPDEST POP POP POP POP PUSH1 0x40 MLOAD RETURNDATASIZE PUSH1 0x1F NOT PUSH1 0x1F DUP3 ADD AND DUP3 ADD DUP1 PUSH1 0x40 MSTORE POP DUP2 ADD SWAP1 PUSH2 0x147B SWAP2 SWAP1 PUSH2 0x2902 JUMP JUMPDEST SWAP1 POP PUSH1 0x0 DUP1 PUSH2 0x148B DUP9 DUP9 DUP7 PUSH2 0x15CF JUMP JUMPDEST SWAP2 POP SWAP2 POP PUSH2 0xC94 DUP9 DUP9 DUP9 DUP7 DUP10 DUP8 DUP8 PUSH2 0x1731 JUMP JUMPDEST PUSH1 0x0 PUSH20 0x5F4EC3DF9CBD43714FE2740F5E3616155C5B8419 PUSH1 0x1 PUSH1 0x1 PUSH1 0xA0 SHL SUB AND PUSH4 0xFEAF968C PUSH1 0x40 MLOAD DUP2 PUSH4 0xFFFFFFFF AND PUSH1 0xE0 SHL DUP2 MSTORE PUSH1 0x4 ADD PUSH1 0xA0 PUSH1 0x40 MLOAD DUP1 DUP4 SUB DUP2 DUP7 GAS STATICCALL SWAP3 POP POP POP DUP1 ISZERO PUSH2 0x150E JUMPI POP PUSH1 0x40 DUP1 MLOAD PUSH1 0x1F RETURNDATASIZE SWAP1 DUP2 ADD PUSH1 0x1F NOT AND DUP3 ADD SWAP1 SWAP3 MSTORE PUSH2 0x150B SWAP2 DUP2 ADD SWAP1 PUSH2 0x2A87 JUMP JUMPDEST PUSH1 0x1 JUMPDEST ISZERO PUSH2 0x1544 JUMPI PUSH3 0x15180 PUSH2 0x1521 DUP4 TIMESTAMP PUSH2 0x28B8 JUMP JUMPDEST GT ISZERO DUP1 ISZERO PUSH2 0x152F JUMPI POP PUSH1 0x0 DUP5 SGT JUMPDEST ISZERO PUSH2 0x153E JUMPI POP SWAP2 SWAP5 SWAP4 POP POP POP POP JUMP JUMPDEST POP POP POP POP POP JUMPDEST POP PUSH1 0x0 SWAP1 JUMP JUMPDEST PUSH1 0x0 DUP2 DUP4 GT ISZERO PUSH2 0x157B JUMPI DUP2 PUSH2 0x155F DUP2 DUP6 PUSH2 0x28B8 JUMP JUMPDEST PUSH2 0x156A SWAP1 PUSH1 0x64 PUSH2 0x2938 JUMP JUMPDEST PUSH2 0x1574 SWAP2 SWAP1 PUSH2 0x294F JUMP JUMPDEST SWAP1 POP PUSH2 0xA6A JUMP JUMPDEST DUP3 PUSH2 0x155F DUP2 DUP5 PUSH2 0x28B8 JUMP JUMPDEST PUSH1 0x2 SLOAD PUSH1 0xFF AND PUSH2 0x639 JUMPI PUSH1 0x40 MLOAD PUSH3 0x461BCD PUSH1 0xE5 SHL DUP2 MSTORE PUSH1 0x20 PUSH1 0x4 DUP3 ADD MSTORE PUSH1 0x14 PUSH1 0x24 DUP3 ADD MSTORE PUSH20 0x14185D5CD8589B194E881B9BDD081C185D5CD959 PUSH1 0x62 SHL PUSH1 0x44 DUP3 ADD MSTORE PUSH1 0x64 ADD PUSH2 0x18D JUMP JUMPDEST PUSH1 0x0 DUP1 PUSH1 0x0 DUP1 PUSH1 0x60 DUP1 DUP7 DUP1 PUSH1 0x20 ADD SWAP1 MLOAD DUP2 ADD SWAP1 PUSH2 0x15EC SWAP2 SWAP1 PUSH2 0x2B41 JUMP JUMPDEST PUSH1 0x1 PUSH1 0x1 PUSH1 0xA0 SHL SUB DUP7 AND PUSH1 0x0 SWAP1 DUP2 MSTORE PUSH1 0x3 PUSH1 0x20 MSTORE PUSH1 0x40 SWAP1 KECCAK256 SLOAD SWAP6 SWAP12 POP SWAP2 SWAP10 POP SWAP3 SWAP8 POP SWAP2 SWAP6 POP SWAP4 POP SWAP2 POP PUSH1 0xFF AND PUSH2 0x1640 JUMPI PUSH1 0x40 MLOAD PUSH4 0x6FB81B8D PUSH1 0xE1 SHL DUP2 MSTORE PUSH1 0x1 PUSH1 0x1 PUSH1 0xA0 SHL SUB DUP8 AND PUSH1 0x4 DUP3 ADD MSTORE PUSH1 0x24 ADD PUSH2 0x18D JUMP JUMPDEST PUSH1 0x1 PUSH1 0x1 PUSH1 0xA0 SHL SUB DUP6 AND PUSH1 0x0 SWAP1 DUP2 MSTORE PUSH1 0x3 PUSH1 0x20 MSTORE PUSH1 0x40 SWAP1 KECCAK256 SLOAD PUSH1 0xFF AND PUSH2 0x1684 JUMPI PUSH1 0x40 MLOAD PUSH4 0x6FB81B8D PUSH1 0xE1 SHL DUP2 MSTORE PUSH1 0x1 PUSH1 0x1 PUSH1 0xA0 SHL SUB DUP7 AND PUSH1 0x4 DUP3 ADD MSTORE PUSH1 0x24 ADD PUSH2 0x18D JUMP JUMPDEST PUSH1 0x1 PUSH1 0x1 PUSH1 0xA0 SHL SUB DUP5 AND PUSH1 0x0 SWAP1 DUP2 MSTORE PUSH1 0x3 PUSH1 0x20 MSTORE PUSH1 0x40 SWAP1 KECCAK256 SLOAD PUSH1 0xFF AND PUSH2 0x16C8 JUMPI PUSH1 0x40 MLOAD PUSH4 0x6FB81B8D PUSH1 0xE1 SHL DUP2 MSTORE PUSH1 0x1 PUSH1 0x1 PUSH1 0xA0 SHL SUB DUP6 AND PUSH1 0x4 DUP3 ADD MSTORE PUSH1 0x24 ADD PUSH2 0x18D JUMP JUMPDEST PUSH1 0x1 PUSH1 0x1 PUSH1 0xA0 SHL SUB DUP4 AND PUSH1 0x0 SWAP1 DUP2 MSTORE PUSH1 0x3 PUSH1 0x20 MSTORE PUSH1 0x40 SWAP1 KECCAK256 SLOAD PUSH1 0xFF AND PUSH2 0x170C JUMPI PUSH1 0x40 MLOAD PUSH4 0x6FB81B8D PUSH1 0xE1 SHL DUP2 MSTORE PUSH1 0x1 PUSH1 0x1 PUSH1 0xA0 SHL SUB DUP5 AND PUSH1 0x4 DUP3 ADD MSTORE PUSH1 0x24 ADD PUSH2 0x18D JUMP JUMPDEST PUSH2 0x1719 DUP10 DUP10 DUP9 DUP8 DUP7 PUSH2 0x199D JUMP JUMPDEST PUSH2 0x1725 DUP10 DUP7 DUP6 DUP5 PUSH2 0x1B94 JUMP JUMPDEST POP POP POP POP SWAP4 POP SWAP4 SWAP2 POP POP JUMP JUMPDEST PUSH1 0x40 MLOAD PUSH4 0x70A08231 PUSH1 0xE0 SHL DUP2 MSTORE ADDRESS PUSH1 0x4 DUP3 ADD MSTORE PUSH1 0x0 SWAP1 PUSH1 0x1 PUSH1 0x1 PUSH1 0xA0 SHL SUB DUP10 AND SWAP1 PUSH4 0x70A08231 SWAP1 PUSH1 0x24 ADD PUSH1 0x20 PUSH1 0x40 MLOAD DUP1 DUP4 SUB DUP2 DUP7 GAS STATICCALL ISZERO DUP1 ISZERO PUSH2 0x1778 JUMPI RETURNDATASIZE PUSH1 0x0 DUP1 RETURNDATACOPY RETURNDATASIZE PUSH1 0x0 REVERT JUMPDEST POP POP POP POP PUSH1 0x40 MLOAD RETURNDATASIZE PUSH1 0x1F NOT PUSH1 0x1F DUP3 ADD AND DUP3 ADD DUP1 PUSH1 0x40 MSTORE POP DUP2 ADD SWAP1 PUSH2 0x179C SWAP2 SWAP1 PUSH2 0x2902 JUMP JUMPDEST SWAP1 POP PUSH2 0x17B3 PUSH1 0x1 PUSH1 0x1 PUSH1 0xA0 SHL SUB DUP10 AND DUP5 PUSH1 0x0 PUSH2 0x1DA8 JUMP JUMPDEST PUSH2 0x17C8 PUSH1 0x1 PUSH1 0x1 PUSH1 0xA0 SHL SUB DUP10 AND DUP4 PUSH1 0x0 PUSH2 0x1DA8 JUMP JUMPDEST PUSH2 0x17D3 DUP9 DUP5 DUP5 PUSH2 0x2048 JUMP JUMPDEST PUSH1 0x0 PUSH2 0x17DF DUP8 DUP10 PUSH2 0x2BF2 JUMP JUMPDEST SWAP1 POP PUSH1 0x0 PUSH2 0x2710 PUSH2 0x17F0 DUP8 DUP5 PUSH2 0x2938 JUMP JUMPDEST PUSH2 0x17FA SWAP2 SWAP1 PUSH2 0x294F JUMP JUMPDEST SWAP1 POP PUSH1 0x0 DUP2 PUSH2 0x1809 DUP5 DUP11 PUSH2 0x2BF2 JUMP JUMPDEST PUSH2 0x1813 SWAP2 SWAP1 PUSH2 0x2BF2 JUMP JUMPDEST SWAP1 POP DUP1 DUP5 LT ISZERO PUSH2 0x1840 JUMPI PUSH1 0x40 MLOAD PUSH4 0x27442115 PUSH1 0xE1 SHL DUP2 MSTORE PUSH1 0x4 DUP2 ADD DUP6 SWAP1 MSTORE PUSH1 0x24 DUP2 ADD DUP3 SWAP1 MSTORE PUSH1 0x44 ADD PUSH2 0x18D JUMP JUMPDEST PUSH1 0x40 MLOAD PUSH4 0xA9059CBB PUSH1 0xE0 SHL DUP2 MSTORE PUSH1 0x1 PUSH1 0x1 PUSH1 0xA0 SHL SUB PUSH32 0x0 DUP2 AND PUSH1 0x4 DUP4 ADD MSTORE PUSH1 0x24 DUP3 ADD DUP6 SWAP1 MSTORE DUP13 AND SWAP1 PUSH4 0xA9059CBB SWAP1 PUSH1 0x44 ADD PUSH1 0x20 PUSH1 0x40 MLOAD DUP1 DUP4 SUB DUP2 PUSH1 0x0 DUP8 GAS CALL ISZERO DUP1 ISZERO PUSH2 0x18AF JUMPI RETURNDATASIZE PUSH1 0x0 DUP1 RETURNDATACOPY RETURNDATASIZE PUSH1 0x0 REVERT JUMPDEST POP POP POP POP PUSH1 0x40 MLOAD RETURNDATASIZE PUSH1 0x1F NOT PUSH1 0x1F DUP3 ADD AND DUP3 ADD DUP1 PUSH1 0x40 MSTORE POP DUP2 ADD SWAP1 PUSH2 0x18D3 SWAP2 SWAP1 PUSH2 0x291B JUMP JUMPDEST PUSH2 0x1911 JUMPI PUSH1 0x40 MLOAD PUSH3 0x461BCD PUSH1 0xE5 SHL DUP2 MSTORE PUSH1 0x20 PUSH1 0x4 DUP3 ADD MSTORE PUSH1 0xF PUSH1 0x24 DUP3 ADD MSTORE PUSH15 0x151C985B9CD9995C8819985A5B1959 PUSH1 0x8A SHL PUSH1 0x44 DUP3 ADD MSTORE PUSH1 0x64 ADD PUSH2 0x18D JUMP JUMPDEST PUSH1 0x0 PUSH2 0x191D DUP5 DUP11 PUSH2 0x2BF2 JUMP JUMPDEST PUSH2 0x1927 SWAP1 DUP7 PUSH2 0x28B8 JUMP JUMPDEST PUSH1 0x40 DUP1 MLOAD DUP14 DUP2 MSTORE PUSH1 0x20 DUP2 ADD DUP14 SWAP1 MSTORE SWAP1 DUP2 ADD DUP3 SWAP1 MSTORE PUSH1 0x60 DUP2 ADD DUP11 SWAP1 MSTORE NUMBER PUSH1 0x80 DUP3 ADD MSTORE GASPRICE PUSH1 0xA0 DUP3 ADD MSTORE BASEFEE PUSH1 0xC0 DUP3 ADD MSTORE SWAP1 SWAP2 POP PUSH1 0x1 PUSH1 0x1 PUSH1 0xA0 SHL SUB DUP14 AND SWAP1 PUSH32 0xCAF3632D5CC34E1BBA5D0F1019096E2BF42DE7CD9EE65221BDDD7E88E13A52FA SWAP1 PUSH1 0xE0 ADD PUSH1 0x40 MLOAD DUP1 SWAP2 SUB SWAP1 LOG2 POP POP POP POP POP POP POP POP POP POP POP POP JUMP JUMPDEST PUSH2 0x19B1 PUSH1 0x1 PUSH1 0x1 PUSH1 0xA0 SHL SUB DUP7 AND DUP5 DUP7 PUSH2 0x1DA8 JUMP JUMPDEST PUSH1 0x40 MLOAD PUSH4 0x70A08231 PUSH1 0xE0 SHL DUP2 MSTORE ADDRESS PUSH1 0x4 DUP3 ADD MSTORE PUSH1 0x0 SWAP1 PUSH1 0x1 PUSH1 0x1 PUSH1 0xA0 SHL SUB DUP8 AND SWAP1 PUSH4 0x70A08231 SWAP1 PUSH1 0x24 ADD PUSH1 0x20 PUSH1 0x40 MLOAD DUP1 DUP4 SUB DUP2 DUP7 GAS STATICCALL ISZERO DUP1 ISZERO PUSH2 0x19F8 JUMPI RETURNDATASIZE PUSH1 0x0 DUP1 RETURNDATACOPY RETURNDATASIZE PUSH1 0x0 REVERT JUMPDEST POP POP POP POP PUSH1 0x40 MLOAD RETURNDATASIZE PUSH1 0x1F NOT PUSH1 0x1F DUP3 ADD AND DUP3 ADD DUP1 PUSH1 0x40 MSTORE POP DUP2 ADD SWAP1 PUSH2 0x1A1C SWAP2 SWAP1 PUSH2 0x2902 JUMP JUMPDEST SWAP1 POP PUSH1 0x0 DUP4 PUSH1 0x1 PUSH1 0x1 PUSH1 0xA0 SHL SUB AND DUP4 PUSH1 0x40 MLOAD PUSH2 0x1A38 SWAP2 SWAP1 PUSH2 0x2C05 JUMP JUMPDEST PUSH1 0x0 PUSH1 0x40 MLOAD DUP1 DUP4 SUB DUP2 PUSH1 0x0 DUP7 GAS CALL SWAP2 POP POP RETURNDATASIZE DUP1 PUSH1 0x0 DUP2 EQ PUSH2 0x1A75 JUMPI PUSH1 0x40 MLOAD SWAP2 POP PUSH1 0x1F NOT PUSH1 0x3F RETURNDATASIZE ADD AND DUP3 ADD PUSH1 0x40 MSTORE RETURNDATASIZE DUP3 MSTORE RETURNDATASIZE PUSH1 0x0 PUSH1 0x20 DUP5 ADD RETURNDATACOPY PUSH2 0x1A7A JUMP JUMPDEST PUSH1 0x60 SWAP2 POP JUMPDEST POP POP SWAP1 POP DUP1 PUSH2 0x1A9C JUMPI PUSH1 0x40 MLOAD PUSH4 0x81CEFF3 PUSH1 0xE4 SHL DUP2 MSTORE PUSH1 0x4 ADD PUSH1 0x40 MLOAD DUP1 SWAP2 SUB SWAP1 REVERT JUMPDEST PUSH1 0x40 MLOAD PUSH4 0x70A08231 PUSH1 0xE0 SHL DUP2 MSTORE ADDRESS PUSH1 0x4 DUP3 ADD MSTORE PUSH1 0x0 SWAP1 PUSH1 0x1 PUSH1 0x1 PUSH1 0xA0 SHL SUB DUP10 AND SWAP1 PUSH4 0x70A08231 SWAP1 PUSH1 0x24 ADD PUSH1 0x20 PUSH1 0x40 MLOAD DUP1 DUP4 SUB DUP2 DUP7 GAS STATICCALL ISZERO DUP1 ISZERO PUSH2 0x1AE3 JUMPI RETURNDATASIZE PUSH1 0x0 DUP1 RETURNDATACOPY RETURNDATASIZE PUSH1 0x0 REVERT JUMPDEST POP POP POP POP PUSH1 0x40 MLOAD RETURNDATASIZE PUSH1 0x1F NOT PUSH1 0x1F DUP3 ADD AND DUP3 ADD DUP1 PUSH1 0x40 MSTORE POP DUP2 ADD SWAP1 PUSH2 0x1B07 SWAP2 SWAP1 PUSH2 0x2902 JUMP JUMPDEST SWAP1 POP PUSH1 0x0 PUSH2 0x1B15 DUP3 DUP6 PUSH2 0x28B8 JUMP JUMPDEST SWAP1 POP PUSH1 0x0 DUP1 PUSH2 0x1B23 DUP12 PUSH2 0x2196 JUMP JUMPDEST SWAP2 POP SWAP2 POP DUP8 PUSH1 0x1 PUSH1 0x1 PUSH1 0xA0 SHL SUB AND DUP3 PUSH1 0x1 PUSH1 0x1 PUSH1 0xA0 SHL SUB AND DUP13 PUSH1 0x1 PUSH1 0x1 PUSH1 0xA0 SHL SUB AND PUSH32 0xEE4825A7988C5519A874BE79F2A84D13D02CFE5F74CAD97CDA2D5B55D2B13BFA DUP7 DUP6 PUSH1 0x40 MLOAD PUSH2 0x1B7F SWAP3 SWAP2 SWAP1 SWAP2 DUP3 MSTORE PUSH1 0x20 DUP3 ADD MSTORE PUSH1 0x40 ADD SWAP1 JUMP JUMPDEST PUSH1 0x40 MLOAD DUP1 SWAP2 SUB SWAP1 LOG4 POP POP POP POP POP POP POP POP POP POP POP JUMP JUMPDEST PUSH1 0x0 DUP1 PUSH2 0x1BA0 DUP7 PUSH2 0x2196 JUMP JUMPDEST SWAP1 SWAP3 POP SWAP1 POP PUSH1 0x1 PUSH1 0x1 PUSH1 0xA0 SHL SUB DUP3 AND ISZERO DUP1 ISZERO SWAP1 PUSH2 0x1BBD JUMPI POP PUSH1 0x0 DUP2 GT JUMPDEST ISZERO PUSH2 0x1BD6 JUMPI PUSH2 0x1BD6 PUSH1 0x1 PUSH1 0x1 PUSH1 0xA0 SHL SUB DUP4 AND DUP7 DUP4 PUSH2 0x1DA8 JUMP JUMPDEST PUSH1 0x40 MLOAD PUSH4 0x70A08231 PUSH1 0xE0 SHL DUP2 MSTORE ADDRESS PUSH1 0x4 DUP3 ADD MSTORE PUSH1 0x0 SWAP1 PUSH1 0x1 PUSH1 0x1 PUSH1 0xA0 SHL SUB DUP9 AND SWAP1 PUSH4 0x70A08231 SWAP1 PUSH1 0x24 ADD PUSH1 0x20 PUSH1 0x40 MLOAD DUP1 DUP4 SUB DUP2 DUP7 GAS STATICCALL ISZERO DUP1 ISZERO PUSH2 0x1C1D JUMPI RETURNDATASIZE PUSH1 0x0 DUP1 RETURNDATACOPY RETURNDATASIZE PUSH1 0x0 REVERT JUMPDEST POP POP POP POP PUSH1 0x40 MLOAD RETURNDATASIZE PUSH1 0x1F NOT PUSH1 0x1F DUP3 ADD AND DUP3 ADD DUP1 PUSH1 0x40 MSTORE POP DUP2 ADD SWAP1 PUSH2 0x1C41 SWAP2 SWAP1 PUSH2 0x2902 JUMP JUMPDEST SWAP1 POP PUSH1 0x0 DUP6 PUSH1 0x1 PUSH1 0x1 PUSH1 0xA0 SHL SUB AND DUP6 PUSH1 0x40 MLOAD PUSH2 0x1C5D SWAP2 SWAP1 PUSH2 0x2C05 JUMP JUMPDEST PUSH1 0x0 PUSH1 0x40 MLOAD DUP1 DUP4 SUB DUP2 PUSH1 0x0 DUP7 GAS CALL SWAP2 POP POP RETURNDATASIZE DUP1 PUSH1 0x0 DUP2 EQ PUSH2 0x1C9A JUMPI PUSH1 0x40 MLOAD SWAP2 POP PUSH1 0x1F NOT PUSH1 0x3F RETURNDATASIZE ADD AND DUP3 ADD PUSH1 0x40 MSTORE RETURNDATASIZE DUP3 MSTORE RETURNDATASIZE PUSH1 0x0 PUSH1 0x20 DUP5 ADD RETURNDATACOPY PUSH2 0x1C9F JUMP JUMPDEST PUSH1 0x60 SWAP2 POP JUMPDEST POP POP SWAP1 POP DUP1 PUSH2 0x1CC1 JUMPI PUSH1 0x40 MLOAD PUSH4 0x81CEFF3 PUSH1 0xE4 SHL DUP2 MSTORE PUSH1 0x4 ADD PUSH1 0x40 MLOAD DUP1 SWAP2 SUB SWAP1 REVERT JUMPDEST PUSH1 0x40 MLOAD PUSH4 0x70A08231 PUSH1 0xE0 SHL DUP2 MSTORE ADDRESS PUSH1 0x4 DUP3 ADD MSTORE PUSH1 0x0 SWAP1 PUSH1 0x1 PUSH1 0x1 PUSH1 0xA0 SHL SUB DUP11 AND SWAP1 PUSH4 0x70A08231 SWAP1 PUSH1 0x24 ADD PUSH1 0x20 PUSH1 0x40 MLOAD DUP1 DUP4 SUB DUP2 DUP7 GAS STATICCALL ISZERO DUP1 ISZERO PUSH2 0x1D08 JUMPI RETURNDATASIZE PUSH1 0x0 DUP1 RETURNDATACOPY RETURNDATASIZE PUSH1 0x0 REVERT JUMPDEST POP POP POP POP PUSH1 0x40 MLOAD RETURNDATASIZE PUSH1 0x1F NOT PUSH1 0x1F DUP3 ADD AND DUP3 ADD DUP1 PUSH1 0x40 MSTORE POP DUP2 ADD SWAP1 PUSH2 0x1D2C SWAP2 SWAP1 PUSH2 0x2902 JUMP JUMPDEST SWAP1 POP PUSH1 0x0 PUSH2 0x1D3A DUP5 DUP4 PUSH2 0x28B8 JUMP JUMPDEST SWAP1 POP DUP8 PUSH1 0x1 PUSH1 0x1 PUSH1 0xA0 SHL SUB AND DUP11 PUSH1 0x1 PUSH1 0x1 PUSH1 0xA0 SHL SUB AND DUP8 PUSH1 0x1 PUSH1 0x1 PUSH1 0xA0 SHL SUB AND PUSH32 0xEE4825A7988C5519A874BE79F2A84D13D02CFE5F74CAD97CDA2D5B55D2B13BFA DUP9 DUP6 PUSH1 0x40 MLOAD PUSH2 0x1D94 SWAP3 SWAP2 SWAP1 SWAP2 DUP3 MSTORE PUSH1 0x20 DUP3 ADD MSTORE PUSH1 0x40 ADD SWAP1 JUMP JUMPDEST PUSH1 0x40 MLOAD DUP1 SWAP2 SUB SWAP1 LOG4 POP POP POP POP POP POP POP POP POP POP JUMP JUMPDEST PUSH1 0x0 DUP2 GT DUP1 ISZERO PUSH2 0x1E29 JUMPI POP PUSH1 0x40 MLOAD PUSH4 0x6EB1769F PUSH1 0xE1 SHL DUP2 MSTORE ADDRESS PUSH1 0x4 DUP3 ADD MSTORE PUSH1 0x1 PUSH1 0x1 PUSH1 0xA0 SHL SUB DUP4 DUP2 AND PUSH1 0x24 DUP4 ADD MSTORE PUSH1 0x0 SWAP2 SWAP1 DUP6 AND SWAP1 PUSH4 0xDD62ED3E SWAP1 PUSH1 0x44 ADD PUSH1 0x20 PUSH1 0x40 MLOAD DUP1 DUP4 SUB DUP2 DUP7 GAS STATICCALL ISZERO DUP1 ISZERO PUSH2 0x1E03 JUMPI RETURNDATASIZE PUSH1 0x0 DUP1 RETURNDATACOPY RETURNDATASIZE PUSH1 0x0 REVERT JUMPDEST POP POP POP POP PUSH1 0x40 MLOAD RETURNDATASIZE PUSH1 0x1F NOT PUSH1 0x1F DUP3 ADD AND DUP3 ADD DUP1 PUSH1 0x40 MSTORE POP DUP2 ADD SWAP1 PUSH2 0x1E27 SWAP2 SWAP1 PUSH2 0x2902 JUMP JUMPDEST GT JUMPDEST ISZERO PUSH2 0x1F3B JUMPI PUSH1 0x40 DUP1 MLOAD PUSH1 0x1 PUSH1 0x1 PUSH1 0xA0 SHL SUB DUP5 DUP2 AND PUSH1 0x24 DUP4 ADD MSTORE PUSH1 0x0 PUSH1 0x44 DUP1 DUP5 ADD DUP3 SWAP1 MSTORE DUP5 MLOAD DUP1 DUP6 SUB SWAP1 SWAP2 ADD DUP2 MSTORE PUSH1 0x64 SWAP1 SWAP4 ADD DUP5 MSTORE PUSH1 0x20 DUP4 ADD DUP1 MLOAD PUSH1 0x1 PUSH1 0x1 PUSH1 0xE0 SHL SUB AND PUSH4 0x95EA7B3 PUSH1 0xE0 SHL OR SWAP1 MSTORE SWAP3 MLOAD DUP4 SWAP3 SWAP2 DUP8 AND SWAP2 PUSH2 0x1E88 SWAP2 PUSH2 0x2C05 JUMP JUMPDEST PUSH1 0x0 PUSH1 0x40 MLOAD DUP1 DUP4 SUB DUP2 PUSH1 0x0 DUP7 GAS CALL SWAP2 POP POP RETURNDATASIZE DUP1 PUSH1 0x0 DUP2 EQ PUSH2 0x1EC5 JUMPI PUSH1 0x40 MLOAD SWAP2 POP PUSH1 0x1F NOT PUSH1 0x3F RETURNDATASIZE ADD AND DUP3 ADD PUSH1 0x40 MSTORE RETURNDATASIZE DUP3 MSTORE RETURNDATASIZE PUSH1 0x0 PUSH1 0x20 DUP5 ADD RETURNDATACOPY PUSH2 0x1ECA JUMP JUMPDEST PUSH1 0x60 SWAP2 POP JUMPDEST POP SWAP2 POP SWAP2 POP DUP2 DUP1 ISZERO PUSH2 0x1EF4 JUMPI POP DUP1 MLOAD ISZERO DUP1 PUSH2 0x1EF4 JUMPI POP DUP1 DUP1 PUSH1 0x20 ADD SWAP1 MLOAD DUP2 ADD SWAP1 PUSH2 0x1EF4 SWAP2 SWAP1 PUSH2 0x291B JUMP JUMPDEST PUSH2 0x1F38 JUMPI PUSH1 0x40 MLOAD PUSH3 0x461BCD PUSH1 0xE5 SHL DUP2 MSTORE PUSH1 0x20 PUSH1 0x4 DUP3 ADD MSTORE PUSH1 0x15 PUSH1 0x24 DUP3 ADD MSTORE PUSH21 0x14995CD95D08185C1C1C9BDD985B0819985A5B1959 PUSH1 0x5A SHL PUSH1 0x44 DUP3 ADD MSTORE PUSH1 0x64 ADD PUSH2 0x18D JUMP JUMPDEST POP POP JUMPDEST PUSH1 0x40 DUP1 MLOAD PUSH1 0x1 PUSH1 0x1 PUSH1 0xA0 SHL SUB DUP5 DUP2 AND PUSH1 0x24 DUP4 ADD MSTORE PUSH1 0x44 DUP1 DUP4 ADD DUP6 SWAP1 MSTORE DUP4 MLOAD DUP1 DUP5 SUB SWAP1 SWAP2 ADD DUP2 MSTORE PUSH1 0x64 SWAP1 SWAP3 ADD DUP4 MSTORE PUSH1 0x20 DUP3 ADD DUP1 MLOAD PUSH1 0x1 PUSH1 0x1 PUSH1 0xE0 SHL SUB AND PUSH4 0x95EA7B3 PUSH1 0xE0 SHL OR SWAP1 MSTORE SWAP2 MLOAD PUSH1 0x0 SWAP3 DUP4 SWAP3 SWAP1 DUP8 AND SWAP2 PUSH2 0x1F97 SWAP2 SWAP1 PUSH2 0x2C05 JUMP JUMPDEST PUSH1 0x0 PUSH1 0x40 MLOAD DUP1 DUP4 SUB DUP2 PUSH1 0x0 DUP7 GAS CALL SWAP2 POP POP RETURNDATASIZE DUP1 PUSH1 0x0 DUP2 EQ PUSH2 0x1FD4 JUMPI PUSH1 0x40 MLOAD SWAP2 POP PUSH1 0x1F NOT PUSH1 0x3F RETURNDATASIZE ADD AND DUP3 ADD PUSH1 0x40 MSTORE RETURNDATASIZE DUP3 MSTORE RETURNDATASIZE PUSH1 0x0 PUSH1 0x20 DUP5 ADD RETURNDATACOPY PUSH2 0x1FD9 JUMP JUMPDEST PUSH1 0x60 SWAP2 POP JUMPDEST POP SWAP2 POP SWAP2 POP DUP2 DUP1 ISZERO PUSH2 0x2003 JUMPI POP DUP1 MLOAD ISZERO DUP1 PUSH2 0x2003 JUMPI POP DUP1 DUP1 PUSH1 0x20 ADD SWAP1 MLOAD DUP2 ADD SWAP1 PUSH2 0x2003 SWAP2 SWAP1 PUSH2 0x291B JUMP JUMPDEST PUSH2 0x2041 JUMPI PUSH1 0x40 MLOAD PUSH3 0x461BCD PUSH1 0xE5 SHL DUP2 MSTORE PUSH1 0x20 PUSH1 0x4 DUP3 ADD MSTORE PUSH1 0xF PUSH1 0x24 DUP3 ADD MSTORE PUSH15 0x105C1C1C9BDD985B0819985A5B1959 PUSH1 0x8A SHL PUSH1 0x44 DUP3 ADD MSTORE PUSH1 0x64 ADD PUSH2 0x18D JUMP JUMPDEST POP POP POP POP POP JUMP JUMPDEST PUSH1 0x40 DUP1 MLOAD PUSH1 0xA0 DUP2 ADD DUP3 MSTORE PUSH1 0x1 PUSH1 0x1 PUSH1 0xA0 SHL SUB PUSH32 0x0 DUP2 AND DUP3 MSTORE PUSH32 0x0 DUP2 AND PUSH1 0x20 DUP4 ADD MSTORE PUSH32 0x0 DUP2 AND SWAP3 DUP3 ADD SWAP3 SWAP1 SWAP3 MSTORE PUSH32 0x0 DUP3 AND PUSH1 0x60 DUP3 ADD MSTORE PUSH32 0x0 SWAP1 SWAP2 AND PUSH1 0x80 DUP3 ADD MSTORE PUSH1 0x0 JUMPDEST PUSH1 0x5 DUP2 LT ISZERO PUSH2 0x2041 JUMPI DUP5 PUSH1 0x1 PUSH1 0x1 PUSH1 0xA0 SHL SUB AND DUP3 DUP3 PUSH1 0x5 DUP2 LT PUSH2 0x214A JUMPI PUSH2 0x214A PUSH2 0x2873 JUMP JUMPDEST PUSH1 0x20 MUL ADD MLOAD PUSH1 0x1 PUSH1 0x1 PUSH1 0xA0 SHL SUB AND EQ PUSH2 0x218E JUMPI PUSH1 0x0 DUP3 DUP3 PUSH1 0x5 DUP2 LT PUSH2 0x2171 JUMPI PUSH2 0x2171 PUSH2 0x2873 JUMP JUMPDEST PUSH1 0x20 MUL ADD MLOAD SWAP1 POP PUSH2 0x2182 DUP2 DUP7 PUSH2 0x236F JUMP JUMPDEST PUSH2 0x218C DUP2 DUP6 PUSH2 0x236F JUMP JUMPDEST POP JUMPDEST PUSH1 0x1 ADD PUSH2 0x2125 JUMP JUMPDEST PUSH1 0x40 DUP1 MLOAD PUSH1 0xA0 DUP2 ADD DUP3 MSTORE PUSH1 0x1 PUSH1 0x1 PUSH1 0xA0 SHL SUB PUSH32 0x0 DUP2 AND DUP3 MSTORE PUSH32 0x0 DUP2 AND PUSH1 0x20 DUP4 ADD MSTORE PUSH32 0x0 DUP2 AND SWAP3 DUP3 ADD SWAP3 SWAP1 SWAP3 MSTORE PUSH32 0x0 DUP3 AND PUSH1 0x60 DUP3 ADD MSTORE PUSH32 0x0 SWAP1 SWAP2 AND PUSH1 0x80 DUP3 ADD MSTORE PUSH1 0x0 SWAP1 DUP2 SWAP1 DUP2 DUP1 DUP1 JUMPDEST PUSH1 0x5 DUP2 LT ISZERO PUSH2 0x2364 JUMPI DUP7 PUSH1 0x1 PUSH1 0x1 PUSH1 0xA0 SHL SUB AND DUP5 DUP3 PUSH1 0x5 DUP2 LT PUSH2 0x229E JUMPI PUSH2 0x229E PUSH2 0x2873 JUMP JUMPDEST PUSH1 0x20 MUL ADD MLOAD PUSH1 0x1 PUSH1 0x1 PUSH1 0xA0 SHL SUB AND EQ PUSH2 0x235C JUMPI PUSH1 0x0 DUP5 DUP3 PUSH1 0x5 DUP2 LT PUSH2 0x22C5 JUMPI PUSH2 0x22C5 PUSH2 0x2873 JUMP JUMPDEST PUSH1 0x20 MUL ADD MLOAD PUSH1 0x40 MLOAD PUSH4 0x70A08231 PUSH1 0xE0 SHL DUP2 MSTORE ADDRESS PUSH1 0x4 DUP3 ADD MSTORE PUSH1 0x1 PUSH1 0x1 PUSH1 0xA0 SHL SUB SWAP1 SWAP2 AND SWAP1 PUSH4 0x70A08231 SWAP1 PUSH1 0x24 ADD PUSH1 0x20 PUSH1 0x40 MLOAD DUP1 DUP4 SUB DUP2 DUP7 GAS STATICCALL ISZERO DUP1 ISZERO PUSH2 0x230F JUMPI RETURNDATASIZE PUSH1 0x0 DUP1 RETURNDATACOPY RETURNDATASIZE PUSH1 0x0 REVERT JUMPDEST POP POP POP POP PUSH1 0x40 MLOAD RETURNDATASIZE PUSH1 0x1F NOT PUSH1 0x1F DUP3 ADD AND DUP3 ADD DUP1 PUSH1 0x40 MSTORE POP DUP2 ADD SWAP1 PUSH2 0x2333 SWAP2 SWAP1 PUSH2 0x2902 JUMP JUMPDEST SWAP1 POP DUP4 DUP2 GT ISZERO PUSH2 0x235A JUMPI DUP1 SWAP4 POP DUP5 DUP3 PUSH1 0x5 DUP2 LT PUSH2 0x2352 JUMPI PUSH2 0x2352 PUSH2 0x2873 JUMP JUMPDEST PUSH1 0x20 MUL ADD MLOAD SWAP3 POP JUMPDEST POP JUMPDEST PUSH1 0x1 ADD PUSH2 0x2279 JUMP JUMPDEST POP SWAP6 SWAP1 SWAP5 POP SWAP3 POP POP POP JUMP JUMPDEST PUSH1 0x40 MLOAD PUSH4 0x6EB1769F PUSH1 0xE1 SHL DUP2 MSTORE ADDRESS PUSH1 0x4 DUP3 ADD MSTORE PUSH1 0x1 PUSH1 0x1 PUSH1 0xA0 SHL SUB DUP3 DUP2 AND PUSH1 0x24 DUP4 ADD MSTORE PUSH1 0x0 SWAP2 SWAP1 DUP5 AND SWAP1 PUSH4 0xDD62ED3E SWAP1 PUSH1 0x44 ADD PUSH1 0x20 PUSH1 0x40 MLOAD DUP1 DUP4 SUB DUP2 DUP7 GAS STATICCALL ISZERO DUP1 ISZERO PUSH2 0x23BF JUMPI RETURNDATASIZE PUSH1 0x0 DUP1 RETURNDATACOPY RETURNDATASIZE PUSH1 0x0 REVERT JUMPDEST POP POP POP POP PUSH1 0x40 MLOAD RETURNDATASIZE PUSH1 0x1F NOT PUSH1 0x1F DUP3 ADD AND DUP3 ADD DUP1 PUSH1 0x40 MSTORE POP DUP2 ADD SWAP1 PUSH2 0x23E3 SWAP2 SWAP1 PUSH2 0x2902 JUMP JUMPDEST GT ISZERO PUSH2 0x23FE JUMPI PUSH2 0x23FE PUSH1 0x1 PUSH1 0x1 PUSH1 0xA0 SHL SUB DUP4 AND DUP3 PUSH1 0x0 PUSH2 0x1DA8 JUMP JUMPDEST POP POP JUMP JUMPDEST PUSH1 0x1 PUSH1 0x1 PUSH1 0xA0 SHL SUB DUP2 AND DUP2 EQ PUSH2 0x2417 JUMPI PUSH1 0x0 DUP1 REVERT JUMPDEST POP JUMP JUMPDEST DUP1 ISZERO ISZERO DUP2 EQ PUSH2 0x2417 JUMPI PUSH1 0x0 DUP1 REVERT JUMPDEST PUSH1 0x0 DUP1 PUSH1 0x40 DUP4 DUP6 SUB SLT ISZERO PUSH2 0x243B JUMPI PUSH1 0x0 DUP1 REVERT JUMPDEST DUP3 CALLDATALOAD PUSH2 0x2446 DUP2 PUSH2 0x2402 JUMP JUMPDEST SWAP2 POP PUSH1 0x20 DUP4 ADD CALLDATALOAD PUSH2 0x2456 DUP2 PUSH2 0x241A JUMP JUMPDEST DUP1 SWAP2 POP POP SWAP3 POP SWAP3 SWAP1 POP JUMP JUMPDEST PUSH1 0x0 DUP1 DUP4 PUSH1 0x1F DUP5 ADD SLT PUSH2 0x2473 JUMPI PUSH1 0x0 DUP1 REVERT JUMPDEST POP DUP2 CALLDATALOAD PUSH8 0xFFFFFFFFFFFFFFFF DUP2 GT ISZERO PUSH2 0x248B JUMPI PUSH1 0x0 DUP1 REVERT JUMPDEST PUSH1 0x20 DUP4 ADD SWAP2 POP DUP4 PUSH1 0x20 DUP3 PUSH1 0x5 SHL DUP6 ADD ADD GT ISZERO PUSH2 0x24A6 JUMPI PUSH1 0x0 DUP1 REVERT JUMPDEST SWAP3 POP SWAP3 SWAP1 POP JUMP JUMPDEST PUSH1 0x0 DUP1 PUSH1 0x20 DUP4 DUP6 SUB SLT ISZERO PUSH2 0x24C0 JUMPI PUSH1 0x0 DUP1 REVERT JUMPDEST DUP3 CALLDATALOAD PUSH8 0xFFFFFFFFFFFFFFFF DUP2 GT ISZERO PUSH2 0x24D7 JUMPI PUSH1 0x0 DUP1 REVERT JUMPDEST PUSH2 0x24E3 DUP6 DUP3 DUP7 ADD PUSH2 0x2461 JUMP JUMPDEST SWAP1 SWAP7 SWAP1 SWAP6 POP SWAP4 POP POP POP POP JUMP JUMPDEST PUSH1 0x0 DUP1 PUSH1 0x0 PUSH1 0x40 DUP5 DUP7 SUB SLT ISZERO PUSH2 0x2504 JUMPI PUSH1 0x0 DUP1 REVERT JUMPDEST DUP4 CALLDATALOAD SWAP3 POP PUSH1 0x20 DUP5 ADD CALLDATALOAD PUSH8 0xFFFFFFFFFFFFFFFF DUP2 GT ISZERO PUSH2 0x2522 JUMPI PUSH1 0x0 DUP1 REVERT JUMPDEST PUSH2 0x252E DUP7 DUP3 DUP8 ADD PUSH2 0x2461 JUMP JUMPDEST SWAP5 SWAP8 SWAP1 SWAP7 POP SWAP4 SWAP5 POP POP POP POP JUMP JUMPDEST PUSH1 0x0 PUSH1 0x20 DUP3 DUP5 SUB SLT ISZERO PUSH2 0x254D JUMPI PUSH1 0x0 DUP1 REVERT JUMPDEST DUP2 CALLDATALOAD PUSH2 0x2558 DUP2 PUSH2 0x2402 JUMP JUMPDEST SWAP4 SWAP3 POP POP POP JUMP JUMPDEST PUSH1 0x0 DUP1 PUSH1 0x40 DUP4 DUP6 SUB SLT ISZERO PUSH2 0x2572 JUMPI PUSH1 0x0 DUP1 REVERT JUMPDEST POP POP DUP1 CALLDATALOAD SWAP3 PUSH1 0x20 SWAP1 SWAP2 ADD CALLDATALOAD SWAP2 POP JUMP JUMPDEST PUSH4 0x4E487B71 PUSH1 0xE0 SHL PUSH1 0x0 MSTORE PUSH1 0x41 PUSH1 0x4 MSTORE PUSH1 0x24 PUSH1 0x0 REVERT JUMPDEST PUSH1 0x40 MLOAD PUSH1 0x1F DUP3 ADD PUSH1 0x1F NOT AND DUP2 ADD PUSH8 0xFFFFFFFFFFFFFFFF DUP2 GT DUP3 DUP3 LT OR ISZERO PUSH2 0x25C0 JUMPI PUSH2 0x25C0 PUSH2 0x2581 JUMP JUMPDEST PUSH1 0x40 MSTORE SWAP2 SWAP1 POP JUMP JUMPDEST PUSH1 0x0 PUSH8 0xFFFFFFFFFFFFFFFF DUP3 GT ISZERO PUSH2 0x25E2 JUMPI PUSH2 0x25E2 PUSH2 0x2581 JUMP JUMPDEST POP PUSH1 0x5 SHL PUSH1 0x20 ADD SWAP1 JUMP JUMPDEST PUSH1 0x0 DUP3 PUSH1 0x1F DUP4 ADD SLT PUSH2 0x25FD JUMPI PUSH1 0x0 DUP1 REVERT JUMPDEST DUP2 CALLDATALOAD PUSH1 0x20 PUSH2 0x2612 PUSH2 0x260D DUP4 PUSH2 0x25C8 JUMP JUMPDEST PUSH2 0x2597 JUMP JUMPDEST DUP3 DUP2 MSTORE PUSH1 0x5 SWAP3 SWAP1 SWAP3 SHL DUP5 ADD DUP2 ADD SWAP2 DUP2 DUP2 ADD SWAP1 DUP7 DUP5 GT ISZERO PUSH2 0x2631 JUMPI PUSH1 0x0 DUP1 REVERT JUMPDEST DUP3 DUP7 ADD JUMPDEST DUP5 DUP2 LT ISZERO PUSH2 0x2655 JUMPI DUP1 CALLDATALOAD PUSH2 0x2648 DUP2 PUSH2 0x2402 JUMP JUMPDEST DUP4 MSTORE SWAP2 DUP4 ADD SWAP2 DUP4 ADD PUSH2 0x2635 JUMP JUMPDEST POP SWAP7 SWAP6 POP POP POP POP POP POP JUMP JUMPDEST PUSH1 0x0 DUP3 PUSH1 0x1F DUP4 ADD SLT PUSH2 0x2671 JUMPI PUSH1 0x0 DUP1 REVERT JUMPDEST DUP2 CALLDATALOAD PUSH1 0x20 PUSH2 0x2681 PUSH2 0x260D DUP4 PUSH2 0x25C8 JUMP JUMPDEST DUP3 DUP2 MSTORE PUSH1 0x5 SWAP3 SWAP1 SWAP3 SHL DUP5 ADD DUP2 ADD SWAP2 DUP2 DUP2 ADD SWAP1 DUP7 DUP5 GT ISZERO PUSH2 0x26A0 JUMPI PUSH1 0x0 DUP1 REVERT JUMPDEST DUP3 DUP7 ADD JUMPDEST DUP5 DUP2 LT ISZERO PUSH2 0x2655 JUMPI DUP1 CALLDATALOAD DUP4 MSTORE SWAP2 DUP4 ADD SWAP2 DUP4 ADD PUSH2 0x26A4 JUMP JUMPDEST PUSH1 0x0 PUSH8 0xFFFFFFFFFFFFFFFF DUP3 GT ISZERO PUSH2 0x26D5 JUMPI PUSH2 0x26D5 PUSH2 0x2581 JUMP JUMPDEST POP PUSH1 0x1F ADD PUSH1 0x1F NOT AND PUSH1 0x20 ADD SWAP1 JUMP JUMPDEST PUSH1 0x0 DUP3 PUSH1 0x1F DUP4 ADD SLT PUSH2 0x26F4 JUMPI PUSH1 0x0 DUP1 REVERT JUMPDEST DUP2 CALLDATALOAD PUSH2 0x2702 PUSH2 0x260D DUP3 PUSH2 0x26BB JUMP JUMPDEST DUP2 DUP2 MSTORE DUP5 PUSH1 0x20 DUP4 DUP7 ADD ADD GT ISZERO PUSH2 0x2717 JUMPI PUSH1 0x0 DUP1 REVERT JUMPDEST DUP2 PUSH1 0x20 DUP6 ADD PUSH1 0x20 DUP4 ADD CALLDATACOPY PUSH1 0x0 SWAP2 DUP2 ADD PUSH1 0x20 ADD SWAP2 SWAP1 SWAP2 MSTORE SWAP4 SWAP3 POP POP POP JUMP JUMPDEST PUSH1 0x0 DUP1 PUSH1 0x0 DUP1 PUSH1 0x80 DUP6 DUP8 SUB SLT ISZERO PUSH2 0x274A JUMPI PUSH1 0x0 DUP1 REVERT JUMPDEST DUP5 CALLDATALOAD PUSH8 0xFFFFFFFFFFFFFFFF DUP1 DUP3 GT ISZERO PUSH2 0x2762 JUMPI PUSH1 0x0 DUP1 REVERT JUMPDEST PUSH2 0x276E DUP9 DUP4 DUP10 ADD PUSH2 0x25EC JUMP JUMPDEST SWAP6 POP PUSH1 0x20 DUP8 ADD CALLDATALOAD SWAP2 POP DUP1 DUP3 GT ISZERO PUSH2 0x2784 JUMPI PUSH1 0x0 DUP1 REVERT JUMPDEST PUSH2 0x2790 DUP9 DUP4 DUP10 ADD PUSH2 0x2660 JUMP JUMPDEST SWAP5 POP PUSH1 0x40 DUP8 ADD CALLDATALOAD SWAP4 POP PUSH1 0x60 DUP8 ADD CALLDATALOAD SWAP2 POP DUP1 DUP3 GT ISZERO PUSH2 0x27AD JUMPI PUSH1 0x0 DUP1 REVERT JUMPDEST POP PUSH2 0x27BA DUP8 DUP3 DUP9 ADD PUSH2 0x26E3 JUMP JUMPDEST SWAP2 POP POP SWAP3 SWAP6 SWAP2 SWAP5 POP SWAP3 POP JUMP JUMPDEST PUSH1 0x0 DUP1 PUSH1 0x0 DUP1 PUSH1 0x80 DUP6 DUP8 SUB SLT ISZERO PUSH2 0x27DC JUMPI PUSH1 0x0 DUP1 REVERT JUMPDEST DUP5 CALLDATALOAD PUSH8 0xFFFFFFFFFFFFFFFF DUP1 DUP3 GT ISZERO PUSH2 0x27F4 JUMPI PUSH1 0x0 DUP1 REVERT JUMPDEST PUSH2 0x2800 DUP9 DUP4 DUP10 ADD PUSH2 0x25EC JUMP JUMPDEST SWAP6 POP PUSH1 0x20 DUP8 ADD CALLDATALOAD SWAP2 POP DUP1 DUP3 GT ISZERO PUSH2 0x2816 JUMPI PUSH1 0x0 DUP1 REVERT JUMPDEST PUSH2 0x2822 DUP9 DUP4 DUP10 ADD PUSH2 0x2660 JUMP JUMPDEST SWAP5 POP PUSH1 0x40 DUP8 ADD CALLDATALOAD SWAP2 POP DUP1 DUP3 GT ISZERO PUSH2 0x2838 JUMPI PUSH1 0x0 DUP1 REVERT JUMPDEST PUSH2 0x2844 DUP9 DUP4 DUP10 ADD PUSH2 0x2660 JUMP JUMPDEST SWAP4 POP PUSH1 0x60 DUP8 ADD CALLDATALOAD SWAP2 POP DUP1 DUP3 GT ISZERO PUSH2 0x27AD JUMPI PUSH1 0x0 DUP1 REVERT JUMPDEST PUSH1 0x0 PUSH1 0x20 DUP3 DUP5 SUB SLT ISZERO PUSH2 0x286C JUMPI PUSH1 0x0 DUP1 REVERT JUMPDEST POP CALLDATALOAD SWAP2 SWAP1 POP JUMP JUMPDEST PUSH4 0x4E487B71 PUSH1 0xE0 SHL PUSH1 0x0 MSTORE PUSH1 0x32 PUSH1 0x4 MSTORE PUSH1 0x24 PUSH1 0x0 REVERT JUMPDEST PUSH4 0x4E487B71 PUSH1 0xE0 SHL PUSH1 0x0 MSTORE PUSH1 0x11 PUSH1 0x4 MSTORE PUSH1 0x24 PUSH1 0x0 REVERT JUMPDEST PUSH1 0x0 PUSH1 0x1 DUP3 ADD PUSH2 0x28B1 JUMPI PUSH2 0x28B1 PUSH2 0x2889 JUMP JUMPDEST POP PUSH1 0x1 ADD SWAP1 JUMP JUMPDEST DUP2 DUP2 SUB DUP2 DUP2 GT ISZERO PUSH2 0xA6A JUMPI PUSH2 0xA6A PUSH2 0x2889 JUMP JUMPDEST PUSH1 0x20 DUP1 DUP3 MSTORE PUSH1 0x1F SWAP1 DUP3 ADD MSTORE PUSH32 0x5265656E7472616E637947756172643A207265656E7472616E742063616C6C00 PUSH1 0x40 DUP3 ADD MSTORE PUSH1 0x60 ADD SWAP1 JUMP JUMPDEST PUSH1 0x0 PUSH1 0x20 DUP3 DUP5 SUB SLT ISZERO PUSH2 0x2914 JUMPI PUSH1 0x0 DUP1 REVERT JUMPDEST POP MLOAD SWAP2 SWAP1 POP JUMP JUMPDEST PUSH1 0x0 PUSH1 0x20 DUP3 DUP5 SUB SLT ISZERO PUSH2 0x292D JUMPI PUSH1 0x0 DUP1 REVERT JUMPDEST DUP2 MLOAD PUSH2 0x2558 DUP2 PUSH2 0x241A JUMP JUMPDEST DUP1 DUP3 MUL DUP2 ISZERO DUP3 DUP3 DIV DUP5 EQ OR PUSH2 0xA6A JUMPI PUSH2 0xA6A PUSH2 0x2889 JUMP JUMPDEST PUSH1 0x0 DUP3 PUSH2 0x296C JUMPI PUSH4 0x4E487B71 PUSH1 0xE0 SHL PUSH1 0x0 MSTORE PUSH1 0x12 PUSH1 0x4 MSTORE PUSH1 0x24 PUSH1 0x0 REVERT JUMPDEST POP DIV SWAP1 JUMP JUMPDEST PUSH1 0x0 JUMPDEST DUP4 DUP2 LT ISZERO PUSH2 0x298C JUMPI DUP2 DUP2 ADD MLOAD DUP4 DUP3 ADD MSTORE PUSH1 0x20 ADD PUSH2 0x2974 JUMP JUMPDEST POP POP PUSH1 0x0 SWAP2 ADD MSTORE JUMP JUMPDEST PUSH1 0x0 DUP2 MLOAD DUP1 DUP5 MSTORE PUSH2 0x29AD DUP2 PUSH1 0x20 DUP7 ADD PUSH1 0x20 DUP7 ADD PUSH2 0x2971 JUMP JUMPDEST PUSH1 0x1F ADD PUSH1 0x1F NOT AND SWAP3 SWAP1 SWAP3 ADD PUSH1 0x20 ADD SWAP3 SWAP2 POP POP JUMP JUMPDEST PUSH1 0x1 PUSH1 0x1 PUSH1 0xA0 SHL SUB DUP6 DUP2 AND DUP3 MSTORE PUSH1 0x80 PUSH1 0x20 DUP1 DUP5 ADD DUP3 SWAP1 MSTORE DUP7 MLOAD SWAP2 DUP5 ADD DUP3 SWAP1 MSTORE PUSH1 0x0 SWAP3 DUP8 DUP3 ADD SWAP3 SWAP1 SWAP2 SWAP1 PUSH1 0xA0 DUP7 ADD SWAP1 DUP6 JUMPDEST DUP2 DUP2 LT ISZERO PUSH2 0x2A0F JUMPI DUP6 MLOAD DUP6 AND DUP4 MSTORE SWAP5 DUP4 ADD SWAP5 SWAP2 DUP4 ADD SWAP2 PUSH1 0x1 ADD PUSH2 0x29F1 JUMP JUMPDEST POP POP DUP6 DUP2 SUB PUSH1 0x40 DUP8 ADD MSTORE DUP8 MLOAD DUP1 DUP3 MSTORE SWAP1 DUP3 ADD SWAP4 POP SWAP2 POP DUP1 DUP8 ADD PUSH1 0x0 JUMPDEST DUP4 DUP2 LT ISZERO PUSH2 0x2A47 JUMPI DUP2 MLOAD DUP6 MSTORE SWAP4 DUP3 ADD SWAP4 SWAP1 DUP3 ADD SWAP1 PUSH1 0x1 ADD PUSH2 0x2A2B JUMP JUMPDEST POP POP POP POP DUP3 DUP2 SUB PUSH1 0x60 DUP5 ADD MSTORE PUSH2 0x2A5D DUP2 DUP6 PUSH2 0x2995 JUMP JUMPDEST SWAP8 SWAP7 POP POP POP POP POP POP POP JUMP JUMPDEST DUP1 MLOAD PUSH10 0xFFFFFFFFFFFFFFFFFFFF DUP2 AND DUP2 EQ PUSH2 0x2A82 JUMPI PUSH1 0x0 DUP1 REVERT JUMPDEST SWAP2 SWAP1 POP JUMP JUMPDEST PUSH1 0x0 DUP1 PUSH1 0x0 DUP1 PUSH1 0x0 PUSH1 0xA0 DUP7 DUP9 SUB SLT ISZERO PUSH2 0x2A9F JUMPI PUSH1 0x0 DUP1 REVERT JUMPDEST PUSH2 0x2AA8 DUP7 PUSH2 0x2A68 JUMP JUMPDEST SWAP5 POP PUSH1 0x20 DUP7 ADD MLOAD SWAP4 POP PUSH1 0x40 DUP7 ADD MLOAD SWAP3 POP PUSH1 0x60 DUP7 ADD MLOAD SWAP2 POP PUSH2 0x2ACB PUSH1 0x80 DUP8 ADD PUSH2 0x2A68 JUMP JUMPDEST SWAP1 POP SWAP3 SWAP6 POP SWAP3 SWAP6 SWAP1 SWAP4 POP JUMP JUMPDEST PUSH1 0x0 PUSH1 0x20 DUP3 DUP5 SUB SLT ISZERO PUSH2 0x2AE9 JUMPI PUSH1 0x0 DUP1 REVERT JUMPDEST DUP2 MLOAD PUSH2 0x2558 DUP2 PUSH2 0x2402 JUMP JUMPDEST PUSH1 0x0 DUP3 PUSH1 0x1F DUP4 ADD SLT PUSH2 0x2B05 JUMPI PUSH1 0x0 DUP1 REVERT JUMPDEST DUP2 MLOAD PUSH2 0x2B13 PUSH2 0x260D DUP3 PUSH2 0x26BB JUMP JUMPDEST DUP2 DUP2 MSTORE DUP5 PUSH1 0x20 DUP4 DUP7 ADD ADD GT ISZERO PUSH2 0x2B28 JUMPI PUSH1 0x0 DUP1 REVERT JUMPDEST PUSH2 0x2B39 DUP3 PUSH1 0x20 DUP4 ADD PUSH1 0x20 DUP8 ADD PUSH2 0x2971 JUMP JUMPDEST SWAP5 SWAP4 POP POP POP POP JUMP JUMPDEST PUSH1 0x0 DUP1 PUSH1 0x0 DUP1 PUSH1 0x0 DUP1 PUSH1 0xC0 DUP8 DUP10 SUB SLT ISZERO PUSH2 0x2B5A JUMPI PUSH1 0x0 DUP1 REVERT JUMPDEST DUP7 MLOAD PUSH2 0x2B65 DUP2 PUSH2 0x2402 JUMP JUMPDEST PUSH1 0x20 DUP9 ADD MLOAD SWAP1 SWAP7 POP PUSH2 0x2B76 DUP2 PUSH2 0x2402 JUMP JUMPDEST PUSH1 0x40 DUP9 ADD MLOAD SWAP1 SWAP6 POP PUSH8 0xFFFFFFFFFFFFFFFF DUP1 DUP3 GT ISZERO PUSH2 0x2B94 JUMPI PUSH1 0x0 DUP1 REVERT JUMPDEST PUSH2 0x2BA0 DUP11 DUP4 DUP12 ADD PUSH2 0x2AF4 JUMP JUMPDEST SWAP6 POP PUSH1 0x60 DUP10 ADD MLOAD SWAP2 POP PUSH2 0x2BB2 DUP3 PUSH2 0x2402 JUMP JUMPDEST PUSH1 0x80 DUP10 ADD MLOAD SWAP2 SWAP5 POP PUSH2 0x2BC3 DUP3 PUSH2 0x2402 JUMP JUMPDEST PUSH1 0xA0 DUP10 ADD MLOAD SWAP2 SWAP4 POP DUP1 DUP3 GT ISZERO PUSH2 0x2BD8 JUMPI PUSH1 0x0 DUP1 REVERT JUMPDEST POP PUSH2 0x2BE5 DUP10 DUP3 DUP11 ADD PUSH2 0x2AF4 JUMP JUMPDEST SWAP2 POP POP SWAP3 SWAP6 POP SWAP3 SWAP6 POP SWAP3 SWAP6 JUMP JUMPDEST DUP1 DUP3 ADD DUP1 DUP3 GT ISZERO PUSH2 0xA6A JUMPI PUSH2 0xA6A PUSH2 0x2889 JUMP JUMPDEST PUSH1 0x0 DUP3 MLOAD PUSH2 0x2C17 DUP2 DUP5 PUSH1 0x20 DUP8 ADD PUSH2 0x2971 JUMP JUMPDEST SWAP2 SWAP1 SWAP2 ADD SWAP3 SWAP2 POP POP JUMP INVALID LOG2 PUSH5 0x6970667358 0x22 SLT KECCAK256 ADD CREATE2 0xB9 0xDB DUP7 EQ EXTCODESIZE MOD 0x2D 0xBA MULMOD ORIGIN MSIZE 0xE CALLDATACOPY STATICCALL SWAP4 0x2C 0xEC PUSH20 0xCF3D67B91E98DEF44687AEE664736F6C63430008 EQ STOP CALLER "},"methodIdentifiers":{"emergencyPriceReset(uint256,bytes[])":"21f6d221","emergencyWithdrawMultiple(address[])":"12867764","executeFlashLoan(address[],uint256[],uint256,bytes)":"bce77555","getETHPriceUSD()":"ee69f708","getGasCostUSD(uint256,uint256)":"6f48a6a6","owner()":"8da5cb5b","pause()":"8456cb59","paused()":"5c975abb","receiveFlashLoan(address[],uint256[],uint256[],bytes)":"f04f2707","setTrustedSpender(address,bool)":"114948b3","trustedSpenders(address)":"91c7e540","unpause()":"3f4ba83a","updateFallbackPrice(uint256)":"f4755827","withdraw(address)":"51cff8d9"}}}}}