{"abi":[{"type":"constructor","inputs":[{"name":"_vault","type":"address","internalType":"address"}],"stateMutability":"nonpayable"},{"type":"receive","stateMutability":"payable"},{"type":"function","name":"PERMIT2_CONTRACT","inputs":[],"outputs":[{"name":"","type":"address","internalType":"address"}],"stateMutability":"view"},{"type":"function","name":"emergencyWithdrawMultiple","inputs":[{"name":"tokens","type":"address[]","internalType":"address[]"}],"outputs":[],"stateMutability":"nonpayable"},{"type":"function","name":"executeFlashLoan","inputs":[{"name":"tokens","type":"address[]","internalType":"contract IERC20[]"},{"name":"amounts","type":"uint256[]","internalType":"uint256[]"},{"name":"minProfitBps","type":"uint256","internalType":"uint256"},{"name":"swapData","type":"bytes","internalType":"bytes"}],"outputs":[],"stateMutability":"nonpayable"},{"type":"function","name":"getETHPriceUSD","inputs":[],"outputs":[{"name":"price","type":"uint256","internalType":"uint256"}],"stateMutability":"view"},{"type":"function","name":"getGasCostUSD","inputs":[{"name":"gasUsed","type":"uint256","internalType":"uint256"},{"name":"gasPrice","type":"uint256","internalType":"uint256"}],"outputs":[{"name":"gasCostUSD","type":"uint256","internalType":"uint256"}],"stateMutability":"view"},{"type":"function","name":"owner","inputs":[],"outputs":[{"name":"","type":"address","internalType":"address"}],"stateMutability":"view"},{"type":"function","name":"receiveFlashLoan","inputs":[{"name":"tokens","type":"address[]","internalType":"contract IERC20[]"},{"name":"amounts","type":"uint256[]","internalType":"uint256[]"},{"name":"feeAmounts","type":"uint256[]","internalType":"uint256[]"},{"name":"userData","type":"bytes","internalType":"bytes"}],"outputs":[],"stateMutability":"nonpayable"},{"type":"function","name":"renounceOwnership","inputs":[],"outputs":[],"stateMutability":"nonpayable"},{"type":"function","name":"transferOwnership","inputs":[{"name":"newOwner","type":"address","internalType":"address"}],"outputs":[],"stateMutability":"nonpayable"},{"type":"function","name":"withdraw","inputs":[{"name":"tokenAddress","type":"address","internalType":"address"}],"outputs":[],"stateMutability":"nonpayable"},{"type":"event","name":"EmergencyWithdraw","inputs":[{"name":"token","type":"address","indexed":true,"internalType":"address"},{"name":"amount","type":"uint256","indexed":false,"internalType":"uint256"}],"anonymous":false},{"type":"event","name":"FlashLoanExecuted","inputs":[{"name":"token","type":"address","indexed":true,"internalType":"address"},{"name":"amount","type":"uint256","indexed":false,"internalType":"uint256"},{"name":"feeAmount","type":"uint256","indexed":false,"internalType":"uint256"},{"name":"profit","type":"uint256","indexed":false,"internalType":"uint256"}],"anonymous":false},{"type":"event","name":"OwnershipTransferred","inputs":[{"name":"previousOwner","type":"address","indexed":true,"internalType":"address"},{"name":"newOwner","type":"address","indexed":true,"internalType":"address"}],"anonymous":false},{"type":"error","name":"InsufficientProfit","inputs":[]},{"type":"error","name":"InvalidAmount","inputs":[]},{"type":"error","name":"OwnableInvalidOwner","inputs":[{"name":"owner","type":"address","internalType":"address"}]},{"type":"error","name":"OwnableUnauthorizedAccount","inputs":[{"name":"account","type":"address","internalType":"address"}]},{"type":"error","name":"ReentrancyGuardReentrantCall","inputs":[]},{"type":"error","name":"SwapFailed","inputs":[]},{"type":"error","name":"TransferFailed","inputs":[]},{"type":"error","name":"Unauthorized","inputs":[]}],"bytecode":{"object":"0x60a060405234801561000f575f5ffd5b506040516119f63803806119f683398101604081905261002e916100c1565b338061005357604051631e4fbdf760e01b81525f600482015260240160405180910390fd5b61005c81610072565b50600180556001600160a01b03166080526100ee565b5f80546001600160a01b038381166001600160a01b0319831681178455604051919092169283917f8be0079c531659141344cd1fd0a4f28419497f9722a3daafe3b4186f6b6457e09190a35050565b5f602082840312156100d1575f5ffd5b81516001600160a01b03811681146100e7575f5ffd5b9392505050565b6080516118e26101145f395f81816106fe015281816108960152610e0101526118e25ff3fe608060405260043610610092575f3560e01c8063bce7755511610057578063bce7755514610153578063ee69f70814610172578063f04f270714610186578063f2fde38b146101a5578063f840f3fc146101c4575f5ffd5b8063128677641461009d57806351cff8d9146100be5780636f48a6a6146100dd578063715018a61461010f5780638da5cb5b14610123575f5ffd5b3661009957005b5f5ffd5b3480156100a8575f5ffd5b506100bc6100b736600461122b565b6101e6565b005b3480156100c9575f5ffd5b506100bc6100d83660046112ae565b610282565b3480156100e8575f5ffd5b506100fc6100f73660046112d0565b61055d565b6040519081526020015b60405180910390f35b34801561011a575f5ffd5b506100bc6105f2565b34801561012e575f5ffd5b505f546001600160a01b03165b6040516001600160a01b039091168152602001610106565b34801561015e575f5ffd5b506100bc61016d366004611497565b610605565b34801561017d575f5ffd5b506100fc610775565b348015610191575f5ffd5b506100bc6101a036600461152c565b61088b565b3480156101b0575f5ffd5b506100bc6101bf3660046112ae565b610f2e565b3480156101cf575f5ffd5b5061013b6e22d473030f116ddee9f6b43ac78ba381565b6101ee610f68565b5f5b8181101561027d57306351cff8d9848484818110610210576102106115c9565b905060200201602081019061022591906112ae565b6040516001600160e01b031960e084901b1681526001600160a01b0390911660048201526024015f604051808303815f87803b158015610263575f5ffd5b505af1925050508015610274575060015b506001016101f0565b505050565b61028a610f68565b610292610f94565b6001600160a01b0381166103915747806102e45760405162461bcd60e51b815260206004820152600e60248201526d4e6f204554482062616c616e636560901b60448201526064015b60405180910390fd5b5f80546040516001600160a01b039091169083908381818185875af1925050503d805f811461032e576040519150601f19603f3d011682016040523d82523d5f602084013e610333565b606091505b5050905080610355576040516312171d8360e31b815260040160405180910390fd5b6040518281525f907f5fafa99d0643513820be26656b45130b01e1c03062e1266bf36f88cbd3bd96959060200160405180910390a25050610551565b6040516370a0823160e01b815230600482015281905f906001600160a01b038316906370a0823190602401602060405180830381865afa1580156103d7573d5f5f3e3d5ffd5b505050506040513d601f19601f820116820180604052508101906103fb91906115dd565b90505f811161043f5760405162461bcd60e51b815260206004820152601060248201526f4e6f20746f6b656e2062616c616e636560801b60448201526064016102db565b816001600160a01b031663a9059cbb61045f5f546001600160a01b031690565b6040516001600160e01b031960e084901b1681526001600160a01b039091166004820152602481018490526044016020604051808303815f875af11580156104a9573d5f5f3e3d5ffd5b505050506040513d601f19601f820116820180604052508101906104cd91906115f4565b61050b5760405162461bcd60e51b815260206004820152600f60248201526e151c985b9cd9995c8819985a5b1959608a1b60448201526064016102db565b826001600160a01b03167f5fafa99d0643513820be26656b45130b01e1c03062e1266bf36f88cbd3bd96958260405161054691815260200190565b60405180910390a250505b61055a60018055565b50565b5f5f306001600160a01b031663ee69f7086040518163ffffffff1660e01b8152600401602060405180830381865afa15801561059b573d5f5f3e3d5ffd5b505050506040513d601f19601f820116820180604052508101906105bf91906115dd565b90505f6105cc8486611627565b90506305f5e1006105dd8383611627565b6105e7919061163e565b925050505b92915050565b6105fa610f68565b6106035f610fbe565b565b61060d610f68565b610615610f94565b825184511461065e5760405162461bcd60e51b8152602060048201526015602482015274082e4e4c2f240d8cadccee8d040dad2e6dac2e8c6d605b1b60448201526064016102db565b5f84511161069d5760405162461bcd60e51b815260206004820152600c60248201526b456d7074792061727261797360a01b60448201526064016102db565b6103e88211156106e25760405162461bcd60e51b815260206004820152601060248201526f4d61782031302520736c69707061676560801b60448201526064016102db565b6002829055604051632e1c224f60e11b81526001600160a01b037f00000000000000000000000000000000000000000000000000000000000000001690635c38449e9061073990309088908890879060040161168b565b5f604051808303815f87803b158015610750575f5ffd5b505af1158015610762573d5f5f3e3d5ffd5b5050505061076f60018055565b50505050565b5f5f5f735f4ec3df9cbd43714fe2740f5e3616155c5b84196001600160a01b031663feaf968c6040518163ffffffff1660e01b815260040160a060405180830381865afa1580156107c8573d5f5f3e3d5ffd5b505050506040513d601f19601f820116820180604052508101906107ec9190611758565b5093505092505062015180814261080391906117a6565b11156108465760405162461bcd60e51b8152602060048201526012602482015271141c9a58d94819185d18481d1bdbc81bdb1960721b60448201526064016102db565b5f82136108855760405162461bcd60e51b815260206004820152600d60248201526c496e76616c696420707269636560981b60448201526064016102db565b50919050565b336001600160a01b037f000000000000000000000000000000000000000000000000000000000000000016146108d3576040516282b42960e81b815260040160405180910390fd5b6002545f036109245760405162461bcd60e51b815260206004820152601c60248201527f4d696e50726f666974427073206e6f7420696e697469616c697a65640000000060448201526064016102db565b5f845f81518110610937576109376115c9565b602002602001015190505f845f81518110610954576109546115c9565b6020908102919091010151600280545f918290556040516370a0823160e01b8152306004820152929350916001600160a01b038516906370a0823190602401602060405180830381865afa1580156109ae573d5f5f3e3d5ffd5b505050506040513d601f19601f820116820180604052508101906109d291906115dd565b90505f5f5f5f888060200190518101906109ec9190611806565b60405163095ea7b360e01b81526001600160a01b038086166004830152602482018d905294985092965090945092509089169063095ea7b3906044016020604051808303815f875af1158015610a44573d5f5f3e3d5ffd5b505050506040513d601f19601f82011682018060405250810190610a6891906115f4565b610aa65760405162461bcd60e51b815260206004820152600f60248201526e105c1c1c9bdd985b0819985a5b1959608a1b60448201526064016102db565b5f846001600160a01b031684604051610abf9190611883565b5f604051808303815f865af19150503d805f8114610af8576040519150601f19603f3d011682016040523d82523d5f602084013e610afd565b606091505b5050905080610b1f5760405163081ceff360e41b815260040160405180910390fd5b610b29898461100d565b5f836001600160a01b031683604051610b429190611883565b5f604051808303815f865af19150503d805f8114610b7b576040519150601f19603f3d011682016040523d82523d5f602084013e610b80565b606091505b5050905080610ba25760405163081ceff360e41b815260040160405180910390fd5b60405163095ea7b360e01b81526001600160a01b0387811660048301525f60248301528b169063095ea7b3906044016020604051808303815f875af1158015610bed573d5f5f3e3d5ffd5b505050506040513d601f19601f82011682018060405250810190610c1191906115f4565b610c555760405162461bcd60e51b8152602060048201526015602482015274105c1c1c9bdd985b081c995cd95d0819985a5b1959605a1b60448201526064016102db565b60405163095ea7b360e01b81526001600160a01b0385811660048301525f60248301528b169063095ea7b3906044016020604051808303815f875af1158015610ca0573d5f5f3e3d5ffd5b505050506040513d601f19601f82011682018060405250810190610cc491906115f4565b610d085760405162461bcd60e51b8152602060048201526015602482015274105c1c1c9bdd985b081c995cd95d0819985a5b1959605a1b60448201526064016102db565b6040516370a0823160e01b81523060048201525f906001600160a01b038c16906370a0823190602401602060405180830381865afa158015610d4c573d5f5f3e3d5ffd5b505050506040513d601f19601f82011682018060405250810190610d7091906115dd565b90505f612710610d808b826117a6565b610d8a908d611627565b610d94919061163e565b610d9e908a611899565b905080821015610dc157604051632723fc7560e11b815260040160405180910390fd5b610dcb8b8a611899565b8211610dea57604051632723fc7560e11b815260040160405180910390fd5b60405163a9059cbb60e01b81526001600160a01b037f000000000000000000000000000000000000000000000000000000000000000081166004830152602482018d90528d169063a9059cbb906044016020604051808303815f875af1158015610e56573d5f5f3e3d5ffd5b505050506040513d601f19601f82011682018060405250810190610e7a91906115f4565b610eb85760405162461bcd60e51b815260206004820152600f60248201526e151c985b9cd9995c8819985a5b1959608a1b60448201526064016102db565b5f610ec38c8b611899565b610ecd90846117a6565b604080518e81525f60208201529081018290529091506001600160a01b038e16907fe03a36d920ad8de5a978a8f1917280e202ae9193e6dc19e08ef1f6c2a051eba49060600160405180910390a25050505050505050505050505050505050565b610f36610f68565b6001600160a01b038116610f5f57604051631e4fbdf760e01b81525f60048201526024016102db565b61055a81610fbe565b5f546001600160a01b031633146106035760405163118cdaa760e01b81523360048201526024016102db565b600260015403610fb757604051633ee5aeb560e01b815260040160405180910390fd5b6002600155565b5f80546001600160a01b038381166001600160a01b0319831681178455604051919092169283917f8be0079c531659141344cd1fd0a4f28419497f9722a3daafe3b4186f6b6457e09190a35050565b6040805160a081018252736b175474e89094c44da98b954eedeac495271d0f815273c02aaa39b223fe8d0a0e5c4f27ead9083c756cc2602082015273dac17f958d2ee523a2206206994597c13d831ec791810191909152732260fac5e5542a773aa44fbcfedf7c193bc2c599606082015273a0b86991c6218b36c1d19d4a2e9eb0ce3606eb4860808201525f5b600581101561076f57836001600160a01b03168282600581106110bf576110bf6115c9565b60200201516001600160a01b031614611223575f8282600581106110e5576110e56115c9565b60200201516040516370a0823160e01b81523060048201529091505f906001600160a01b038316906370a0823190602401602060405180830381865afa158015611131573d5f5f3e3d5ffd5b505050506040513d601f19601f8201168201806040525081019061115591906115dd565b905080156112205760405163095ea7b360e01b81526001600160a01b0386811660048301526024820183905283169063095ea7b3906044016020604051808303815f875af11580156111a9573d5f5f3e3d5ffd5b505050506040513d601f19601f820116820180604052508101906111cd91906115f4565b6112195760405162461bcd60e51b815260206004820152601c60248201527f496e7465726d65646961746520617070726f76616c206661696c65640000000060448201526064016102db565b505061076f565b50505b60010161109a565b5f5f6020838503121561123c575f5ffd5b82356001600160401b03811115611251575f5ffd5b8301601f81018513611261575f5ffd5b80356001600160401b03811115611276575f5ffd5b8560208260051b840101111561128a575f5ffd5b6020919091019590945092505050565b6001600160a01b038116811461055a575f5ffd5b5f602082840312156112be575f5ffd5b81356112c98161129a565b9392505050565b5f5f604083850312156112e1575f5ffd5b50508035926020909101359150565b634e487b7160e01b5f52604160045260245ffd5b604051601f8201601f191681016001600160401b038111828210171561132c5761132c6112f0565b604052919050565b5f6001600160401b0382111561134c5761134c6112f0565b5060051b60200190565b5f82601f830112611365575f5ffd5b813561137861137382611334565b611304565b8082825260208201915060208360051b860101925085831115611399575f5ffd5b602085015b838110156113bf5780356113b18161129a565b83526020928301920161139e565b5095945050505050565b5f82601f8301126113d8575f5ffd5b81356113e661137382611334565b8082825260208201915060208360051b860101925085831115611407575f5ffd5b602085015b838110156113bf57803583526020928301920161140c565b5f6001600160401b0382111561143c5761143c6112f0565b50601f01601f191660200190565b5f82601f830112611459575f5ffd5b813561146761137382611424565b81815284602083860101111561147b575f5ffd5b816020850160208301375f918101602001919091529392505050565b5f5f5f5f608085870312156114aa575f5ffd5b84356001600160401b038111156114bf575f5ffd5b6114cb87828801611356565b94505060208501356001600160401b038111156114e6575f5ffd5b6114f2878288016113c9565b9350506040850135915060608501356001600160401b03811115611514575f5ffd5b6115208782880161144a565b91505092959194509250565b5f5f5f5f6080858703121561153f575f5ffd5b84356001600160401b03811115611554575f5ffd5b61156087828801611356565b94505060208501356001600160401b0381111561157b575f5ffd5b611587878288016113c9565b93505060408501356001600160401b038111156115a2575f5ffd5b6115ae878288016113c9565b92505060608501356001600160401b03811115611514575f5ffd5b634e487b7160e01b5f52603260045260245ffd5b5f602082840312156115ed575f5ffd5b5051919050565b5f60208284031215611604575f5ffd5b815180151581146112c9575f5ffd5b634e487b7160e01b5f52601160045260245ffd5b80820281158282048414176105ec576105ec611613565b5f8261165857634e487b7160e01b5f52601260045260245ffd5b500490565b5f81518084528060208401602086015e5f602082860101526020601f19601f83011685010191505092915050565b6001600160a01b03851681526080602080830182905285519183018290525f919086019060a0840190835b818110156116dd5783516001600160a01b03168352602093840193909201916001016116b6565b50508381036040850152855180825260209182019250908601905f90815b818110156117195783518552602094850194909301926001016116fb565b50505050828103606084015261172f818561165d565b979650505050505050565b805169ffffffffffffffffffff81168114611753575f5ffd5b919050565b5f5f5f5f5f60a0868803121561176c575f5ffd5b6117758661173a565b6020870151604088015160608901519297509095509350915061179a6080870161173a565b90509295509295909350565b818103818111156105ec576105ec611613565b5f82601f8301126117c8575f5ffd5b81516117d661137382611424565b8181528460208386010111156117ea575f5ffd5b8160208501602083015e5f918101602001919091529392505050565b5f5f5f5f60808587031215611819575f5ffd5b84516118248161129a565b60208601519094506001600160401b0381111561183f575f5ffd5b61184b878288016117b9565b935050604085015161185c8161129a565b60608601519092506001600160401b03811115611877575f5ffd5b611520878288016117b9565b5f82518060208501845e5f920191825250919050565b808201808211156105ec576105ec61161356fea26469706673582212209d880b3f78bfef7ed1be0f9bf23fe3d39d247d0a9b5ded982f3f9e38e400735364736f6c634300081d0033","linkReferences":{}},"methodIdentifiers":{"PERMIT2_CONTRACT()":"f840f3fc","emergencyWithdrawMultiple(address[])":"12867764","executeFlashLoan(address[],uint256[],uint256,bytes)":"bce77555","getETHPriceUSD()":"ee69f708","getGasCostUSD(uint256,uint256)":"6f48a6a6","owner()":"8da5cb5b","receiveFlashLoan(address[],uint256[],uint256[],bytes)":"f04f2707","renounceOwnership()":"715018a6","transferOwnership(address)":"f2fde38b","withdraw(address)":"51cff8d9"},"id":0}