{"contracts/BalancerFlashLoanArb.sol":{"BalancerFlashLoanArb":{"abi":[{"type":"constructor","inputs":[{"name":"_vault","type":"address","internalType":"address"}],"stateMutability":"nonpayable"},{"type":"receive","stateMutability":"payable"},{"type":"function","name":"PERMIT2_CONTRACT","inputs":[],"outputs":[{"name":"","type":"address","internalType":"address"}],"stateMutability":"view"},{"type":"function","name":"emergencyWithdrawMultiple","inputs":[{"name":"tokens","type":"address[]","internalType":"address[]"}],"outputs":[],"stateMutability":"nonpayable"},{"type":"function","name":"executeFlashLoan","inputs":[{"name":"tokens","type":"address[]","internalType":"contract IERC20[]"},{"name":"amounts","type":"uint256[]","internalType":"uint256[]"},{"name":"minProfitBps","type":"uint256","internalType":"uint256"},{"name":"swapData","type":"bytes","internalType":"bytes"}],"outputs":[],"stateMutability":"nonpayable"},{"type":"function","name":"getETHPriceUSD","inputs":[],"outputs":[{"name":"price","type":"uint256","internalType":"uint256"}],"stateMutability":"view"},{"type":"function","name":"getGasCostUSD","inputs":[{"name":"gasUsed","type":"uint256","internalType":"uint256"},{"name":"gasPrice","type":"uint256","internalType":"uint256"}],"outputs":[{"name":"gasCostUSD","type":"uint256","internalType":"uint256"}],"stateMutability":"view"},{"type":"function","name":"owner","inputs":[],"outputs":[{"name":"","type":"address","internalType":"address"}],"stateMutability":"view"},{"type":"function","name":"receiveFlashLoan","inputs":[{"name":"tokens","type":"address[]","internalType":"contract IERC20[]"},{"name":"amounts","type":"uint256[]","internalType":"uint256[]"},{"name":"feeAmounts","type":"uint256[]","internalType":"uint256[]"},{"name":"userData","type":"bytes","internalType":"bytes"}],"outputs":[],"stateMutability":"nonpayable"},{"type":"function","name":"renounceOwnership","inputs":[],"outputs":[],"stateMutability":"nonpayable"},{"type":"function","name":"transferOwnership","inputs":[{"name":"newOwner","type":"address","internalType":"address"}],"outputs":[],"stateMutability":"nonpayable"},{"type":"function","name":"withdraw","inputs":[{"name":"tokenAddress","type":"address","internalType":"address"}],"outputs":[],"stateMutability":"nonpayable"},{"type":"event","name":"EmergencyWithdraw","inputs":[{"name":"token","type":"address","indexed":true,"internalType":"address"},{"name":"amount","type":"uint256","indexed":false,"internalType":"uint256"}],"anonymous":false},{"type":"event","name":"FlashLoanExecuted","inputs":[{"name":"token","type":"address","indexed":true,"internalType":"address"},{"name":"amount","type":"uint256","indexed":false,"internalType":"uint256"},{"name":"feeAmount","type":"uint256","indexed":false,"internalType":"uint256"},{"name":"profit","type":"uint256","indexed":false,"internalType":"uint256"}],"anonymous":false},{"type":"event","name":"OwnershipTransferred","inputs":[{"name":"previousOwner","type":"address","indexed":true,"internalType":"address"},{"name":"newOwner","type":"address","indexed":true,"internalType":"address"}],"anonymous":false},{"type":"error","name":"InsufficientProfit","inputs":[]},{"type":"error","name":"InvalidAmount","inputs":[]},{"type":"error","name":"OwnableInvalidOwner","inputs":[{"name":"owner","type":"address","internalType":"address"}]},{"type":"error","name":"OwnableUnauthorizedAccount","inputs":[{"name":"account","type":"address","internalType":"address"}]},{"type":"error","name":"ReentrancyGuardReentrantCall","inputs":[]},{"type":"error","name":"SwapFailed","inputs":[]},{"type":"error","name":"TransferFailed","inputs":[]},{"type":"error","name":"Unauthorized","inputs":[]}],"userdoc":{},"devdoc":{},"evm":{"bytecode":{"object":"60a060405234801561000f575f5ffd5b506040516118ef3803806118ef83398101604081905261002e916100c1565b338061005357604051631e4fbdf760e01b81525f600482015260240160405180910390fd5b61005c81610072565b50600180556001600160a01b03166080526100ee565b5f80546001600160a01b038381166001600160a01b0319831681178455604051919092169283917f8be0079c531659141344cd1fd0a4f28419497f9722a3daafe3b4186f6b6457e09190a35050565b5f602082840312156100d1575f5ffd5b81516001600160a01b03811681146100e7575f5ffd5b9392505050565b6080516117db6101145f395f81816106fe015281816108960152610cfb01526117db5ff3fe608060405260043610610092575f3560e01c8063bce7755511610057578063bce7755514610153578063ee69f70814610172578063f04f270714610186578063f2fde38b146101a5578063f840f3fc146101c4575f5ffd5b8063128677641461009d57806351cff8d9146100be5780636f48a6a6146100dd578063715018a61461010f5780638da5cb5b14610123575f5ffd5b3661009957005b5f5ffd5b3480156100a8575f5ffd5b506100bc6100b7366004611124565b6101e6565b005b3480156100c9575f5ffd5b506100bc6100d83660046111a7565b610282565b3480156100e8575f5ffd5b506100fc6100f73660046111c9565b61055d565b6040519081526020015b60405180910390f35b34801561011a575f5ffd5b506100bc6105f2565b34801561012e575f5ffd5b505f546001600160a01b03165b6040516001600160a01b039091168152602001610106565b34801561015e575f5ffd5b506100bc61016d366004611390565b610605565b34801561017d575f5ffd5b506100fc610775565b348015610191575f5ffd5b506100bc6101a0366004611425565b61088b565b3480156101b0575f5ffd5b506100bc6101bf3660046111a7565b610e27565b3480156101cf575f5ffd5b5061013b6e22d473030f116ddee9f6b43ac78ba381565b6101ee610e61565b5f5b8181101561027d57306351cff8d9848484818110610210576102106114c2565b905060200201602081019061022591906111a7565b6040516001600160e01b031960e084901b1681526001600160a01b0390911660048201526024015f604051808303815f87803b158015610263575f5ffd5b505af1925050508015610274575060015b506001016101f0565b505050565b61028a610e61565b610292610e8d565b6001600160a01b0381166103915747806102e45760405162461bcd60e51b815260206004820152600e60248201526d4e6f204554482062616c616e636560901b60448201526064015b60405180910390fd5b5f80546040516001600160a01b039091169083908381818185875af1925050503d805f811461032e576040519150601f19603f3d011682016040523d82523d5f602084013e610333565b606091505b5050905080610355576040516312171d8360e31b815260040160405180910390fd5b6040518281525f907f5fafa99d0643513820be26656b45130b01e1c03062e1266bf36f88cbd3bd96959060200160405180910390a25050610551565b6040516370a0823160e01b815230600482015281905f906001600160a01b038316906370a0823190602401602060405180830381865afa1580156103d7573d5f5f3e3d5ffd5b505050506040513d601f19601f820116820180604052508101906103fb91906114d6565b90505f811161043f5760405162461bcd60e51b815260206004820152601060248201526f4e6f20746f6b656e2062616c616e636560801b60448201526064016102db565b816001600160a01b031663a9059cbb61045f5f546001600160a01b031690565b6040516001600160e01b031960e084901b1681526001600160a01b039091166004820152602481018490526044016020604051808303815f875af11580156104a9573d5f5f3e3d5ffd5b505050506040513d601f19601f820116820180604052508101906104cd91906114ed565b61050b5760405162461bcd60e51b815260206004820152600f60248201526e151c985b9cd9995c8819985a5b1959608a1b60448201526064016102db565b826001600160a01b03167f5fafa99d0643513820be26656b45130b01e1c03062e1266bf36f88cbd3bd96958260405161054691815260200190565b60405180910390a250505b61055a60018055565b50565b5f5f306001600160a01b031663ee69f7086040518163ffffffff1660e01b8152600401602060405180830381865afa15801561059b573d5f5f3e3d5ffd5b505050506040513d601f19601f820116820180604052508101906105bf91906114d6565b90505f6105cc8486611520565b90506305f5e1006105dd8383611520565b6105e79190611537565b925050505b92915050565b6105fa610e61565b6106035f610eb7565b565b61060d610e61565b610615610e8d565b825184511461065e5760405162461bcd60e51b8152602060048201526015602482015274082e4e4c2f240d8cadccee8d040dad2e6dac2e8c6d605b1b60448201526064016102db565b5f84511161069d5760405162461bcd60e51b815260206004820152600c60248201526b456d7074792061727261797360a01b60448201526064016102db565b6103e88211156106e25760405162461bcd60e51b815260206004820152601060248201526f4d61782031302520736c69707061676560801b60448201526064016102db565b6002829055604051632e1c224f60e11b81526001600160a01b037f00000000000000000000000000000000000000000000000000000000000000001690635c38449e90610739903090889088908790600401611584565b5f604051808303815f87803b158015610750575f5ffd5b505af1158015610762573d5f5f3e3d5ffd5b5050505061076f60018055565b50505050565b5f5f5f735f4ec3df9cbd43714fe2740f5e3616155c5b84196001600160a01b031663feaf968c6040518163ffffffff1660e01b815260040160a060405180830381865afa1580156107c8573d5f5f3e3d5ffd5b505050506040513d601f19601f820116820180604052508101906107ec9190611651565b50935050925050620151808142610803919061169f565b11156108465760405162461bcd60e51b8152602060048201526012602482015271141c9a58d94819185d18481d1bdbc81bdb1960721b60448201526064016102db565b5f82136108855760405162461bcd60e51b815260206004820152600d60248201526c496e76616c696420707269636560981b60448201526064016102db565b50919050565b336001600160a01b037f000000000000000000000000000000000000000000000000000000000000000016146108d3576040516282b42960e81b815260040160405180910390fd5b5f845f815181106108e6576108e66114c2565b602002602001015190505f845f81518110610903576109036114c2565b60209081029190910101516040516370a0823160e01b81523060048201529091505f906001600160a01b038416906370a0823190602401602060405180830381865afa158015610955573d5f5f3e3d5ffd5b505050506040513d601f19601f8201168201806040525081019061097991906114d6565b90505f5f5f5f8780602001905181019061099391906116ff565b60405163095ea7b360e01b81526001600160a01b038086166004830152602482018c905294985092965090945092509088169063095ea7b3906044016020604051808303815f875af11580156109eb573d5f5f3e3d5ffd5b505050506040513d601f19601f82011682018060405250810190610a0f91906114ed565b610a4d5760405162461bcd60e51b815260206004820152600f60248201526e105c1c1c9bdd985b0819985a5b1959608a1b60448201526064016102db565b5f846001600160a01b031684604051610a66919061177c565b5f604051808303815f865af19150503d805f8114610a9f576040519150601f19603f3d011682016040523d82523d5f602084013e610aa4565b606091505b5050905080610ac65760405163081ceff360e41b815260040160405180910390fd5b610ad08884610f06565b5f836001600160a01b031683604051610ae9919061177c565b5f604051808303815f865af19150503d805f8114610b22576040519150601f19603f3d011682016040523d82523d5f602084013e610b27565b606091505b5050905080610b495760405163081ceff360e41b815260040160405180910390fd5b60405163095ea7b360e01b81526001600160a01b0387811660048301525f60248301528a169063095ea7b3906044016020604051808303815f875af1158015610b94573d5f5f3e3d5ffd5b505050506040513d601f19601f82011682018060405250810190610bb891906114ed565b610bfc5760405162461bcd60e51b8152602060048201526015602482015274105c1c1c9bdd985b081c995cd95d0819985a5b1959605a1b60448201526064016102db565b6040516370a0823160e01b81523060048201525f906001600160a01b038b16906370a0823190602401602060405180830381865afa158015610c40573d5f5f3e3d5ffd5b505050506040513d601f19601f82011682018060405250810190610c6491906114d6565b90505f612710600254612710610c7a919061169f565b610c84908c611520565b610c8e9190611537565b610c98908a611792565b905080821015610cbb57604051632723fc7560e11b815260040160405180910390fd5b610cc58a8a611792565b8211610ce457604051632723fc7560e11b815260040160405180910390fd5b60405163a9059cbb60e01b81526001600160a01b037f000000000000000000000000000000000000000000000000000000000000000081166004830152602482018c90528c169063a9059cbb906044016020604051808303815f875af1158015610d50573d5f5f3e3d5ffd5b505050506040513d601f19601f82011682018060405250810190610d7491906114ed565b610db25760405162461bcd60e51b815260206004820152600f60248201526e151c985b9cd9995c8819985a5b1959608a1b60448201526064016102db565b5f610dbd8b8b611792565b610dc7908461169f565b604080518d81525f60208201529081018290529091506001600160a01b038d16907fe03a36d920ad8de5a978a8f1917280e202ae9193e6dc19e08ef1f6c2a051eba49060600160405180910390a250505050505050505050505050505050565b610e2f610e61565b6001600160a01b038116610e5857604051631e4fbdf760e01b81525f60048201526024016102db565b61055a81610eb7565b5f546001600160a01b031633146106035760405163118cdaa760e01b81523360048201526024016102db565b600260015403610eb057604051633ee5aeb560e01b815260040160405180910390fd5b6002600155565b5f80546001600160a01b038381166001600160a01b0319831681178455604051919092169283917f8be0079c531659141344cd1fd0a4f28419497f9722a3daafe3b4186f6b6457e09190a35050565b6040805160a081018252736b175474e89094c44da98b954eedeac495271d0f815273c02aaa39b223fe8d0a0e5c4f27ead9083c756cc2602082015273dac17f958d2ee523a2206206994597c13d831ec791810191909152732260fac5e5542a773aa44fbcfedf7c193bc2c599606082015273a0b86991c6218b36c1d19d4a2e9eb0ce3606eb4860808201525f5b600581101561076f57836001600160a01b0316828260058110610fb857610fb86114c2565b60200201516001600160a01b03161461111c575f828260058110610fde57610fde6114c2565b60200201516040516370a0823160e01b81523060048201529091505f906001600160a01b038316906370a0823190602401602060405180830381865afa15801561102a573d5f5f3e3d5ffd5b505050506040513d601f19601f8201168201806040525081019061104e91906114d6565b905080156111195760405163095ea7b360e01b81526001600160a01b0386811660048301526024820183905283169063095ea7b3906044016020604051808303815f875af11580156110a2573d5f5f3e3d5ffd5b505050506040513d601f19601f820116820180604052508101906110c691906114ed565b6111125760405162461bcd60e51b815260206004820152601c60248201527f496e7465726d65646961746520617070726f76616c206661696c65640000000060448201526064016102db565b505061076f565b50505b600101610f93565b5f5f60208385031215611135575f5ffd5b82356001600160401b0381111561114a575f5ffd5b8301601f8101851361115a575f5ffd5b80356001600160401b0381111561116f575f5ffd5b8560208260051b8401011115611183575f5ffd5b6020919091019590945092505050565b6001600160a01b038116811461055a575f5ffd5b5f602082840312156111b7575f5ffd5b81356111c281611193565b9392505050565b5f5f604083850312156111da575f5ffd5b50508035926020909101359150565b634e487b7160e01b5f52604160045260245ffd5b604051601f8201601f191681016001600160401b0381118282101715611225576112256111e9565b604052919050565b5f6001600160401b03821115611245576112456111e9565b5060051b60200190565b5f82601f83011261125e575f5ffd5b813561127161126c8261122d565b6111fd565b8082825260208201915060208360051b860101925085831115611292575f5ffd5b602085015b838110156112b85780356112aa81611193565b835260209283019201611297565b5095945050505050565b5f82601f8301126112d1575f5ffd5b81356112df61126c8261122d565b8082825260208201915060208360051b860101925085831115611300575f5ffd5b602085015b838110156112b8578035835260209283019201611305565b5f6001600160401b03821115611335576113356111e9565b50601f01601f191660200190565b5f82601f830112611352575f5ffd5b813561136061126c8261131d565b818152846020838601011115611374575f5ffd5b816020850160208301375f918101602001919091529392505050565b5f5f5f5f608085870312156113a3575f5ffd5b84356001600160401b038111156113b8575f5ffd5b6113c48782880161124f565b94505060208501356001600160401b038111156113df575f5ffd5b6113eb878288016112c2565b9350506040850135915060608501356001600160401b0381111561140d575f5ffd5b61141987828801611343565b91505092959194509250565b5f5f5f5f60808587031215611438575f5ffd5b84356001600160401b0381111561144d575f5ffd5b6114598782880161124f565b94505060208501356001600160401b03811115611474575f5ffd5b611480878288016112c2565b93505060408501356001600160401b0381111561149b575f5ffd5b6114a7878288016112c2565b92505060608501356001600160401b0381111561140d575f5ffd5b634e487b7160e01b5f52603260045260245ffd5b5f602082840312156114e6575f5ffd5b5051919050565b5f602082840312156114fd575f5ffd5b815180151581146111c2575f5ffd5b634e487b7160e01b5f52601160045260245ffd5b80820281158282048414176105ec576105ec61150c565b5f8261155157634e487b7160e01b5f52601260045260245ffd5b500490565b5f81518084528060208401602086015e5f602082860101526020601f19601f83011685010191505092915050565b6001600160a01b03851681526080602080830182905285519183018290525f919086019060a0840190835b818110156115d65783516001600160a01b03168352602093840193909201916001016115af565b50508381036040850152855180825260209182019250908601905f90815b818110156116125783518552602094850194909301926001016115f4565b5050505082810360608401526116288185611556565b979650505050505050565b805169ffffffffffffffffffff8116811461164c575f5ffd5b919050565b5f5f5f5f5f60a08688031215611665575f5ffd5b61166e86611633565b6020870151604088015160608901519297509095509350915061169360808701611633565b90509295509295909350565b818103818111156105ec576105ec61150c565b5f82601f8301126116c1575f5ffd5b81516116cf61126c8261131d565b8181528460208386010111156116e3575f5ffd5b8160208501602083015e5f918101602001919091529392505050565b5f5f5f5f60808587031215611712575f5ffd5b845161171d81611193565b60208601519094506001600160401b03811115611738575f5ffd5b611744878288016116b2565b935050604085015161175581611193565b60608601519092506001600160401b03811115611770575f5ffd5b611419878288016116b2565b5f82518060208501845e5f920191825250919050565b808201808211156105ec576105ec61150c56fea26469706673582212200bd883d3aac124b848a365f96be8017c751d26e3ce90b179930b364f21b6090164736f6c634300081d0033","linkReferences":{}},"methodIdentifiers":{"PERMIT2_CONTRACT()":"f840f3fc","emergencyWithdrawMultiple(address[])":"12867764","executeFlashLoan(address[],uint256[],uint256,bytes)":"bce77555","getETHPriceUSD()":"ee69f708","getGasCostUSD(uint256,uint256)":"6f48a6a6","owner()":"8da5cb5b","receiveFlashLoan(address[],uint256[],uint256[],bytes)":"f04f2707","renounceOwnership()":"715018a6","transferOwnership(address)":"f2fde38b","withdraw(address)":"51cff8d9"}}}}}