{
  "_format": "hh-sol-artifact-1",
  "contractName": "FlashLoanArb",
  "sourceName": "contracts/FlashLoanArb.sol",
  "abi": [
    {
      "inputs": [
        {
          "internalType": "address",
          "name": "provider",
          "type": "address"
        }
      ],
      "stateMutability": "nonpayable",
      "type": "constructor"
    },
    {
      "inputs": [],
      "name": "ADDRESSES_PROVIDER",
      "outputs": [
        {
          "internalType": "contract IPoolAddressesProvider",
          "name": "",
          "type": "address"
        }
      ],
      "stateMutability": "view",
      "type": "function"
    },
    {
      "inputs": [],
      "name": "POOL",
      "outputs": [
        {
          "internalType": "contract IPool",
          "name": "",
          "type": "address"
        }
      ],
      "stateMutability": "view",
      "type": "function"
    },
    {
      "inputs": [
        {
          "internalType": "address",
          "name": "asset",
          "type": "address"
        },
        {
          "internalType": "uint256",
          "name": "amount",
          "type": "uint256"
        },
        {
          "internalType": "uint256",
          "name": "premium",
          "type": "uint256"
        },
        {
          "internalType": "address",
          "name": "",
          "type": "address"
        },
        {
          "internalType": "bytes",
          "name": "oneInchData",
          "type": "bytes"
        }
      ],
      "name": "executeOperation",
      "outputs": [
        {
          "internalType": "bool",
          "name": "",
          "type": "bool"
        }
      ],
      "stateMutability": "nonpayable",
      "type": "function"
    },
    {
      "inputs": [],
      "name": "owner",
      "outputs": [
        {
          "internalType": "address",
          "name": "",
          "type": "address"
        }
      ],
      "stateMutability": "view",
      "type": "function"
    },
    {
      "inputs": [
        {
          "internalType": "address",
          "name": "asset",
          "type": "address"
        },
        {
          "internalType": "uint256",
          "name": "amount",
          "type": "uint256"
        },
        {
          "internalType": "bytes",
          "name": "oneInchData",
          "type": "bytes"
        }
      ],
      "name": "start",
      "outputs": [],
      "stateMutability": "nonpayable",
      "type": "function"
    },
    {
      "inputs": [
        {
          "internalType": "address",
          "name": "token",
          "type": "address"
        }
      ],
      "name": "withdraw",
      "outputs": [],
      "stateMutability": "nonpayable",
      "type": "function"
    }
  ],
  "bytecode": "0x60c060405234801561001057600080fd5b5060405162000ec038038062000ec0833981810160405281019061003491906101b5565b808073ffffffffffffffffffffffffffffffffffffffff1660808173ffffffffffffffffffffffffffffffffffffffff16815250508073ffffffffffffffffffffffffffffffffffffffff1663026b1d5f6040518163ffffffff1660e01b8152600401602060405180830381865afa1580156100b4573d6000803e3d6000fd5b505050506040513d601f19601f820116820180604052508101906100d891906101b5565b73ffffffffffffffffffffffffffffffffffffffff1660a08173ffffffffffffffffffffffffffffffffffffffff168152505050336000806101000a81548173ffffffffffffffffffffffffffffffffffffffff021916908373ffffffffffffffffffffffffffffffffffffffff160217905550506101e2565b600080fd5b600073ffffffffffffffffffffffffffffffffffffffff82169050919050565b600061018282610157565b9050919050565b61019281610177565b811461019d57600080fd5b50565b6000815190506101af81610189565b92915050565b6000602082840312156101cb576101ca610152565b5b60006101d9848285016101a0565b91505092915050565b60805160a051610caa620002166000396000818161023f01528181610445015261051b0152600061012b0152610caa6000f3fe608060405234801561001057600080fd5b50600436106100625760003560e01c80630542975c146100675780631b11d0ff1461008557806351cff8d9146100b55780637535d246146100d15780638da5cb5b146100ef578063c67a44391461010d575b600080fd5b61006f610129565b60405161007c9190610634565b60405180910390f35b61009f600480360381019061009a9190610732565b61014d565b6040516100ac91906107e7565b60405180910390f35b6100cf60048036038101906100ca9190610802565b6102d0565b005b6100d9610443565b6040516100e69190610850565b60405180910390f35b6100f7610467565b604051610104919061087a565b60405180910390f35b61012760048036038101906101229190610895565b61048b565b005b7f000000000000000000000000000000000000000000000000000000000000000081565b600080731111111254eeb25477b68fb85ed929f73a96058273ffffffffffffffffffffffffffffffffffffffff16848460405161018b929190610948565b6000604051808303816000865af19150503d80600081146101c8576040519150601f19603f3d011682016040523d82523d6000602084013e6101cd565b606091505b5050905080610211576040517f08c379a0000000000000000000000000000000000000000000000000000000008152600401610208906109be565b60405180910390fd5b6000868861021f9190610a0d565b90508873ffffffffffffffffffffffffffffffffffffffff1663095ea7b37f0000000000000000000000000000000000000000000000000000000000000000836040518363ffffffff1660e01b815260040161027c929190610a50565b6020604051808303816000875af115801561029b573d6000803e3d6000fd5b505050506040513d601f19601f820116820180604052508101906102bf9190610aa5565b506001925050509695505050505050565b60008054906101000a900473ffffffffffffffffffffffffffffffffffffffff1673ffffffffffffffffffffffffffffffffffffffff163373ffffffffffffffffffffffffffffffffffffffff161461032857600080fd5b8073ffffffffffffffffffffffffffffffffffffffff1663a9059cbb60008054906101000a900473ffffffffffffffffffffffffffffffffffffffff168373ffffffffffffffffffffffffffffffffffffffff166370a08231306040518263ffffffff1660e01b815260040161039e919061087a565b602060405180830381865afa1580156103bb573d6000803e3d6000fd5b505050506040513d601f19601f820116820180604052508101906103df9190610ae7565b6040518363ffffffff1660e01b81526004016103fc929190610a50565b6020604051808303816000875af115801561041b573d6000803e3d6000fd5b505050506040513d601f19601f8201168201806040525081019061043f9190610aa5565b5050565b7f000000000000000000000000000000000000000000000000000000000000000081565b60008054906101000a900473ffffffffffffffffffffffffffffffffffffffff1681565b60008054906101000a900473ffffffffffffffffffffffffffffffffffffffff1673ffffffffffffffffffffffffffffffffffffffff163373ffffffffffffffffffffffffffffffffffffffff1614610519576040517f08c379a000000000000000000000000000000000000000000000000000000000815260040161051090610b60565b60405180910390fd5b7f000000000000000000000000000000000000000000000000000000000000000073ffffffffffffffffffffffffffffffffffffffff166342b0b77c308686868660006040518763ffffffff1660e01b815260040161057d96959493929190610c18565b600060405180830381600087803b15801561059757600080fd5b505af11580156105ab573d6000803e3d6000fd5b5050505050505050565b600073ffffffffffffffffffffffffffffffffffffffff82169050919050565b6000819050919050565b60006105fa6105f56105f0846105b5565b6105d5565b6105b5565b9050919050565b600061060c826105df565b9050919050565b600061061e82610601565b9050919050565b61062e81610613565b82525050565b60006020820190506106496000830184610625565b92915050565b600080fd5b600080fd5b6000610664826105b5565b9050919050565b61067481610659565b811461067f57600080fd5b50565b6000813590506106918161066b565b92915050565b6000819050919050565b6106aa81610697565b81146106b557600080fd5b50565b6000813590506106c7816106a1565b92915050565b600080fd5b600080fd5b600080fd5b60008083601f8401126106f2576106f16106cd565b5b8235905067ffffffffffffffff81111561070f5761070e6106d2565b5b60208301915083600182028301111561072b5761072a6106d7565b5b9250929050565b60008060008060008060a0878903121561074f5761074e61064f565b5b600061075d89828a01610682565b965050602061076e89828a016106b8565b955050604061077f89828a016106b8565b945050606061079089828a01610682565b935050608087013567ffffffffffffffff8111156107b1576107b0610654565b5b6107bd89828a016106dc565b92509250509295509295509295565b60008115159050919050565b6107e1816107cc565b82525050565b60006020820190506107fc60008301846107d8565b92915050565b6000602082840312156108185761081761064f565b5b600061082684828501610682565b91505092915050565b600061083a82610601565b9050919050565b61084a8161082f565b82525050565b60006020820190506108656000830184610841565b92915050565b61087481610659565b82525050565b600060208201905061088f600083018461086b565b92915050565b600080600080606085870312156108af576108ae61064f565b5b60006108bd87828801610682565b94505060206108ce878288016106b8565b935050604085013567ffffffffffffffff8111156108ef576108ee610654565b5b6108fb878288016106dc565b925092505092959194509250565b600081905092915050565b82818337600083830152505050565b600061092f8385610909565b935061093c838584610914565b82840190509392505050565b6000610955828486610923565b91508190509392505050565b600082825260208201905092915050565b7f73776170206661696c6564000000000000000000000000000000000000000000600082015250565b60006109a8600b83610961565b91506109b382610972565b602082019050919050565b600060208201905081810360008301526109d78161099b565b9050919050565b7f4e487b7100000000000000000000000000000000000000000000000000000000600052601160045260246000fd5b6000610a1882610697565b9150610a2383610697565b9250828201905080821115610a3b57610a3a6109de565b5b92915050565b610a4a81610697565b82525050565b6000604082019050610a65600083018561086b565b610a726020830184610a41565b9392505050565b610a82816107cc565b8114610a8d57600080fd5b50565b600081519050610a9f81610a79565b92915050565b600060208284031215610abb57610aba61064f565b5b6000610ac984828501610a90565b91505092915050565b600081519050610ae1816106a1565b92915050565b600060208284031215610afd57610afc61064f565b5b6000610b0b84828501610ad2565b91505092915050565b7f6f6e6c79206f776e657200000000000000000000000000000000000000000000600082015250565b6000610b4a600a83610961565b9150610b5582610b14565b602082019050919050565b60006020820190508181036000830152610b7981610b3d565b9050919050565b600082825260208201905092915050565b6000601f19601f8301169050919050565b6000610bae8385610b80565b9350610bbb838584610914565b610bc483610b91565b840190509392505050565b6000819050919050565b600061ffff82169050919050565b6000610c02610bfd610bf884610bcf565b6105d5565b610bd9565b9050919050565b610c1281610be7565b82525050565b600060a082019050610c2d600083018961086b565b610c3a602083018861086b565b610c476040830187610a41565b8181036060830152610c5a818587610ba2565b9050610c696080830184610c09565b97965050505050505056fea264697066735822122034e713c56da64086893e783016ccb129900ee4245c48d8c408650f2be889004564736f6c63430008140033",
  "linkReferences": {},
  "deployedLinkReferences": {}
}