{
  "_format": "hh-sol-artifact-1",
  "contractName": "BalancerFlashLoanArb",
  "sourceName": "contracts/BalancerFlashLoanArb.sol",
  "abi": [
    {
      "inputs": [
        {
          "internalType": "address",
          "name": "_vault",
          "type": "address"
        }
      ],
      "stateMutability": "nonpayable",
      "type": "constructor"
    },
    {
      "inputs": [],
      "name": "InsufficientProfit",
      "type": "error"
    },
    {
      "inputs": [],
      "name": "InvalidAmount",
      "type": "error"
    },
    {
      "inputs": [
        {
          "internalType": "address",
          "name": "owner",
          "type": "address"
        }
      ],
      "name": "OwnableInvalidOwner",
      "type": "error"
    },
    {
      "inputs": [
        {
          "internalType": "address",
          "name": "account",
          "type": "address"
        }
      ],
      "name": "OwnableUnauthorizedAccount",
      "type": "error"
    },
    {
      "inputs": [],
      "name": "ReentrancyGuardReentrantCall",
      "type": "error"
    },
    {
      "inputs": [],
      "name": "SwapFailed",
      "type": "error"
    },
    {
      "inputs": [],
      "name": "TransferFailed",
      "type": "error"
    },
    {
      "inputs": [],
      "name": "Unauthorized",
      "type": "error"
    },
    {
      "anonymous": false,
      "inputs": [
        {
          "indexed": true,
          "internalType": "address",
          "name": "token",
          "type": "address"
        },
        {
          "indexed": false,
          "internalType": "uint256",
          "name": "amount",
          "type": "uint256"
        }
      ],
      "name": "EmergencyWithdraw",
      "type": "event"
    },
    {
      "anonymous": false,
      "inputs": [
        {
          "indexed": true,
          "internalType": "address",
          "name": "token",
          "type": "address"
        },
        {
          "indexed": false,
          "internalType": "uint256",
          "name": "amount",
          "type": "uint256"
        },
        {
          "indexed": false,
          "internalType": "uint256",
          "name": "feeAmount",
          "type": "uint256"
        },
        {
          "indexed": false,
          "internalType": "uint256",
          "name": "profit",
          "type": "uint256"
        }
      ],
      "name": "FlashLoanExecuted",
      "type": "event"
    },
    {
      "anonymous": false,
      "inputs": [
        {
          "indexed": true,
          "internalType": "address",
          "name": "previousOwner",
          "type": "address"
        },
        {
          "indexed": true,
          "internalType": "address",
          "name": "newOwner",
          "type": "address"
        }
      ],
      "name": "OwnershipTransferred",
      "type": "event"
    },
    {
      "inputs": [],
      "name": "PERMIT2_CONTRACT",
      "outputs": [
        {
          "internalType": "address",
          "name": "",
          "type": "address"
        }
      ],
      "stateMutability": "view",
      "type": "function"
    },
    {
      "inputs": [
        {
          "internalType": "address[]",
          "name": "tokens",
          "type": "address[]"
        }
      ],
      "name": "emergencyWithdrawMultiple",
      "outputs": [],
      "stateMutability": "nonpayable",
      "type": "function"
    },
    {
      "inputs": [
        {
          "internalType": "contract IERC20[]",
          "name": "tokens",
          "type": "address[]"
        },
        {
          "internalType": "uint256[]",
          "name": "amounts",
          "type": "uint256[]"
        },
        {
          "internalType": "bytes",
          "name": "swapData",
          "type": "bytes"
        }
      ],
      "name": "executeFlashLoan",
      "outputs": [],
      "stateMutability": "nonpayable",
      "type": "function"
    },
    {
      "inputs": [],
      "name": "owner",
      "outputs": [
        {
          "internalType": "address",
          "name": "",
          "type": "address"
        }
      ],
      "stateMutability": "view",
      "type": "function"
    },
    {
      "inputs": [
        {
          "internalType": "contract IERC20[]",
          "name": "tokens",
          "type": "address[]"
        },
        {
          "internalType": "uint256[]",
          "name": "amounts",
          "type": "uint256[]"
        },
        {
          "internalType": "uint256[]",
          "name": "feeAmounts",
          "type": "uint256[]"
        },
        {
          "internalType": "bytes",
          "name": "userData",
          "type": "bytes"
        }
      ],
      "name": "receiveFlashLoan",
      "outputs": [],
      "stateMutability": "nonpayable",
      "type": "function"
    },
    {
      "inputs": [],
      "name": "renounceOwnership",
      "outputs": [],
      "stateMutability": "nonpayable",
      "type": "function"
    },
    {
      "inputs": [
        {
          "internalType": "address",
          "name": "newOwner",
          "type": "address"
        }
      ],
      "name": "transferOwnership",
      "outputs": [],
      "stateMutability": "nonpayable",
      "type": "function"
    },
    {
      "inputs": [
        {
          "internalType": "address",
          "name": "tokenAddress",
          "type": "address"
        }
      ],
      "name": "withdraw",
      "outputs": [],
      "stateMutability": "nonpayable",
      "type": "function"
    },
    {
      "stateMutability": "payable",
      "type": "receive"
    }
  ],
  "bytecode": "0x60a060405234801561001057600080fd5b5060405161163938038061163983398101604081905261002f916100c4565b338061005557604051631e4fbdf760e01b81526000600482015260240160405180910390fd5b61005e81610074565b50600180556001600160a01b03166080526100f4565b600080546001600160a01b038381166001600160a01b0319831681178455604051919092169283917f8be0079c531659141344cd1fd0a4f28419497f9722a3daafe3b4186f6b6457e09190a35050565b6000602082840312156100d657600080fd5b81516001600160a01b03811681146100ed57600080fd5b9392505050565b60805161151c61011d600039600081816105d3015281816106540152610a3b015261151c6000f3fe60806040526004361061007f5760003560e01c80638da5cb5b1161004e5780638da5cb5b14610102578063f04f270714610138578063f2fde38b14610158578063f840f3fc1461017857600080fd5b8063128677641461008b57806351cff8d9146100ad578063715018a6146100cd57806376ec49ba146100e257600080fd5b3661008657005b600080fd5b34801561009757600080fd5b506100ab6100a6366004610e8c565b61019b565b005b3480156100b957600080fd5b506100ab6100c8366004610f16565b610245565b3480156100d957600080fd5b506100ab61050f565b3480156100ee57600080fd5b506100ab6100fd3660046110ed565b610523565b34801561010e57600080fd5b506000546001600160a01b03165b6040516001600160a01b03909116815260200160405180910390f35b34801561014457600080fd5b506100ab610153366004611175565b610649565b34801561016457600080fd5b506100ab610173366004610f16565b610b6d565b34801561018457600080fd5b5061011c6e22d473030f116ddee9f6b43ac78ba381565b6101a3610ba8565b60005b8181101561024057306351cff8d98484848181106101c6576101c6611222565b90506020020160208101906101db9190610f16565b6040516001600160e01b031960e084901b1681526001600160a01b039091166004820152602401600060405180830381600087803b15801561021c57600080fd5b505af192505050801561022d575060015b50806102388161124e565b9150506101a6565b505050565b61024d610ba8565b6001600160a01b03811661034f57478061029f5760405162461bcd60e51b815260206004820152600e60248201526d4e6f204554482062616c616e636560901b60448201526064015b60405180910390fd5b600080546040516001600160a01b039091169083908381818185875af1925050503d80600081146102ec576040519150601f19603f3d011682016040523d82523d6000602084013e6102f1565b606091505b5050905080610313576040516312171d8360e31b815260040160405180910390fd5b6040518281526000907f5fafa99d0643513820be26656b45130b01e1c03062e1266bf36f88cbd3bd9695906020015b60405180910390a2505050565b6040516370a0823160e01b815230600482015281906000906001600160a01b038316906370a0823190602401602060405180830381865afa158015610398573d6000803e3d6000fd5b505050506040513d601f19601f820116820180604052508101906103bc9190611267565b9050600081116104015760405162461bcd60e51b815260206004820152601060248201526f4e6f20746f6b656e2062616c616e636560801b6044820152606401610296565b816001600160a01b031663a9059cbb6104226000546001600160a01b031690565b6040516001600160e01b031960e084901b1681526001600160a01b039091166004820152602481018490526044016020604051808303816000875af115801561046f573d6000803e3d6000fd5b505050506040513d601f19601f820116820180604052508101906104939190611280565b6104d15760405162461bcd60e51b815260206004820152600f60248201526e151c985b9cd9995c8819985a5b1959608a1b6044820152606401610296565b826001600160a01b03167f5fafa99d0643513820be26656b45130b01e1c03062e1266bf36f88cbd3bd96958260405161034291815260200190565b50565b610517610ba8565b6105216000610bd5565b565b61052b610ba8565b610533610c25565b815183511461057c5760405162461bcd60e51b8152602060048201526015602482015274082e4e4c2f240d8cadccee8d040dad2e6dac2e8c6d605b1b6044820152606401610296565b60008351116105bc5760405162461bcd60e51b815260206004820152600c60248201526b456d7074792061727261797360a01b6044820152606401610296565b604051632e1c224f60e11b81526001600160a01b037f00000000000000000000000000000000000000000000000000000000000000001690635c38449e9061060e9030908790879087906004016112f2565b600060405180830381600087803b15801561062857600080fd5b505af115801561063c573d6000803e3d6000fd5b5050505061024060018055565b336001600160a01b037f00000000000000000000000000000000000000000000000000000000000000001614610691576040516282b42960e81b815260040160405180910390fd5b6000846000815181106106a6576106a6611222565b602002602001015190506000846000815181106106c5576106c5611222565b602002602001015190506000846000815181106106e4576106e4611222565b60209081029190910101516040516370a0823160e01b81523060048201529091506000906001600160a01b038516906370a0823190602401602060405180830381865afa158015610739573d6000803e3d6000fd5b505050506040513d601f19601f8201168201806040525081019061075d9190611267565b90506000806000808880602001905181019061077991906113e6565b60405163095ea7b360e01b81526e22d473030f116ddee9f6b43ac78ba36004820152602481018c9052939750919550935091506001600160a01b0389169063095ea7b3906044016020604051808303816000875af11580156107df573d6000803e3d6000fd5b505050506040513d601f19601f820116820180604052508101906108039190611280565b6108415760405162461bcd60e51b815260206004820152600f60248201526e105c1c1c9bdd985b0819985a5b1959608a1b6044820152606401610296565b6000846001600160a01b03168460405161085b9190611465565b6000604051808303816000865af19150503d8060008114610898576040519150601f19603f3d011682016040523d82523d6000602084013e61089d565b606091505b50509050806108bf5760405163081ceff360e41b815260040160405180910390fd5b6108c889610c4f565b6000836001600160a01b0316836040516108e29190611465565b6000604051808303816000865af19150503d806000811461091f576040519150601f19603f3d011682016040523d82523d6000602084013e610924565b606091505b50509050806109465760405163081ceff360e41b815260040160405180910390fd5b6040516370a0823160e01b81523060048201526000906001600160a01b038c16906370a0823190602401602060405180830381865afa15801561098d573d6000803e3d6000fd5b505050506040513d601f19601f820116820180604052508101906109b19190611267565b905060006103e86109c48c6103e3611481565b6109ce919061149e565b6109d8908a6114c0565b9050808210156109fb57604051632723fc7560e11b815260040160405180910390fd5b610a058b8a6114c0565b8211610a2457604051632723fc7560e11b815260040160405180910390fd5b60405163a9059cbb60e01b81526001600160a01b037f000000000000000000000000000000000000000000000000000000000000000081166004830152602482018d90528d169063a9059cbb906044016020604051808303816000875af1158015610a93573d6000803e3d6000fd5b505050506040513d601f19601f82011682018060405250810190610ab79190611280565b610af55760405162461bcd60e51b815260206004820152600f60248201526e151c985b9cd9995c8819985a5b1959608a1b6044820152606401610296565b6000610b018c8b6114c0565b610b0b90846114d3565b604080518e8152600060208201529081018290529091506001600160a01b038e16907fe03a36d920ad8de5a978a8f1917280e202ae9193e6dc19e08ef1f6c2a051eba49060600160405180910390a25050505050505050505050505050505050565b610b75610ba8565b6001600160a01b038116610b9f57604051631e4fbdf760e01b815260006004820152602401610296565b61050c81610bd5565b6000546001600160a01b031633146105215760405163118cdaa760e01b8152336004820152602401610296565b600080546001600160a01b038381166001600160a01b0319831681178455604051919092169283917f8be0079c531659141344cd1fd0a4f28419497f9722a3daafe3b4186f6b6457e09190a35050565b600260015403610c4857604051633ee5aeb560e01b815260040160405180910390fd5b6002600155565b6040805160a081018252736b175474e89094c44da98b954eedeac495271d0f815273c02aaa39b223fe8d0a0e5c4f27ead9083c756cc2602082015273dac17f958d2ee523a2206206994597c13d831ec791810191909152732260fac5e5542a773aa44fbcfedf7c193bc2c599606082015273a0b86991c6218b36c1d19d4a2e9eb0ce3606eb48608082015260005b600581101561024057826001600160a01b0316828260058110610d0257610d02611222565b60200201516001600160a01b031614610e7a576000828260058110610d2957610d29611222565b60200201516040516370a0823160e01b81523060048201529091506000906001600160a01b038316906370a0823190602401602060405180830381865afa158015610d78573d6000803e3d6000fd5b505050506040513d601f19601f82011682018060405250810190610d9c9190611267565b90508015610e775760405163095ea7b360e01b81526e22d473030f116ddee9f6b43ac78ba36004820152602481018290526001600160a01b0383169063095ea7b3906044016020604051808303816000875af1158015610e00573d6000803e3d6000fd5b505050506040513d601f19601f82011682018060405250810190610e249190611280565b610e705760405162461bcd60e51b815260206004820152601c60248201527f496e7465726d65646961746520617070726f76616c206661696c6564000000006044820152606401610296565b5050505050565b50505b80610e848161124e565b915050610cdd565b60008060208385031215610e9f57600080fd5b823567ffffffffffffffff80821115610eb757600080fd5b818501915085601f830112610ecb57600080fd5b813581811115610eda57600080fd5b8660208260051b8501011115610eef57600080fd5b60209290920196919550909350505050565b6001600160a01b038116811461050c57600080fd5b600060208284031215610f2857600080fd5b8135610f3381610f01565b9392505050565b634e487b7160e01b600052604160045260246000fd5b604051601f8201601f1916810167ffffffffffffffff81118282101715610f7957610f79610f3a565b604052919050565b600067ffffffffffffffff821115610f9b57610f9b610f3a565b5060051b60200190565b600082601f830112610fb657600080fd5b81356020610fcb610fc683610f81565b610f50565b82815260059290921b84018101918181019086841115610fea57600080fd5b8286015b8481101561100e57803561100181610f01565b8352918301918301610fee565b509695505050505050565b600082601f83011261102a57600080fd5b8135602061103a610fc683610f81565b82815260059290921b8401810191818101908684111561105957600080fd5b8286015b8481101561100e578035835291830191830161105d565b600067ffffffffffffffff82111561108e5761108e610f3a565b50601f01601f191660200190565b600082601f8301126110ad57600080fd5b81356110bb610fc682611074565b8181528460208386010111156110d057600080fd5b816020850160208301376000918101602001919091529392505050565b60008060006060848603121561110257600080fd5b833567ffffffffffffffff8082111561111a57600080fd5b61112687838801610fa5565b9450602086013591508082111561113c57600080fd5b61114887838801611019565b9350604086013591508082111561115e57600080fd5b5061116b8682870161109c565b9150509250925092565b6000806000806080858703121561118b57600080fd5b843567ffffffffffffffff808211156111a357600080fd5b6111af88838901610fa5565b955060208701359150808211156111c557600080fd5b6111d188838901611019565b945060408701359150808211156111e757600080fd5b6111f388838901611019565b9350606087013591508082111561120957600080fd5b506112168782880161109c565b91505092959194509250565b634e487b7160e01b600052603260045260246000fd5b634e487b7160e01b600052601160045260246000fd5b60006001820161126057611260611238565b5060010190565b60006020828403121561127957600080fd5b5051919050565b60006020828403121561129257600080fd5b81518015158114610f3357600080fd5b60005b838110156112bd5781810151838201526020016112a5565b50506000910152565b600081518084526112de8160208601602086016112a2565b601f01601f19169290920160200192915050565b6001600160a01b0385811682526080602080840182905286519184018290526000928782019290919060a0860190855b81811015611340578551851683529483019491830191600101611322565b5050858103604087015287518082529082019350915080870160005b838110156113785781518552938201939082019060010161135c565b50505050828103606084015261138e81856112c6565b979650505050505050565b600082601f8301126113aa57600080fd5b81516113b8610fc682611074565b8181528460208386010111156113cd57600080fd5b6113de8260208301602087016112a2565b949350505050565b600080600080608085870312156113fc57600080fd5b845161140781610f01565b602086015190945067ffffffffffffffff8082111561142557600080fd5b61143188838901611399565b94506040870151915061144382610f01565b60608701519193508082111561145857600080fd5b5061121687828801611399565b600082516114778184602087016112a2565b9190910192915050565b808202811582820484141761149857611498611238565b92915050565b6000826114bb57634e487b7160e01b600052601260045260246000fd5b500490565b8082018082111561149857611498611238565b818103818111156114985761149861123856fea2646970667358221220bd0f75fe2ea3b1dd6bdd5ab64d78948aa13a2686b2563c941be531e7303d484d64736f6c63430008140033",
  "linkReferences": {},
  "deployedLinkReferences": {}
}