{
  "_format": "hh-sol-artifact-1",
  "contractName": "BalancerFlashLoanArb",
  "sourceName": "contracts/BalancerFlashLoanArb.sol",
  "abi": [
    {
      "inputs": [
        {
          "internalType": "address",
          "name": "_vault",
          "type": "address"
        }
      ],
      "stateMutability": "nonpayable",
      "type": "constructor"
    },
    {
      "inputs": [],
      "name": "InsufficientProfit",
      "type": "error"
    },
    {
      "inputs": [],
      "name": "InvalidAmount",
      "type": "error"
    },
    {
      "inputs": [
        {
          "internalType": "address",
          "name": "owner",
          "type": "address"
        }
      ],
      "name": "OwnableInvalidOwner",
      "type": "error"
    },
    {
      "inputs": [
        {
          "internalType": "address",
          "name": "account",
          "type": "address"
        }
      ],
      "name": "OwnableUnauthorizedAccount",
      "type": "error"
    },
    {
      "inputs": [],
      "name": "ReentrancyGuardReentrantCall",
      "type": "error"
    },
    {
      "inputs": [],
      "name": "SwapFailed",
      "type": "error"
    },
    {
      "inputs": [],
      "name": "TransferFailed",
      "type": "error"
    },
    {
      "inputs": [],
      "name": "Unauthorized",
      "type": "error"
    },
    {
      "anonymous": false,
      "inputs": [
        {
          "indexed": true,
          "internalType": "address",
          "name": "token",
          "type": "address"
        },
        {
          "indexed": false,
          "internalType": "uint256",
          "name": "amount",
          "type": "uint256"
        }
      ],
      "name": "EmergencyWithdraw",
      "type": "event"
    },
    {
      "anonymous": false,
      "inputs": [
        {
          "indexed": true,
          "internalType": "address",
          "name": "token",
          "type": "address"
        },
        {
          "indexed": false,
          "internalType": "uint256",
          "name": "amount",
          "type": "uint256"
        },
        {
          "indexed": false,
          "internalType": "uint256",
          "name": "feeAmount",
          "type": "uint256"
        },
        {
          "indexed": false,
          "internalType": "uint256",
          "name": "profit",
          "type": "uint256"
        }
      ],
      "name": "FlashLoanExecuted",
      "type": "event"
    },
    {
      "anonymous": false,
      "inputs": [
        {
          "indexed": true,
          "internalType": "address",
          "name": "previousOwner",
          "type": "address"
        },
        {
          "indexed": true,
          "internalType": "address",
          "name": "newOwner",
          "type": "address"
        }
      ],
      "name": "OwnershipTransferred",
      "type": "event"
    },
    {
      "inputs": [],
      "name": "PERMIT2_CONTRACT",
      "outputs": [
        {
          "internalType": "address",
          "name": "",
          "type": "address"
        }
      ],
      "stateMutability": "view",
      "type": "function"
    },
    {
      "inputs": [
        {
          "internalType": "address[]",
          "name": "tokens",
          "type": "address[]"
        }
      ],
      "name": "emergencyWithdrawMultiple",
      "outputs": [],
      "stateMutability": "nonpayable",
      "type": "function"
    },
    {
      "inputs": [
        {
          "internalType": "contract IERC20[]",
          "name": "tokens",
          "type": "address[]"
        },
        {
          "internalType": "uint256[]",
          "name": "amounts",
          "type": "uint256[]"
        },
        {
          "internalType": "bytes",
          "name": "swapData",
          "type": "bytes"
        }
      ],
      "name": "executeFlashLoan",
      "outputs": [],
      "stateMutability": "nonpayable",
      "type": "function"
    },
    {
      "inputs": [],
      "name": "owner",
      "outputs": [
        {
          "internalType": "address",
          "name": "",
          "type": "address"
        }
      ],
      "stateMutability": "view",
      "type": "function"
    },
    {
      "inputs": [
        {
          "internalType": "contract IERC20[]",
          "name": "tokens",
          "type": "address[]"
        },
        {
          "internalType": "uint256[]",
          "name": "amounts",
          "type": "uint256[]"
        },
        {
          "internalType": "uint256[]",
          "name": "feeAmounts",
          "type": "uint256[]"
        },
        {
          "internalType": "bytes",
          "name": "userData",
          "type": "bytes"
        }
      ],
      "name": "receiveFlashLoan",
      "outputs": [],
      "stateMutability": "nonpayable",
      "type": "function"
    },
    {
      "inputs": [],
      "name": "renounceOwnership",
      "outputs": [],
      "stateMutability": "nonpayable",
      "type": "function"
    },
    {
      "inputs": [
        {
          "internalType": "address",
          "name": "newOwner",
          "type": "address"
        }
      ],
      "name": "transferOwnership",
      "outputs": [],
      "stateMutability": "nonpayable",
      "type": "function"
    },
    {
      "inputs": [
        {
          "internalType": "address",
          "name": "tokenAddress",
          "type": "address"
        }
      ],
      "name": "withdraw",
      "outputs": [],
      "stateMutability": "nonpayable",
      "type": "function"
    },
    {
      "stateMutability": "payable",
      "type": "receive"
    }
  ],
  "bytecode": "0x60a060405234801561001057600080fd5b5060405161142738038061142783398101604081905261002f916100c4565b338061005557604051631e4fbdf760e01b81526000600482015260240160405180910390fd5b61005e81610074565b50600180556001600160a01b03166080526100f4565b600080546001600160a01b038381166001600160a01b0319831681178455604051919092169283917f8be0079c531659141344cd1fd0a4f28419497f9722a3daafe3b4186f6b6457e09190a35050565b6000602082840312156100d657600080fd5b81516001600160a01b03811681146100ed57600080fd5b9392505050565b60805161130a61011d600039600081816105d3015281816106540152610abc015261130a6000f3fe60806040526004361061007f5760003560e01c80638da5cb5b1161004e5780638da5cb5b14610102578063f04f270714610138578063f2fde38b14610158578063f840f3fc1461017857600080fd5b8063128677641461008b57806351cff8d9146100ad578063715018a6146100cd57806376ec49ba146100e257600080fd5b3661008657005b600080fd5b34801561009757600080fd5b506100ab6100a6366004610cc6565b61019b565b005b3480156100b957600080fd5b506100ab6100c8366004610d50565b610245565b3480156100d957600080fd5b506100ab61050f565b3480156100ee57600080fd5b506100ab6100fd366004610f27565b610523565b34801561010e57600080fd5b506000546001600160a01b03165b6040516001600160a01b03909116815260200160405180910390f35b34801561014457600080fd5b506100ab610153366004610faf565b610649565b34801561016457600080fd5b506100ab610173366004610d50565b610be4565b34801561018457600080fd5b5061011c6e22d473030f116ddee9f6b43ac78ba381565b6101a3610c1f565b60005b8181101561024057306351cff8d98484848181106101c6576101c661105c565b90506020020160208101906101db9190610d50565b6040516001600160e01b031960e084901b1681526001600160a01b039091166004820152602401600060405180830381600087803b15801561021c57600080fd5b505af192505050801561022d575060015b508061023881611088565b9150506101a6565b505050565b61024d610c1f565b6001600160a01b03811661034f57478061029f5760405162461bcd60e51b815260206004820152600e60248201526d4e6f204554482062616c616e636560901b60448201526064015b60405180910390fd5b600080546040516001600160a01b039091169083908381818185875af1925050503d80600081146102ec576040519150601f19603f3d011682016040523d82523d6000602084013e6102f1565b606091505b5050905080610313576040516312171d8360e31b815260040160405180910390fd5b6040518281526000907f5fafa99d0643513820be26656b45130b01e1c03062e1266bf36f88cbd3bd9695906020015b60405180910390a2505050565b6040516370a0823160e01b815230600482015281906000906001600160a01b038316906370a0823190602401602060405180830381865afa158015610398573d6000803e3d6000fd5b505050506040513d601f19601f820116820180604052508101906103bc91906110a1565b9050600081116104015760405162461bcd60e51b815260206004820152601060248201526f4e6f20746f6b656e2062616c616e636560801b6044820152606401610296565b816001600160a01b031663a9059cbb6104226000546001600160a01b031690565b6040516001600160e01b031960e084901b1681526001600160a01b039091166004820152602481018490526044016020604051808303816000875af115801561046f573d6000803e3d6000fd5b505050506040513d601f19601f8201168201806040525081019061049391906110ba565b6104d15760405162461bcd60e51b815260206004820152600f60248201526e151c985b9cd9995c8819985a5b1959608a1b6044820152606401610296565b826001600160a01b03167f5fafa99d0643513820be26656b45130b01e1c03062e1266bf36f88cbd3bd96958260405161034291815260200190565b50565b610517610c1f565b6105216000610c4c565b565b61052b610c1f565b610533610c9c565b815183511461057c5760405162461bcd60e51b8152602060048201526015602482015274082e4e4c2f240d8cadccee8d040dad2e6dac2e8c6d605b1b6044820152606401610296565b60008351116105bc5760405162461bcd60e51b815260206004820152600c60248201526b456d7074792061727261797360a01b6044820152606401610296565b604051632e1c224f60e11b81526001600160a01b037f00000000000000000000000000000000000000000000000000000000000000001690635c38449e9061060e90309087908790879060040161112c565b600060405180830381600087803b15801561062857600080fd5b505af115801561063c573d6000803e3d6000fd5b5050505061024060018055565b336001600160a01b037f00000000000000000000000000000000000000000000000000000000000000001614610691576040516282b42960e81b815260040160405180910390fd5b6000846000815181106106a6576106a661105c565b602002602001015190506000846000815181106106c5576106c561105c565b602002602001015190506000846000815181106106e4576106e461105c565b60200260200101519050600080600080878060200190518101906107089190611220565b60405163095ea7b360e01b81526e22d473030f116ddee9f6b43ac78ba36004820152602481018b9052939750919550935091506001600160a01b0388169063095ea7b3906044016020604051808303816000875af115801561076e573d6000803e3d6000fd5b505050506040513d601f19601f8201168201806040525081019061079291906110ba565b6107d05760405162461bcd60e51b815260206004820152600f60248201526e105c1c1c9bdd985b0819985a5b1959608a1b6044820152606401610296565b6000846001600160a01b0316836040516107ea919061129f565b6000604051808303816000865af19150503d8060008114610827576040519150601f19603f3d011682016040523d82523d6000602084013e61082c565b606091505b505090508061084e5760405163081ceff360e41b815260040160405180910390fd5b6040516370a0823160e01b8152306004820152736b175474e89094c44da98b954eedeac495271d0f9060009082906370a0823190602401602060405180830381865afa1580156108a2573d6000803e3d6000fd5b505050506040513d601f19601f820116820180604052508101906108c691906110a1565b9050801561099a5760405163095ea7b360e01b81526e22d473030f116ddee9f6b43ac78ba36004820152602481018290526001600160a01b0383169063095ea7b3906044016020604051808303816000875af115801561092a573d6000803e3d6000fd5b505050506040513d601f19601f8201168201806040525081019061094e91906110ba565b61099a5760405162461bcd60e51b815260206004820152601c60248201527f496e7465726d65646961746520617070726f76616c206661696c6564000000006044820152606401610296565b6000866001600160a01b0316856040516109b4919061129f565b6000604051808303816000865af19150503d80600081146109f1576040519150601f19603f3d011682016040523d82523d6000602084013e6109f6565b606091505b5050905080610a185760405163081ceff360e41b815260040160405180910390fd5b6040516370a0823160e01b81523060048201526000906001600160a01b038d16906370a0823190602401602060405180830381865afa158015610a5f573d6000803e3d6000fd5b505050506040513d601f19601f82011682018060405250810190610a8391906110a1565b90508a8111610aa557604051632723fc7560e11b815260040160405180910390fd5b60405163a9059cbb60e01b81526001600160a01b037f000000000000000000000000000000000000000000000000000000000000000081166004830152602482018d90528d169063a9059cbb906044016020604051808303816000875af1158015610b14573d6000803e3d6000fd5b505050506040513d601f19601f82011682018060405250810190610b3891906110ba565b610b765760405162461bcd60e51b815260206004820152600f60248201526e151c985b9cd9995c8819985a5b1959608a1b6044820152606401610296565b6000610b828c836112bb565b604080518e8152600060208201529081018290529091506001600160a01b038e16907fe03a36d920ad8de5a978a8f1917280e202ae9193e6dc19e08ef1f6c2a051eba49060600160405180910390a25050505050505050505050505050505050565b610bec610c1f565b6001600160a01b038116610c1657604051631e4fbdf760e01b815260006004820152602401610296565b61050c81610c4c565b6000546001600160a01b031633146105215760405163118cdaa760e01b8152336004820152602401610296565b600080546001600160a01b038381166001600160a01b0319831681178455604051919092169283917f8be0079c531659141344cd1fd0a4f28419497f9722a3daafe3b4186f6b6457e09190a35050565b600260015403610cbf57604051633ee5aeb560e01b815260040160405180910390fd5b6002600155565b60008060208385031215610cd957600080fd5b823567ffffffffffffffff80821115610cf157600080fd5b818501915085601f830112610d0557600080fd5b813581811115610d1457600080fd5b8660208260051b8501011115610d2957600080fd5b60209290920196919550909350505050565b6001600160a01b038116811461050c57600080fd5b600060208284031215610d6257600080fd5b8135610d6d81610d3b565b9392505050565b634e487b7160e01b600052604160045260246000fd5b604051601f8201601f1916810167ffffffffffffffff81118282101715610db357610db3610d74565b604052919050565b600067ffffffffffffffff821115610dd557610dd5610d74565b5060051b60200190565b600082601f830112610df057600080fd5b81356020610e05610e0083610dbb565b610d8a565b82815260059290921b84018101918181019086841115610e2457600080fd5b8286015b84811015610e48578035610e3b81610d3b565b8352918301918301610e28565b509695505050505050565b600082601f830112610e6457600080fd5b81356020610e74610e0083610dbb565b82815260059290921b84018101918181019086841115610e9357600080fd5b8286015b84811015610e485780358352918301918301610e97565b600067ffffffffffffffff821115610ec857610ec8610d74565b50601f01601f191660200190565b600082601f830112610ee757600080fd5b8135610ef5610e0082610eae565b818152846020838601011115610f0a57600080fd5b816020850160208301376000918101602001919091529392505050565b600080600060608486031215610f3c57600080fd5b833567ffffffffffffffff80821115610f5457600080fd5b610f6087838801610ddf565b94506020860135915080821115610f7657600080fd5b610f8287838801610e53565b93506040860135915080821115610f9857600080fd5b50610fa586828701610ed6565b9150509250925092565b60008060008060808587031215610fc557600080fd5b843567ffffffffffffffff80821115610fdd57600080fd5b610fe988838901610ddf565b95506020870135915080821115610fff57600080fd5b61100b88838901610e53565b9450604087013591508082111561102157600080fd5b61102d88838901610e53565b9350606087013591508082111561104357600080fd5b5061105087828801610ed6565b91505092959194509250565b634e487b7160e01b600052603260045260246000fd5b634e487b7160e01b600052601160045260246000fd5b60006001820161109a5761109a611072565b5060010190565b6000602082840312156110b357600080fd5b5051919050565b6000602082840312156110cc57600080fd5b81518015158114610d6d57600080fd5b60005b838110156110f75781810151838201526020016110df565b50506000910152565b600081518084526111188160208601602086016110dc565b601f01601f19169290920160200192915050565b6001600160a01b0385811682526080602080840182905286519184018290526000928782019290919060a0860190855b8181101561117a57855185168352948301949183019160010161115c565b5050858103604087015287518082529082019350915080870160005b838110156111b257815185529382019390820190600101611196565b5050505082810360608401526111c88185611100565b979650505050505050565b600082601f8301126111e457600080fd5b81516111f2610e0082610eae565b81815284602083860101111561120757600080fd5b6112188260208301602087016110dc565b949350505050565b6000806000806080858703121561123657600080fd5b845161124181610d3b565b602086015190945061125281610d3b565b604086015190935067ffffffffffffffff8082111561127057600080fd5b61127c888389016111d3565b9350606087015191508082111561129257600080fd5b50611050878288016111d3565b600082516112b18184602087016110dc565b9190910192915050565b818103818111156112ce576112ce611072565b9291505056fea26469706673582212205cfe1f3cfb793970a099d4cba2af8f35c19ecc2f79ecd41303427f4506cc9e9764736f6c63430008140033",
  "linkReferences": {},
  "deployedLinkReferences": {}
}