{
  "_format": "hh-sol-artifact-1",
  "contractName": "BalancerFlashLoanArb",
  "sourceName": "contracts/BalancerFlashLoanArb.sol",
  "abi": [
    {
      "inputs": [
        {
          "internalType": "address",
          "name": "_vault",
          "type": "address"
        }
      ],
      "stateMutability": "nonpayable",
      "type": "constructor"
    },
    {
      "inputs": [
        {
          "internalType": "uint256",
          "name": "got",
          "type": "uint256"
        },
        {
          "internalType": "uint256",
          "name": "required",
          "type": "uint256"
        }
      ],
      "name": "InsufficientProfit",
      "type": "error"
    },
    {
      "inputs": [],
      "name": "InvalidAmount",
      "type": "error"
    },
    {
      "inputs": [
        {
          "internalType": "uint256",
          "name": "expected",
          "type": "uint256"
        },
        {
          "internalType": "uint256",
          "name": "actual",
          "type": "uint256"
        }
      ],
      "name": "InvalidFeeAmount",
      "type": "error"
    },
    {
      "inputs": [],
      "name": "SwapFailed",
      "type": "error"
    },
    {
      "inputs": [],
      "name": "TransferFailed",
      "type": "error"
    },
    {
      "inputs": [],
      "name": "Unauthorized",
      "type": "error"
    },
    {
      "inputs": [
        {
          "internalType": "address",
          "name": "spender",
          "type": "address"
        }
      ],
      "name": "UntrustedSpender",
      "type": "error"
    },
    {
      "anonymous": false,
      "inputs": [
        {
          "indexed": true,
          "internalType": "address",
          "name": "token",
          "type": "address"
        },
        {
          "indexed": false,
          "internalType": "uint256",
          "name": "amount",
          "type": "uint256"
        }
      ],
      "name": "EmergencyWithdraw",
      "type": "event"
    },
    {
      "anonymous": false,
      "inputs": [
        {
          "indexed": false,
          "internalType": "uint256",
          "name": "newPrice",
          "type": "uint256"
        },
        {
          "indexed": false,
          "internalType": "uint256",
          "name": "timestamp",
          "type": "uint256"
        }
      ],
      "name": "FallbackPriceUpdated",
      "type": "event"
    },
    {
      "anonymous": false,
      "inputs": [
        {
          "indexed": true,
          "internalType": "address",
          "name": "token",
          "type": "address"
        },
        {
          "indexed": false,
          "internalType": "uint256",
          "name": "amount",
          "type": "uint256"
        },
        {
          "indexed": false,
          "internalType": "uint256",
          "name": "feeAmount",
          "type": "uint256"
        },
        {
          "indexed": false,
          "internalType": "uint256",
          "name": "profit",
          "type": "uint256"
        },
        {
          "indexed": false,
          "internalType": "uint256",
          "name": "minProfitBps",
          "type": "uint256"
        },
        {
          "indexed": false,
          "internalType": "uint256",
          "name": "blockNumber",
          "type": "uint256"
        },
        {
          "indexed": false,
          "internalType": "uint256",
          "name": "gasPrice",
          "type": "uint256"
        },
        {
          "indexed": false,
          "internalType": "uint256",
          "name": "baseFee",
          "type": "uint256"
        }
      ],
      "name": "FlashLoanExecuted",
      "type": "event"
    },
    {
      "anonymous": false,
      "inputs": [
        {
          "indexed": true,
          "internalType": "address",
          "name": "previousOwner",
          "type": "address"
        },
        {
          "indexed": true,
          "internalType": "address",
          "name": "newOwner",
          "type": "address"
        }
      ],
      "name": "OwnershipTransferred",
      "type": "event"
    },
    {
      "anonymous": false,
      "inputs": [
        {
          "indexed": false,
          "internalType": "address",
          "name": "account",
          "type": "address"
        }
      ],
      "name": "Paused",
      "type": "event"
    },
    {
      "anonymous": false,
      "inputs": [
        {
          "indexed": true,
          "internalType": "address",
          "name": "srcToken",
          "type": "address"
        },
        {
          "indexed": true,
          "internalType": "address",
          "name": "dstToken",
          "type": "address"
        },
        {
          "indexed": false,
          "internalType": "uint256",
          "name": "inAmount",
          "type": "uint256"
        },
        {
          "indexed": false,
          "internalType": "uint256",
          "name": "outAmount",
          "type": "uint256"
        },
        {
          "indexed": true,
          "internalType": "address",
          "name": "target",
          "type": "address"
        }
      ],
      "name": "SwapExecuted",
      "type": "event"
    },
    {
      "anonymous": false,
      "inputs": [
        {
          "indexed": true,
          "internalType": "address",
          "name": "spender",
          "type": "address"
        },
        {
          "indexed": false,
          "internalType": "bool",
          "name": "trusted",
          "type": "bool"
        }
      ],
      "name": "TrustedSpenderUpdated",
      "type": "event"
    },
    {
      "anonymous": false,
      "inputs": [
        {
          "indexed": false,
          "internalType": "address",
          "name": "account",
          "type": "address"
        }
      ],
      "name": "Unpaused",
      "type": "event"
    },
    {
      "inputs": [
        {
          "internalType": "address[]",
          "name": "tokens",
          "type": "address[]"
        }
      ],
      "name": "emergencyWithdrawMultiple",
      "outputs": [],
      "stateMutability": "nonpayable",
      "type": "function"
    },
    {
      "inputs": [
        {
          "internalType": "contract IERC20[]",
          "name": "tokens",
          "type": "address[]"
        },
        {
          "internalType": "uint256[]",
          "name": "amounts",
          "type": "uint256[]"
        },
        {
          "internalType": "uint256",
          "name": "minProfitBps",
          "type": "uint256"
        },
        {
          "internalType": "bytes",
          "name": "swapData",
          "type": "bytes"
        }
      ],
      "name": "executeFlashLoan",
      "outputs": [],
      "stateMutability": "nonpayable",
      "type": "function"
    },
    {
      "inputs": [],
      "name": "getETHPriceUSD",
      "outputs": [
        {
          "internalType": "uint256",
          "name": "price",
          "type": "uint256"
        }
      ],
      "stateMutability": "nonpayable",
      "type": "function"
    },
    {
      "inputs": [
        {
          "internalType": "uint256",
          "name": "gasUsed",
          "type": "uint256"
        },
        {
          "internalType": "uint256",
          "name": "gasPrice",
          "type": "uint256"
        }
      ],
      "name": "getGasCostUSD",
      "outputs": [
        {
          "internalType": "uint256",
          "name": "gasCostUSD",
          "type": "uint256"
        }
      ],
      "stateMutability": "nonpayable",
      "type": "function"
    },
    {
      "inputs": [],
      "name": "owner",
      "outputs": [
        {
          "internalType": "address",
          "name": "",
          "type": "address"
        }
      ],
      "stateMutability": "view",
      "type": "function"
    },
    {
      "inputs": [],
      "name": "pause",
      "outputs": [],
      "stateMutability": "nonpayable",
      "type": "function"
    },
    {
      "inputs": [],
      "name": "paused",
      "outputs": [
        {
          "internalType": "bool",
          "name": "",
          "type": "bool"
        }
      ],
      "stateMutability": "view",
      "type": "function"
    },
    {
      "inputs": [
        {
          "internalType": "uint256",
          "name": "newPriceUSD",
          "type": "uint256"
        }
      ],
      "name": "pokeFallbackPrice",
      "outputs": [],
      "stateMutability": "nonpayable",
      "type": "function"
    },
    {
      "inputs": [
        {
          "internalType": "contract IERC20[]",
          "name": "tokens",
          "type": "address[]"
        },
        {
          "internalType": "uint256[]",
          "name": "amounts",
          "type": "uint256[]"
        },
        {
          "internalType": "uint256[]",
          "name": "feeAmounts",
          "type": "uint256[]"
        },
        {
          "internalType": "bytes",
          "name": "userData",
          "type": "bytes"
        }
      ],
      "name": "receiveFlashLoan",
      "outputs": [],
      "stateMutability": "nonpayable",
      "type": "function"
    },
    {
      "inputs": [
        {
          "internalType": "address",
          "name": "spender",
          "type": "address"
        },
        {
          "internalType": "bool",
          "name": "trusted",
          "type": "bool"
        }
      ],
      "name": "setTrustedSpender",
      "outputs": [],
      "stateMutability": "nonpayable",
      "type": "function"
    },
    {
      "inputs": [
        {
          "internalType": "address",
          "name": "",
          "type": "address"
        }
      ],
      "name": "trustedSpenders",
      "outputs": [
        {
          "internalType": "bool",
          "name": "",
          "type": "bool"
        }
      ],
      "stateMutability": "view",
      "type": "function"
    },
    {
      "inputs": [],
      "name": "unpause",
      "outputs": [],
      "stateMutability": "nonpayable",
      "type": "function"
    },
    {
      "inputs": [
        {
          "internalType": "address",
          "name": "tokenAddress",
          "type": "address"
        }
      ],
      "name": "withdraw",
      "outputs": [],
      "stateMutability": "nonpayable",
      "type": "function"
    },
    {
      "stateMutability": "payable",
      "type": "receive"
    }
  ],
  "bytecode": "0x610140604052736b175474e89094c44da98b954eedeac495271d0f60a05273c02aaa39b223fe8d0a0e5c4f27ead9083c756cc260c05273dac17f958d2ee523a2206206994597c13d831ec760e052732260fac5e5542a773aa44fbcfedf7c193bc2c5996101005273a0b86991c6218b36c1d19d4a2e9eb0ce3606eb48610120523480156200008c57600080fd5b50604051620029f4380380620029f4833981016040819052620000af91620001ca565b33620000bb816200017a565b5060018080556002805460ff199081169091556001600160a01b0390921660805260036020527f73d637d229721ca538a0a2e9712eeef46a1889496c0a60f402b430eba28d4a2e80548316821790557fdc51a0a44317b550a6b5ddb34687ce2bd40e4750eec27343e32b23e6867392088054831682179055737a250d5630b4cf539739df2c5dacb4c659f2488d6000527ffb19a963956c9cb662dd3ae48988c4b90766df71ea130109840abe0a1b23dba88054909216179055620001fc565b600080546001600160a01b038381166001600160a01b0319831681178455604051919092169283917f8be0079c531659141344cd1fd0a4f28419497f9722a3daafe3b4186f6b6457e09190a35050565b600060208284031215620001dd57600080fd5b81516001600160a01b0381168114620001f557600080fd5b9392505050565b60805160a05160c05160e05161010051610120516127636200029160003960008181611c9e0152611dec015260008181611c760152611dc4015260008181611c4c0152611d9a01526000818161010801528181611c240152611d72015260008181611bff0152611d4d01526000818160d601528181610a4301528181610d8d01528181610fd601526113fc01526127636000f3fe6080604052600436106100c65760003560e01c80638456cb591161007f578063bce7755511610059578063bce77555146102bb578063dd9a027c146102db578063ee69f708146102fb578063f04f27071461031057600080fd5b80638456cb591461024e5780638da5cb5b1461026357806391c7e5401461028b57600080fd5b8063114948b31461018257806312867764146101a25780633f4ba83a146101c257806351cff8d9146101d75780635c975abb146101f75780636f48a6a61461022057600080fd5b3661017d57336001600160a01b037f000000000000000000000000000000000000000000000000000000000000000016148061012a5750336001600160a01b037f000000000000000000000000000000000000000000000000000000000000000016145b61017b5760405162461bcd60e51b815260206004820152601f60248201527f4f6e6c79207661756c74206f7220574554482063616e2073656e64204554480060448201526064015b60405180910390fd5b005b600080fd5b34801561018e57600080fd5b5061017b61019d366004611fcb565b610330565b3480156101ae57600080fd5b5061017b6101bd366004612004565b610397565b3480156101ce57600080fd5b5061017b610441565b3480156101e357600080fd5b5061017b6101f2366004612079565b610453565b34801561020357600080fd5b5060025460ff165b60405190151581526020015b60405180910390f35b34801561022c57600080fd5b5061024061023b36600461209d565b61074f565b604051908152602001610217565b34801561025a57600080fd5b5061017b610888565b34801561026f57600080fd5b506000546040516001600160a01b039091168152602001610217565b34801561029757600080fd5b5061020b6102a6366004612079565b60036020526000908152604090205460ff1681565b3480156102c757600080fd5b5061017b6102d6366004612272565b610898565b3480156102e757600080fd5b5061017b6102f6366004612304565b610aba565b34801561030757600080fd5b50610240610c3d565b34801561031c57600080fd5b5061017b61032b36600461231d565b610d7a565b610338610ea3565b6001600160a01b038216600081815260036020908152604091829020805460ff191685151590811790915591519182527ff819ab7476cad2806c200f5c1c2b37e2f73cf9644851cb2101dfa70ce4e6dab9910160405180910390a25050565b61039f610ea3565b60005b8181101561043c57306351cff8d98484848181106103c2576103c26123b1565b90506020020160208101906103d79190612079565b6040516001600160e01b031960e084901b1681526001600160a01b039091166004820152602401600060405180830381600087803b15801561041857600080fd5b505af1925050508015610429575060015b5080610434816123dd565b9150506103a2565b505050565b610449610ea3565b610451610efd565b565b61045b610ea3565b60026001540361047d5760405162461bcd60e51b8152600401610172906123f6565b60026001556001600160a01b0381166105805747806104cf5760405162461bcd60e51b815260206004820152600e60248201526d4e6f204554482062616c616e636560901b6044820152606401610172565b600080546040516001600160a01b039091169083908381818185875af1925050503d806000811461051c576040519150601f19603f3d011682016040523d82523d6000602084013e610521565b606091505b5050905080610543576040516312171d8360e31b815260040160405180910390fd5b6040518281526000907f5fafa99d0643513820be26656b45130b01e1c03062e1266bf36f88cbd3bd96959060200160405180910390a25050610748565b6040516370a0823160e01b815230600482015281906000906001600160a01b038316906370a0823190602401602060405180830381865afa1580156105c9573d6000803e3d6000fd5b505050506040513d601f19601f820116820180604052508101906105ed919061242d565b9050600081116106325760405162461bcd60e51b815260206004820152601060248201526f4e6f20746f6b656e2062616c616e636560801b6044820152606401610172565b816001600160a01b031663a9059cbb6106536000546001600160a01b031690565b6040516001600160e01b031960e084901b1681526001600160a01b039091166004820152602481018490526044016020604051808303816000875af11580156106a0573d6000803e3d6000fd5b505050506040513d601f19601f820116820180604052508101906106c49190612446565b6107025760405162461bcd60e51b815260206004820152600f60248201526e151c985b9cd9995c8819985a5b1959608a1b6044820152606401610172565b826001600160a01b03167f5fafa99d0643513820be26656b45130b01e1c03062e1266bf36f88cbd3bd96958260405161073d91815260200190565b60405180910390a250505b5060018055565b600080306001600160a01b031663ee69f7086040518163ffffffff1660e01b81526004016020604051808303816000875af1158015610792573d6000803e3d6000fd5b505050506040513d601f19601f820116820180604052508101906107b6919061242d565b90506001600160801b038411156108035760405162461bcd60e51b81526020600482015260116024820152706761735573656420746f6f206c6172676560781b6044820152606401610172565b6001600160801b0383111561084f5760405162461bcd60e51b8152602060048201526012602482015271676173507269636520746f6f206c6172676560701b6044820152606401610172565b600061085b8486612463565b90506a52b7d2dcc80cd2e40000006108738383612463565b61087d919061247a565b925050505b92915050565b610890610ea3565b610451610f4f565b6108a0610ea3565b6002600154036108c25760405162461bcd60e51b8152600401610172906123f6565b60026001556108cf610f8c565b82518451146109185760405162461bcd60e51b8152602060048201526015602482015274082e4e4c2f240d8cadccee8d040dad2e6dac2e8c6d605b1b6044820152606401610172565b83516001146109785760405162461bcd60e51b815260206004820152602660248201527f4f6e6c792073696e676c6520746f6b656e20666c617368206c6f616e207375706044820152651c1bdc9d195960d21b6064820152608401610172565b60008360008151811061098d5761098d6123b1565b6020026020010151116109e25760405162461bcd60e51b815260206004820181905260248201527f416d6f756e74206d7573742062652067726561746572207468616e207a65726f6044820152606401610172565b6103e8821115610a275760405162461bcd60e51b815260206004820152601060248201526f4d61782031302520736c69707061676560801b6044820152606401610172565b6006829055604051632e1c224f60e11b81526001600160a01b037f00000000000000000000000000000000000000000000000000000000000000001690635c38449e90610a7e9030908890889087906004016124ec565b600060405180830381600087803b158015610a9857600080fd5b505af1158015610aac573d6000803e3d6000fd5b505060018055505050505050565b610ac2610ea3565b60008111610b0b5760405162461bcd60e51b81526020600482015260166024820152755072696365206d75737420626520706f73697469766560501b6044820152606401610172565b6402540be400811015610b505760405162461bcd60e51b815260206004820152600d60248201526c507269636520746f6f206c6f7760981b6044820152606401610172565b64e8d4a51000811115610b965760405162461bcd60e51b815260206004820152600e60248201526d0a0e4d2c6ca40e8dede40d0d2ced60931b6044820152606401610172565b62093a8060055442610ba89190612593565b11610bf55760405162461bcd60e51b815260206004820152601b60248201527f50726963652066656564206e6f74207374616c6520656e6f75676800000000006044820152606401610172565b60048190554260058190556040805183815260208101929092527f1c1ae796fc41a2f7b042d5b4b9f7a0f7eee2169bc11e7ba0b3672cfa44f3d0c1910160405180910390a150565b6000610c4b60025460ff1690565b15610c8a5760405162461bcd60e51b815260206004820152600f60248201526e10dbdb9d1c9858dd081c185d5cd959608a1b6044820152606401610172565b600080735f4ec3df9cbd43714fe2740f5e3616155c5b84196001600160a01b031663feaf968c6040518163ffffffff1660e01b815260040160a060405180830381865afa158015610cdf573d6000803e3d6000fd5b505050506040513d601f19601f82011682018060405250810190610d0391906125c5565b50935050925050620151808142610d1a9190612593565b11158015610d285750600082135b15610d3c5750600481905542600555919050565b6000600454118015610d5e575062093a8060055442610d5b9190612593565b11155b15610d6d576004549250505090565b6445d964b8009250505090565b610d82610f8c565b336001600160a01b037f00000000000000000000000000000000000000000000000000000000000000001614610dca576040516282b42960e81b815260040160405180910390fd5b600654600003610e1c5760405162461bcd60e51b815260206004820152601c60248201527f4d696e50726f666974427073206e6f7420696e697469616c697a6564000000006044820152606401610172565b600084600081518110610e3157610e316123b1565b60200260200101519050600084600081518110610e5057610e506123b1565b60200260200101519050600084600081518110610e6f57610e6f6123b1565b60200260200101519050610e838282610fd2565b600680546000909155610e99848484848961110a565b5050505050505050565b6000546001600160a01b031633146104515760405162461bcd60e51b815260206004820181905260248201527f4f776e61626c653a2063616c6c6572206973206e6f7420746865206f776e65726044820152606401610172565b610f056111bf565b6002805460ff191690557f5db9ee0a495bf2e6ff9c91a7834c1ba4fdd244a5e8aa4e537bd38aeae4b073aa335b6040516001600160a01b03909116815260200160405180910390a1565b610f57610f8c565b6002805460ff191660011790557f62e78cea01bee320cd4e420270b5ea74000d11b0c9f74754ebdbfc544b05a258610f323390565b60025460ff16156104515760405162461bcd60e51b815260206004820152601060248201526f14185d5cd8589b194e881c185d5cd95960821b6044820152606401610172565b60007f00000000000000000000000000000000000000000000000000000000000000006001600160a01b031663d2946c2b6040518163ffffffff1660e01b8152600401602060405180830381865afa158015611032573d6000803e3d6000fd5b505050506040513d601f19601f820116820180604052508101906110569190612615565b6001600160a01b031663d877845c6040518163ffffffff1660e01b8152600401602060405180830381865afa158015611093573d6000803e3d6000fd5b505050506040513d601f19601f820116820180604052508101906110b7919061242d565b90506000670de0b6b3a76400006110ce8386612463565b6110d8919061247a565b9050808314611104576040516318731f9b60e01b81526004810182905260248101849052604401610172565b50505050565b60026001540361112c5760405162461bcd60e51b8152600401610172906123f6565b60026001556040516370a0823160e01b81523060048201526000906001600160a01b038716906370a0823190602401602060405180830381865afa158015611178573d6000803e3d6000fd5b505050506040513d601f19601f8201168201806040525081019061119c919061242d565b90506000806111ac888886611208565b91509150610aac888888868987876112d6565b60025460ff166104515760405162461bcd60e51b815260206004820152601460248201527314185d5cd8589b194e881b9bdd081c185d5cd95960621b6044820152606401610172565b60008060608084806020019051810190611222919061267f565b6001600160a01b038416600090815260036020526040902054939750909550909350915060ff1661127157604051636fb81b8d60e11b81526001600160a01b0385166004820152602401610172565b6001600160a01b03831660009081526003602052604090205460ff166112b557604051636fb81b8d60e11b81526001600160a01b0384166004820152602401610172565b6112c187878685611542565b6112cc878483611738565b5050935093915050565b6040516370a0823160e01b81523060048201526000906001600160a01b038916906370a0823190602401602060405180830381865afa15801561131d573d6000803e3d6000fd5b505050506040513d601f19601f82011682018060405250810190611341919061242d565b90506113586001600160a01b03891684600061194b565b61136d6001600160a01b03891683600061194b565b611378888484611beb565b600061138487896126fe565b905060006127106113958784612463565b61139f919061247a565b90506000816113ae848a6126fe565b6113b891906126fe565b9050808410156113e557604051632744211560e11b81526004810185905260248101829052604401610172565b60405163a9059cbb60e01b81526001600160a01b037f000000000000000000000000000000000000000000000000000000000000000081166004830152602482018590528c169063a9059cbb906044016020604051808303816000875af1158015611454573d6000803e3d6000fd5b505050506040513d601f19601f820116820180604052508101906114789190612446565b6114b65760405162461bcd60e51b815260206004820152600f60248201526e151c985b9cd9995c8819985a5b1959608a1b6044820152606401610172565b60006114c2848a6126fe565b6114cc9086612593565b604080518d8152602081018d9052908101829052606081018a90524360808201523a60a08201524860c08201529091506001600160a01b038d16907fcaf3632d5cc34e1bba5d0f1019096e2bf42de7cd9ee65221bddd7e88e13a52fa9060e00160405180910390a2505050505050505050505050565b6115566001600160a01b038516838561194b565b6040516370a0823160e01b81523060048201526000906001600160a01b038616906370a0823190602401602060405180830381865afa15801561159d573d6000803e3d6000fd5b505050506040513d601f19601f820116820180604052508101906115c1919061242d565b90506000836001600160a01b0316836040516115dd9190612711565b6000604051808303816000865af19150503d806000811461161a576040519150601f19603f3d011682016040523d82523d6000602084013e61161f565b606091505b50509050806116415760405163081ceff360e41b815260040160405180910390fd5b6040516370a0823160e01b81523060048201526000906001600160a01b038816906370a0823190602401602060405180830381865afa158015611688573d6000803e3d6000fd5b505050506040513d601f19601f820116820180604052508101906116ac919061242d565b905060006116ba8285612593565b90506000806116c88a611d39565b91509150876001600160a01b0316826001600160a01b03168b6001600160a01b03167fee4825a7988c5519a874be79f2a84d13d02cfe5f74cad97cda2d5b55d2b13bfa8685604051611724929190918252602082015260400190565b60405180910390a450505050505050505050565b60008061174485611d39565b90925090506001600160a01b038216158015906117615750600081115b1561177a5761177a6001600160a01b038316858361194b565b6040516370a0823160e01b81523060048201526000906001600160a01b038716906370a0823190602401602060405180830381865afa1580156117c1573d6000803e3d6000fd5b505050506040513d601f19601f820116820180604052508101906117e5919061242d565b90506000856001600160a01b0316856040516118019190612711565b6000604051808303816000865af19150503d806000811461183e576040519150601f19603f3d011682016040523d82523d6000602084013e611843565b606091505b50509050806118655760405163081ceff360e41b815260040160405180910390fd5b6040516370a0823160e01b81523060048201526000906001600160a01b038916906370a0823190602401602060405180830381865afa1580156118ac573d6000803e3d6000fd5b505050506040513d601f19601f820116820180604052508101906118d0919061242d565b905060006118de8483612593565b9050876001600160a01b0316896001600160a01b0316876001600160a01b03167fee4825a7988c5519a874be79f2a84d13d02cfe5f74cad97cda2d5b55d2b13bfa8885604051611938929190918252602082015260400190565b60405180910390a4505050505050505050565b6000811180156119cc5750604051636eb1769f60e11b81523060048201526001600160a01b0383811660248301526000919085169063dd62ed3e90604401602060405180830381865afa1580156119a6573d6000803e3d6000fd5b505050506040513d601f19601f820116820180604052508101906119ca919061242d565b115b15611ade57604080516001600160a01b0384811660248301526000604480840182905284518085039091018152606490930184526020830180516001600160e01b031663095ea7b360e01b1790529251839291871691611a2b91612711565b6000604051808303816000865af19150503d8060008114611a68576040519150601f19603f3d011682016040523d82523d6000602084013e611a6d565b606091505b5091509150818015611a97575080511580611a97575080806020019051810190611a979190612446565b611adb5760405162461bcd60e51b815260206004820152601560248201527414995cd95d08185c1c1c9bdd985b0819985a5b1959605a1b6044820152606401610172565b50505b604080516001600160a01b038481166024830152604480830185905283518084039091018152606490920183526020820180516001600160e01b031663095ea7b360e01b1790529151600092839290871691611b3a9190612711565b6000604051808303816000865af19150503d8060008114611b77576040519150601f19603f3d011682016040523d82523d6000602084013e611b7c565b606091505b5091509150818015611ba6575080511580611ba6575080806020019051810190611ba69190612446565b611be45760405162461bcd60e51b815260206004820152600f60248201526e105c1c1c9bdd985b0819985a5b1959608a1b6044820152606401610172565b5050505050565b6040805160a0810182526001600160a01b037f0000000000000000000000000000000000000000000000000000000000000000811682527f0000000000000000000000000000000000000000000000000000000000000000811660208301527f00000000000000000000000000000000000000000000000000000000000000008116928201929092527f0000000000000000000000000000000000000000000000000000000000000000821660608201527f0000000000000000000000000000000000000000000000000000000000000000909116608082015260005b6005811015611be457846001600160a01b0316828260058110611ced57611ced6123b1565b60200201516001600160a01b031614611d31576000828260058110611d1457611d146123b1565b60200201519050611d258186611f12565b611d2f8185611f12565b505b600101611cc8565b6040805160a0810182526001600160a01b037f0000000000000000000000000000000000000000000000000000000000000000811682527f0000000000000000000000000000000000000000000000000000000000000000811660208301527f00000000000000000000000000000000000000000000000000000000000000008116928201929092527f0000000000000000000000000000000000000000000000000000000000000000821660608201527f0000000000000000000000000000000000000000000000000000000000000000909116608082015260009081908180805b6005811015611f0757866001600160a01b0316848260058110611e4157611e416123b1565b60200201516001600160a01b031614611eff576000848260058110611e6857611e686123b1565b60200201516040516370a0823160e01b81523060048201526001600160a01b03909116906370a0823190602401602060405180830381865afa158015611eb2573d6000803e3d6000fd5b505050506040513d601f19601f82011682018060405250810190611ed6919061242d565b905083811115611efd57809350848260058110611ef557611ef56123b1565b602002015192505b505b600101611e1c565b509590945092505050565b604051636eb1769f60e11b81523060048201526001600160a01b0382811660248301526000919084169063dd62ed3e90604401602060405180830381865afa158015611f62573d6000803e3d6000fd5b505050506040513d601f19601f82011682018060405250810190611f86919061242d565b1115611fa157611fa16001600160a01b03831682600061194b565b5050565b6001600160a01b0381168114611fba57600080fd5b50565b8015158114611fba57600080fd5b60008060408385031215611fde57600080fd5b8235611fe981611fa5565b91506020830135611ff981611fbd565b809150509250929050565b6000806020838503121561201757600080fd5b823567ffffffffffffffff8082111561202f57600080fd5b818501915085601f83011261204357600080fd5b81358181111561205257600080fd5b8660208260051b850101111561206757600080fd5b60209290920196919550909350505050565b60006020828403121561208b57600080fd5b813561209681611fa5565b9392505050565b600080604083850312156120b057600080fd5b50508035926020909101359150565b634e487b7160e01b600052604160045260246000fd5b604051601f8201601f1916810167ffffffffffffffff811182821017156120fe576120fe6120bf565b604052919050565b600067ffffffffffffffff821115612120576121206120bf565b5060051b60200190565b600082601f83011261213b57600080fd5b8135602061215061214b83612106565b6120d5565b82815260059290921b8401810191818101908684111561216f57600080fd5b8286015b8481101561219357803561218681611fa5565b8352918301918301612173565b509695505050505050565b600082601f8301126121af57600080fd5b813560206121bf61214b83612106565b82815260059290921b840181019181810190868411156121de57600080fd5b8286015b8481101561219357803583529183019183016121e2565b600067ffffffffffffffff821115612213576122136120bf565b50601f01601f191660200190565b600082601f83011261223257600080fd5b813561224061214b826121f9565b81815284602083860101111561225557600080fd5b816020850160208301376000918101602001919091529392505050565b6000806000806080858703121561228857600080fd5b843567ffffffffffffffff808211156122a057600080fd5b6122ac8883890161212a565b955060208701359150808211156122c257600080fd5b6122ce8883890161219e565b94506040870135935060608701359150808211156122eb57600080fd5b506122f887828801612221565b91505092959194509250565b60006020828403121561231657600080fd5b5035919050565b6000806000806080858703121561233357600080fd5b843567ffffffffffffffff8082111561234b57600080fd5b6123578883890161212a565b9550602087013591508082111561236d57600080fd5b6123798883890161219e565b9450604087013591508082111561238f57600080fd5b61239b8883890161219e565b935060608701359150808211156122eb57600080fd5b634e487b7160e01b600052603260045260246000fd5b634e487b7160e01b600052601160045260246000fd5b6000600182016123ef576123ef6123c7565b5060010190565b6020808252601f908201527f5265656e7472616e637947756172643a207265656e7472616e742063616c6c00604082015260600190565b60006020828403121561243f57600080fd5b5051919050565b60006020828403121561245857600080fd5b815161209681611fbd565b8082028115828204841417610882576108826123c7565b60008261249757634e487b7160e01b600052601260045260246000fd5b500490565b60005b838110156124b757818101518382015260200161249f565b50506000910152565b600081518084526124d881602086016020860161249c565b601f01601f19169290920160200192915050565b6001600160a01b0385811682526080602080840182905286519184018290526000928782019290919060a0860190855b8181101561253a57855185168352948301949183019160010161251c565b5050858103604087015287518082529082019350915080870160005b8381101561257257815185529382019390820190600101612556565b50505050828103606084015261258881856124c0565b979650505050505050565b81810381811115610882576108826123c7565b805169ffffffffffffffffffff811681146125c057600080fd5b919050565b600080600080600060a086880312156125dd57600080fd5b6125e6866125a6565b9450602086015193506040860151925060608601519150612609608087016125a6565b90509295509295909350565b60006020828403121561262757600080fd5b815161209681611fa5565b600082601f83011261264357600080fd5b815161265161214b826121f9565b81815284602083860101111561266657600080fd5b61267782602083016020870161249c565b949350505050565b6000806000806080858703121561269557600080fd5b84516126a081611fa5565b602086015190945067ffffffffffffffff808211156126be57600080fd5b6126ca88838901612632565b9450604087015191506126dc82611fa5565b6060870151919350808211156126f157600080fd5b506122f887828801612632565b80820180821115610882576108826123c7565b6000825161272381846020870161249c565b919091019291505056fea26469706673582212209b08e5eb1bb4e3eac1f9a7be81eb11f8f1aa3f22c16e29684f3e251fbf81868764736f6c63430008140033",
  "linkReferences": {},
  "deployedLinkReferences": {}
}